:020000040800F2
:10000000507E00203502000879270008F5260008F8
:1000100075270008D1030008D93600080000000049
:10002000000000000000000000000000572D000844
:100030005905000800000000252D0008E72E0008E3
:100040004F0200084F0200084F0200084F0200084C
:100050004F0200084F0200084F0200084F0200083C
:100060004F0200084F0200084F0200084F0200082C
:10007000AD040008BD040008CD040008DD0400083C
:10008000ED040008FD0400084F0200084F020008BC
:100090004F0200084F0200084F0200084F020008FC
:1000A0004F0200084F0200084F0200084F020008EC
:1000B0004F020008592F00084F0200084F020008A5
:1000C0004F0200084F0200084F0200084F020008CC
:1000D0004F02000871350008E1350008513600086C
:1000E0004F0200084F0200084F0200080000000005
:1000F0000000000000000000000000000000000000
:1001000000000000000000004F0200084F0200083D
:10011000D93000084F0200084F0200084F020008C3
:100120004F0200084F0200080D0500084F020008AA
:100130001D0500084F0200084F0200084F0200088A
:100140004F0200084F0200084F0200084F0200084B
:1001500000F002F800F05EF80AA090E8000C82447B
:100160008344AAF10107DA4501D100F053F8AFF258
:10017000090EBAE80F0013F0010F18BFFB1A43F085
:1001800001031847C0360000E036000010F8013BBC
:100190000A4413F0030408BF10F8014B1D1108BFF7
:1001A00010F8015B641E05D010F8016B641E01F8A5
:1001B000016BF9D1002D15D010F8014B03F00C03A1
:1001C0000C2BA1EB04040ABF10F8013BA4EB831431
:1001D000A4EB032405F1010314F8016B5B1E01F885
:1001E000016BF9D5914238BF10F8013BD1D370476C
:1001F0000023002400250026103A28BF78C1FBD830
:10020000520728BF30C148BF0B6070471FB51FBDE4
:1002100010B510BD00F0AAF81146FFF7F7FF03F084
:10022000A9FA00F0C8F803B4FFF7F2FF03BC03F02B
:1002300055FA00000948804709480047FEE7FEE7F5
:10024000FEE7FEE7FEE7FEE7FEE7FEE7FEE7FEE786
:1002500004480549054A064B70470000F52E000882
:100260005101000850780020507E0020507A002074
:10027000507A0020704753EA020C00F069802DE9A3
:10028000F04B4FF00006002B1FBFB3FA83F503FAC3
:1002900005F424FA05F65E4012BF1643B2FA82F561
:1002A00002FA05F4C5F120051EBF22FA05FC44EA56
:1002B0000C04203556EA044C4FEA144418BF641C61
:1002C0004FF000084FF00009904271EB030C39D356
:1002D000002919BFB1FA81F701FA07F6B0FA80F7E1
:1002E00000FA07F6C7F120071EBF20FA07FC46EA0E
:1002F0000C062037B6FBF4FCA7EB0507103F07F010
:100300001F0BCBF120060CFA0BFB2CFA06F644BFB0
:10031000B3460026202FA4BF5E464FF0000B5BEAD9
:10032000060C08BF4FF0010B19EB0B09ABFB027C6D
:1003300048EB0608C01B06FB02CC0BFB03CC71EBA1
:100340000C01C1E70B46024641464846BDE8F08B2A
:1003500013B54FF000004FF00001AFF30080BDE88F
:100360001C4070477047704770477047754600F0F3
:100370002BF8AE4605006946534620F00700854637
:1003800018B020B5FFF764FFBDE820404FF000062D
:100390004FF000074FF000084FF0000B21F007016D
:1003A000AC46ACE8C009ACE8C009ACE8C009ACE8B0
:1003B000C0098D46704710B50446AFF30080204653
:1003C000BDE81040FFF72FBF00487047F0770020CE
:1003D00000BFFEE72DE9FC410646354600244CE00F
:1003E00005F0C008B8F1000F09D0B8F1400F0AD0ED
:1003F000B8F1800F0BD0B8F1C00F10D10BE0002086
:1004000001A908550CE00F2001A9085508E0F020CB
:1004100001A9085504E0FF2001A9085500E000BF2C
:1004200000BFA806050E05F0C00737B1402F08D061
:10043000802F0AD0C02F10D10BE000200DF804004F
:100440000CE00F200DF8040008E0F0200DF8040087
:1004500004E0FF200DF8040000E000BF00BFA80684
:10046000050E01A9085D012102F016FC1DF804002B
:10047000012102F011FC601CC4B2022CB0DBBDE80B
:10048000FC8100001CB50446FF2001210C2305A2BD
:10049000CDE900100021084602F090FB02F0E2FADC
:1004A00000201CBDD6F7B2CBB5A5000010B502499F
:1004B000086B00F091F910BD2060002010B50249D2
:1004C000486B00F089F910BD2060002010B502498A
:1004D000086B00F081F910BD5065002010B502498D
:1004E000486B00F079F910BD5065002010B5024945
:1004F000486B00F071F910BDF05A002010B50249A8
:10050000086B00F069F910BDF05A002010B50249DF
:10051000486B00F061F910BD806A002010B50249F7
:10052000086B00F059F910BD806A002030B590F8D2
:1005300040500124AC40C56B6C6004686360446843
:10054000102C04D10468A2600468E16003E0046830
:10055000A1600468E26030BD704770B5064677213F
:10056000002002F0F9FB7F21002002F005FC02F0E0
:1005700013FC00240FE0002509E00121304602F0C1
:100580008BFB0121304602F087FB681CC5B2782D39
:10059000F3DB601CC4B2802CEDDB70BD70B502468D
:1005A00000230C291FD15524002018E000EB800502
:1005B00005EBC0050E4E16F815501678B5420CD155
:1005C00000EB800505EBC005094E06EB45056D788F
:1005D0005678B54201D1034603E0451CA8B2A042BB
:1005E000E4DB00BF02E0102900D000BF184670BD58
:1005F0004E520020014600200A68126822F00E02C6
:100600000B681A600A68126822F001020B681A600F
:1006100091F8403001229A40CB6B5A60012281F858
:10062000212000BF002281F8202000BF7047000079
:1006300070B50446002594F82100022803D0042058
:10064000A0630125C1E02068006820F00E00216849
:1006500008602068006820F00100216808605C499B
:100660002068884252D95A4978392068884201D195
:10067000012047E0564964392068884201D11020A2
:1006800040E0534950392068884201D1801539E053
:100690004F493C392068884201D1801432E04C49EE
:1006A00028392068884202D14FF480302AE0484936
:1006B00014392068884202D14FF4801022E0444966
:1006C0002068884201D140041CE0424920688842E9
:1006D00001D1012016E03F4914312068884201D140
:1006E00010200FE03B4928312068884201D1801555
:1006F00008E038493C312068884201D1801401E08B
:100700004FF480303349091F086051E0304978398F
:100710002068884201D1012047E02D4964392068D2
:10072000884201D1102040E0294950392068884290
:1007300001D1801539E026493C392068884201D131
:10074000801432E0224928392068884202D14FF4CF
:1007500080302AE01E4914392068884202D14FF4C3
:10076000801022E01A492068884201D140041CE030
:1007700018492068884201D1012016E0154914313A
:100780002068884201D110200FE0124928312068EA
:10079000884201D1801508E00E493C31206888422A
:1007A00001D1801401E04FF480300949803948605C
:1007B000012084F8210000BF002084F8200000BF41
:1007C000606B10B12046616B8847284670BD000001
:1007D000800002400804024070B50446E06B0568E2
:1007E0002068066894F840100420884028400028BB
:1007F00075D006F004000028FAD02068006800F0E8
:10080000200028B92068006820F0040021680860F2
:10081000D5492068884254D9D3497839206888421C
:1008200001D1042049E0D04964392068884201D1CF
:10083000402042E0CC4950392068884201D100155F
:100840003BE0C9493C392068884202D14FF48040DE
:1008500033E0C54928392068884202D14FF480200E
:100860002BE0C14914392068884202D14FF480003E
:1008700023E0BD492068884201D1C0041DE0BB4986
:100880002068884201D1042017E0B849143120685B
:10089000884201D1402010E0B449283120688842C4
:1008A00001D1001509E0B1493C312068884202D1EC
:1008B0004FF4804001E04FF48020AC49091F0860EC
:1008C00054E0A94978392068884201D104204AE0DF
:1008D000A54964392068884202D1402043E04CE0B9
:1008E000A14950392068884201D100153BE09E495A
:1008F0003C392068884202D14FF4804033E09A4965
:1009000028392068884202D14FF480202BE0964994
:1009100014392068884202D14FF4800023E09249C4
:100920002068884201D1C0041DE0904920688842B7
:1009300001D1042017E08D4914312068884201D18B
:10094000402010E0894928312068884201D10015F3
:1009500009E086493C312068884202D14FF480404A
:1009600001E04FF48020804980394860E06A002827
:1009700002D02046E16A8847F4E094F84010022053
:1009800088402840002871D006F002000028FAD0E4
:100990002068006800F0200040B92068006820F05E
:1009A0000A0021680860012084F821006E4920684F
:1009B000884254D96C4978392068884201D1022094
:1009C00049E0694964392068884201D1202042E029
:1009D000654950392068884201D140153BE06249A1
:1009E0003C392068884202D14FF4005033E05E4920
:1009F00028392068884202D14FF400302BE05A4950
:100A000014392068884202D14FF4001023E056497F
:100A10002068884201D180041DE054492068884242
:100A200001D1022017E0514914312068884201D1D8
:100A3000202010E04D4928312068884201D140151E
:100A400009E04A493C312068884202D14FF4005005
:100A500001E04FF400304549091F086054E0424965
:100A600078392068884202D102204AE057E03E49A6
:100A700064392068884201D1202042E03A49503947
:100A80002068884201D140153BE037493C39206855
:100A9000884202D14FF4005033E0334928392068AE
:100AA000884202D14FF400302BE02F4914392068DE
:100AB000884202D14FF4001023E02B49206888427D
:100AC00001D180041DE029492068884201D102201B
:100AD00017E0264914312068884201D1202010E017
:100AE000224928312068884201D1401509E01F4978
:100AF0003C312068884202D14FF4005001E04FF4AD
:100B0000003019498039486000BF002084F8200077
:100B100000BFA06A30B32046A16A884722E094F85B
:100B20004010082088402840E0B106F00800C8B115
:100B30002068006820F00E002168086094F84010DA
:100B400001208840E16B48600120A06384F8210007
:100B500000BF002084F8200000BF206B10B12046A9
:100B6000216B884770BD00008000024008040240ED
:100B70000146002209B901207047204B08689842BD
:100B80000BD21F4B0868C01A1423B0FBF3F080008F
:100B900008641B480838C8630AE0184B0868C01A84
:100BA0001423B0FBF3F08000086414480838C863CD
:100BB000022081F821000868026843F6F070824341
:100BC000D1E901031843CB6818430B6918434B69FB
:100BD00018438B691843CB691843024308680260C5
:100BE00000208862C862086348638863012081F836
:100BF0002100002081F8200000BFBDE7080402406A
:100C0000080002402DE9F04104460D4616461F46F5
:100C10004FF0000800BF94F82000012802D1022004
:100C2000BDE8F081012084F8200000BF94F8210085
:100C300001282CD1022084F821000020A063206824
:100C4000006820F00100216808603B4632462946D2
:100C50002046FFF76BFCE06A30B12068006840F086
:100C60000E00216808600BE02068006820F0040096
:100C7000216808602068006840F00A002168086068
:100C80002068006840F001002168086006E000BFAD
:100C9000002084F8200000BF4FF002084046BFE764
:100CA00070B5044600F0A4F906462546681C10B14C
:100CB00004480078054400BF00F09AF9801BA84260
:100CC000FAD370BD0C0000202DE9F847034600243C
:100CD000002000258446002700226EE14FF0010825
:100CE00008FA02F4D1F8008008EA0400A0427DD19D
:100CF000DFF8D0A2D1F80480A8EB0A09D0453AD099
:100D000014DCB8F1030F50D009DCB8F1000F31D07A
:100D1000B8F1010F1CD0B8F1020F49D120E0B8F1B1
:100D2000110F18D0B8F1120F42D11EE0B9F5881F8B
:100D300025D006DCB9F5803F20D0B9F5801F37D12A
:100D40001AE0B9F5001F18D0B9F5041F30D117E02B
:100D5000D1F80CC02DE0D1F80C8008F1040C28E08B
:100D6000D1F80C8008F1080C23E0D1F80C8008F1D0
:100D70000C0C1EE000BF00BF00BF00BF00BF00BFE3
:100D8000D1F80880B8F1000F02D14FF0040C0BE04D
:100D9000D1F80880B8F1010F03D14FF0080C1C61A5
:100DA00002E04FF0080C5C6103E04FF0000C00E043
:100DB00000BF00BFFF2801D8984601E003F10408F6
:100DC0004646FF2802D84FEA820803E0A2F108084D
:100DD0004FEA88084746D6F800804FF00F0909FA15
:100DE00007F928EA09080CFA07F900E088E048EA60
:100DF0000908C6F80080D1F8048008F08058B8F1DE
:100E0000805F7DD100BFDFF8C081D8F8188048F03E
:100E10000108DFF8B491C9F81880C846D8F81880DE
:100E200008F00108CDF8008000BF00BF4FEAB938D4
:100E30004FEA920958F829504FEA82784FEA187918
:100E40004FF00F0808FA09F825EA0805DFF87C8159
:100E5000434502D14FF0000816E0DFF874814345A6
:100E600002D14FF001080FE0DFF86881434502D15D
:100E70004FF0020808E0DFF86081434502D14FF0EF
:100E8000030801E04FF004084FEA82794FEA19792C
:100E900008FA09F848EA0505DFF840814FEA9209A7
:100EA00048F82950D1F8048008F48038B8F5803F1C
:100EB0000AD1DFF82C81D8F8008048EA0008DFF872
:100EC0002091C9F8008009E0DFF81481D8F800808B
:100ED00028EA0008DFF80891C9F80080D1F80480FA
:100EE00008F40038B8F5003F10D1DFF8F48008F1BD
:100EF0000408D8F8008048EA0008DFF8E49000E031
:100F00005AE009F10409C9F800800DE0DFF8D0804B
:100F100008F10408D8F8008028EA0008DFF8C0903B
:100F200009F10409C9F80080D1F8048008F4801898
:100F3000B8F5801F0ED1DFF8A88008F10808D8F8AE
:100F4000008048EA0008DFF8989009F10809C9F81C
:100F500000800DE0DFF8888008F10808D8F80080EC
:100F600028EA0008DFF8789009F10809C9F800803C
:100F7000D1F8048008F40018B8F5001F0ED1DFF88E
:100F8000608008F10C08D8F8008048EA0008DFF813
:100F9000509009F10C09C9F800800DE0DFF840809D
:100FA00008F10C08D8F8008028EA0008DFF8309033
:100FB00009F10C09C9F80080521C102AFFF48EAE0A
:100FC000BDE8F88700001110001002400008014041
:100FD000000C0140001001400014014008000140D5
:100FE000000401400AB1016101E00B040361704794
:100FF00001480068704700000400002003480068B2
:10100000034909780844014908607047040000203A
:101010000C00002010B50848006840F01000064998
:101020000860052000F0C4F8002000F007F800F088
:101030002BF8002010BD00000020024070B50446CF
:101040000E4800784FF47A71B1FBF0F00C49096852
:10105000B1FBF0F5284600F004FD08B1012070BD99
:10106000102C07D200222146501E00F062F80548DD
:10107000046001E00120F2E70020F0E70C0000200E
:10108000000000200800002008B500BF214880694A
:1010900040F001001F4988610846806900F00100A6
:1010A000009000BF00BF00BF0846C06940F08050FC
:1010B000C8610846C06900F08050009000BF00BFC2
:1010C000032000F075F8002211466FF00B0000F0CD
:1010D00030F8002211466FF00A0000F02AF80022D2
:1010E00011466FF0090000F024F800221146501F4D
:1010F00000F01FF800221146101F00F01AF800221D
:101100001146901E00F015F800221146501E00F006
:1011100010F808BD0010024000BF00F01F020121BE
:1011200091404209920002F1E022C2F8001100BF92
:1011300070472DE9F05F80460D461646002701F006
:101140001DFB074639462A46334601F00700C0F129
:10115000070ABAF1040F02D94FF0040A01E0C0F106
:10116000070AD14600F1040ABAF1070F02D24FF084
:10117000000A01E0A0F1030AD4464FF0010A0AFA7E
:1011800009FAAAF1010A0AEA020A0AFA0CFA4FF06D
:10119000010B0BFA0CFBABF1010B0BEA030B4AEA58
:1011A0000B042146404601F0F1FABDE8F09F000033
:1011B00000BF00F00702064B19684FF6FF03194005
:1011C000044B0B4343EA0221014B196000BF7047F7
:1011D0000CED00E00000FA0570B504460D4600264F
:1011E0006248006800F00700A8420ED25F4800681D
:1011F00020F0070028435D4908600846006800F0B9
:101200000700A84201D0012070BD207800F0020044
:10121000022807D15648406820F0F000A168084332
:1012200053494860207800F0010000285DD06068D4
:10123000012806D14E48006800F4003090B9012022
:10124000E2E76068022806D14948006800F00070B3
:1012500040B90120D8E74648006800F0020008B90C
:101260000120D1E74248406820F00300616808434C
:101270003F494860FFF7BCFE06466068012810D170
:1012800008E0FFF7B5FE801B41F28831884201D9A2
:101290000320B9E73648406800F00C000428F0D17C
:1012A00023E06068022810D108E0FFF7A1FE801B50
:1012B00041F28831884201D90320A5E72C484068D3
:1012C00000F00C000828F0D10FE008E0FFF790FED6
:1012D000801B41F28831884201D9032094E72448D9
:1012E000406800F00C000028F0D12048006800F0B1
:1012F0000700A8420ED91D48006820F007002843C7
:101300001A4908600846006800F00700A84201D0AA
:10131000012079E7207800F00400042807D1144860
:10132000406820F4E060E168084311494860207893
:1013300000F00800082808D10D48406820F46050EB
:10134000216940EAC1000A49486000F03DF80849B7
:101350004968C1F30311074A515CC8400649086057
:101360000020FFF76BFE00204EE700000020024047
:10137000001002402C3800080000002001480068DE
:10138000704700000000002000B5FFF7F7FF044998
:101390004968C1F30221034A515CC84000BD000006
:1013A000001002403C38000800B5FFF7E7FF044991
:1013B0004968C1F3C221034A515CC84000BD000026
:1013C000001002403C3800082DE9F04F8BB03CA2E1
:1013D000D2E901311068D268CDE908310A9207904C
:1013E0003BA3D3E90020D3E9021304AC0BC403925E
:1013F0004FF00009CB46CA4600240020029001901D
:1014000000903748D0F8049009F00C0000284FD025
:10141000042802D008284AD102E0324802904AE06B
:1014200007A8C9F38341445C09F48030C0B32C4859
:10143000C06A00F00F0003A911F800B02848C06A84
:1014400000F4803008B32648C06AC0F30310401C83
:1014500001902348C06AC0F30320801C00900198CB
:10146000A0FB0B5006461F490098A1FB002100235A
:10147000A2FB047C01FB04C102FB03112A46334694
:101480003846FEF7F8FE824603E016486043B0FB9C
:10149000FBFA9DF82900A04206D14FEA5A0A03E060
:1014A000FFE7114804FB00FACDF808A003E000BFF5
:1014B0000E48029000BF00BF02980BB0BDE8F08F4D
:1014C000000004050607080900000000000D0000E8
:1014D0000102030405060708090A0B0C0D0E0F1084
:1014E0000010024040787D0100093D0000127A00A2
:1014F000F8B504460025207800F00100002878D0D7
:10150000FD48406800F00C0004280CD0FA48406800
:1015100000F00C00082811D1F748406800F4803032
:10152000B0F5803F0AD1F448006800F4003000288C
:101530005FD0A06800285CD10120F8BD00BFA06882
:10154000B0F5803F06D1EC48006840F48030EA49AD
:10155000086028E0A06858B9E748006820F48030A7
:10156000E54908600846006820F4802008601AE019
:10157000A068B0F5A02F0BD1DF48006840F48020B0
:10158000DD4908600846006840F4803008600AE0E1
:10159000D948006820F48030D749086008460068C0
:1015A00020F48020086000BFA06888B1FFF720FD0C
:1015B000054606E0FFF71CFD401B642801D9032007
:1015C000BBE7CD48006800F400300028F2D010E0FE
:1015D000FFF70EFD054606E0FFF70AFD401B6428F5
:1015E00001D90320A9E7C448006800F400300028AE
:1015F000F2D1207800F00200022857D1BE4840689E
:1016000000F00C0050B1BC48406800F00C00082805
:1016100018D1B948406800F4803098B9B6480068DD
:1016200000F0020020B16069012801D0012084E7A8
:10163000B148006820F0F800A16940EAC100AE4955
:10164000086033E06069E8B10120AC490860FFF749
:10165000CFFC054606E0FFF7CBFC401B022801D972
:1016600003206AE7A448006800F002000028F2D0D6
:10167000A148006820F0F800A16940EAC1009E4935
:10168000086013E000209D490860FFF7B1FC0546A3
:1016900006E0FFF7ADFC401B022801D903204CE710
:1016A0009548006800F002000028F2D1207800F090
:1016B000080008282DD1E069B8B1012090490860E0
:1016C000FFF796FC054606E0FFF792FC401B022858
:1016D00001D9032031E78848406A00F00200002861
:1016E000F2D0012001F020FB13E0002084490860C3
:1016F000FFF77EFC054606E0FFF77AFC401B022858
:1017000001D9032019E77C48406A00F00200002854
:10171000F2D1207800F00400042873D10026764826
:10172000C06900F0805070B900BF7348C06940F0D4
:1017300080507149C8610846C06900F0805000902F
:1017400000BF00BF01266F48006800F48070B0B988
:101750006C48006840F480706A490860FFF748FCF4
:10176000054606E0FFF744FC401B642801D903202E
:10177000E3E66448006800F480700028F2D000BFFF
:101780002069012806D15C48006A40F001005A49EE
:10179000086227E0206958B95748006A20F0010024
:1017A000554908620846006A20F00400086219E002
:1017B000206905280BD15048006A40F004004E49CA
:1017C00008620846006A40F0010008620AE04A48E0
:1017D000006A20F00100484908620846006A20F0CB
:1017E0000400086200BF2069A0B1FFF701FC0546B4
:1017F00009E0FFF7FDFB401B41F28831884202D926
:1018000003209AE622E03C48006A00F0020000282B
:10181000EFD012E0FFF7ECFB054608E0FFF7E8FB2E
:10182000401B41F28831884201D9032085E63248C5
:10183000006A00F002000028F0D1012E05D12E48E8
:10184000C06920F080502C49C86100BFE06AA0B395
:101850002948406800F48030B0F5803F0ED126481A
:10186000406800F00C00082808D12348C06A00F442
:101870008030B0F5803F01D101205EE6E06A0228A9
:1018800050D11D48006800F0805040B11A48C06A2D
:1018900000F0F001606B814201D001204DE6002094
:1018A00016498866FFF7A4FB054607E0FFF7A0FB93
:1018B000401B642802D903203FE64DE00E48006833
:1018C00000F000600028F1D10B48C06A20F0F00061
:1018D000616B08430849C8620846C06A20F470601A
:1018E000216B08430449C862012004498866FFF758
:1018F0007FFB05460FE0000000100240000042425E
:101900008004424200700040FFF772FB401B6428D5
:1019100001D9032011E64648006800F00060002865
:10192000F2D019E04248C06A20F480304049C862D1
:10193000002040498866FFF75BFB054606E0FFF79D
:1019400057FB401B642801D90320F6E5384800689E
:1019500000F000600028F2D1206AE0B3344840680B
:1019600000F00C0008285ED0206A022846D1002032
:1019700030490866FFF73CFB054606E0FFF738FBF9
:10198000401B022801D90320D7E52948006800F050
:1019900000700028F2D1606AB0F5803F0DD1244874
:1019A000C06A616808432249C8620846C06A20F0DC
:1019B0000F00E16808431E49C862D4E909010843E1
:1019C0001B49496821F474110843194948600120F2
:1019D0001849086600E028E0FFF70AFB054606E024
:1019E000FFF706FB401B022801D90320A5E510489C
:1019F000006800F000700028F2D016E000200D49C9
:101A00000866FFF7F5FA054606E0FFF7F1FA401B16
:101A1000022801D9032090E50548006800F0007015
:101A20000028F2D101E0012087E5002085E50000D3
:101A30000010024000004242042808D14FF0E0218B
:101A4000096941F004014FF0E022116107E04FF015
:101A5000E021096921F004014FF0E0221161704793
:101A6000704770B504462546681EB0F1807F01D3EB
:101A700001200FE0681E4FF0E02148610F214FF078
:101A8000FF3000F083FE00204FF0E0218861072046
:101A90000861002070BD10B5FFF7E2FF10BD704770
:101AA000704710B504460CB9012010BD94F83D00F4
:101AB00028B9002084F83C00204600F00DF80220F0
:101AC00084F83D00211D206801F064FA012084F8AB
:101AD0003D000020E9E7000038B504460D492068C4
:101AE000884215D100BF0C48C06940F002000A4985
:101AF000C8610846C06900F00200009000BF00BF46
:101B0000032201211D20FFF714FB1D20FFF704FB1A
:101B100038BD000000040040001002400146086883
:101B2000C06840F001000A68D0600868006840F0B2
:101B300001000A68106000207047704710B5044625
:101B400020680069C0F34000D8B12068C068C0F3C5
:101B50004000B0B16FF002002168086101202077D9
:101B60002068806900F0030018B12046FFF7E5FF08
:101B700005E0204600F0ADF8204600F0ABF800206C
:101B8000207720680069C0F38000D8B12068C06861
:101B9000C0F38000B0B16FF004002168086102203A
:101BA00020772068806900F4407018B12046FFF764
:101BB000C4FF05E0204600F08CF8204600F08AF8CB
:101BC0000020207720680069C0F3C000D8B12068E9
:101BD000C068C0F3C000B0B16FF0080021680861B0
:101BE000042020772068C06900F0030018B1204667
:101BF000FFF7A3FF05E0204600F06BF8204600F059
:101C000069F80020207720680069C0F30010D8B17F
:101C10002068C068C0F30010B0B16FF010002168F8
:101C20000861082020772068C06900F4407018B16E
:101C30002046FFF782FF05E0204600F04AF82046E4
:101C400000F048F8002020772068006900F00100CB
:101C500058B12068C06800F0010030B16FF0010099
:101C600021680861204600F036F820680069C0F35A
:101C7000C01058B12068C068C0F3C01030B16FF018
:101C80008000216808612046FFF709FF206800698D
:101C9000C0F3801058B12068C068C0F3801030B124
:101CA0006FF0400021680861204600F01BF82068B2
:101CB0000069C0F3401058B12068C068C0F34010FC
:101CC00030B16FF02000216808612046FFF7E8FE80
:101CD00010BD7047704710B50446FFF78FF901F04B
:101CE000C3F910BD704770B50446002520684069EF
:101CF000C0F3C01594F8390021280ED16DB12068C9
:101D0000406920F0800021684861206B10B1206B91
:101D1000FEF770FC204601F0B5FA20684069C0F378
:101D2000801594F83A0022280ED16DB120684069E0
:101D300020F0400021684861606B10B1606BFEF7D5
:101D400059FC204601F07EFA002070BD7047014624
:101D50000022002391F8392091F83A3042EA03003A
:101D6000704700002DE9F0470446206805682068A8
:101D7000C668206847694FF00008C14605F00F08A3
:101D8000B8F1000F0AD105F0200038B106F02000AC
:101D900020B1204601F080FABDE8F087B8F1000FCD
:101DA0006DD007F0010018B906F49070002866D0D5
:101DB00005F0010030B106F4807018B1E06B40F01E
:101DC0000100E06305F0040030B107F0010018B134
:101DD000E06B40F00200E06305F0020030B107F074
:101DE000010018B1E06B40F00400E06305F008006A
:101DF00030B107F0010018B1E06B40F00800E0637B
:101E0000E06B68B305F0200028B106F0200010B1A7
:101E1000204601F041FA20684069C0F38019E06B68
:101E200000F0080010B9B9F1000F22D0204601F0EF
:101E300009FA2068406900F04000B0B120684069AC
:101E400020F0400021684861606B50B11748616B19
:101E50004863606BFEF7ECFB10B1606B416B884729
:101E60000CE02046FFF772FF08E02046FFF76EFF08
:101E700004E02046FFF76AFF0020E0638CE705F0EE
:101E8000800030B106F0800018B1204601F03CFB24
:101E900082E705F0400030B106F0400018B120465E
:101EA00001F0E0F978E700BF76E70000493100086B
:101EB00010B504460CB9012010BDA06900B100E0C6
:101EC00000BF94F8390028B9002084F83800204673
:101ED00000F028F8242084F839002068C06820F435
:101EE00000502168C860204601F02AFA2068006985
:101EF00020F49040216808612068406920F02A00A1
:101F0000216848612068C06840F400502168C860BA
:101F10000020E063202084F8390084F83A00002093
:101F2000CAE7000010B586B00446F8492068884228
:101F30007DD100BFF648806940F48040F449886153
:101F40000846806900F48040019000BF00BF00BFD8
:101F50000846806940F0040088610846806900F006
:101F60000400019000BF00BF4815029002200390BA
:101F7000002004900320059002A9E648FEF7A4FE85
:101F80004FF4806002900020039002A9E148FEF720
:101F90009BFE002202212520FFF7CBF82520FFF72A
:101FA000BBF800BFDA48406940F00100D8494861F9
:101FB0000846406900F00100019000BF00BFD6480C
:101FC000D649C1F8A8041021D448C0F8AC140021A7
:101FD000C0F8B0148021C0F8B4140021C0F8B814BF
:101FE000C0F8BC14C0F8C0144FF40051C0F8C414B9
:101FF00000F59560FEF7BCFD00BFC9482063C748E7
:10200000C0F8CC4400BFC4481430C449C1F8EC0443
:102010000021C248C0F8F014C0F8F4148021C0F8C0
:10202000F8140021C0F8FC14C0F8001500E022E00C
:10203000C0F804154FF40051C0F8081500F2EC4048
:10204000FEF796FD00BFB64844306063B348C0F861
:10205000104500BF002202210E20FFF76AF80E2073
:10206000FFF75AF8002202210F20FFF762F80F2035
:10207000FFF752F805E2AB49206888427DD100BFE6
:10208000A348C06940F40030A149C8610846C0694E
:1020900000F40030019000BF00BF00BF0846806917
:1020A00040F0040088610846806900F00400019057
:1020B00000BF00BF04200290022003900020049083
:1020C0000320059002A99348FEF7FEFD0820029028
:1020D0000020039002A98F48FEF7F6FD012202219D
:1020E0002620FFF726F82620FFF716F800BF8848BD
:1020F000406940F00100864948610846406900F0A7
:102100000100019000BF00BF83483C308649C1F800
:10211000A80410218448C0F8AC140021C0F8B01401
:102120008021C0F8B4140021C0F8B814C0F8BC1461
:10213000C0F8C0144FF48051C0F8C41400F5956085
:10214000FEF716FD00BF794820637748C0F8CC44FD
:1021500000BF714828307449C1F8EC04002172486E
:10216000C0F8F014C0F8F4148021C0F8F81400216D
:10217000C0F8FC14C0F8001500E022E0C0F8041517
:102180004FF48051C0F8081500F2EC40FEF7F0FC67
:1021900000BF6648443060636348C0F8104500BF24
:1021A000012202211120FEF7C4FF1120FEF7B4FF27
:1021B000012202211020FEF7BCFF1020FEF7ACFF29
:1021C0005FE15B49206888427ED100BF5048C0690A
:1021D00040F480204E49C8610846C06900F4802060
:1021E000019000BF00BF00BF0846806940F00800B2
:1021F00088610846806900F00800019000BF00BFB8
:1022000008150290022003900020049003200590FE
:1022100002A94848FEF758FD4FF4006002900020E4
:10222000039002A94348FEF74FFD022211462720E2
:10223000FEF77FFF2720FEF76FFF00BF344840699D
:1022400040F00100324948610846406900F0010051
:10225000019000BF00BF304828383749C1F8A804B2
:1022600010213548C0F8AC140021C0F8B01480210A
:10227000C0F8B4140021C0F8B814C0F8BC14C0F8F9
:10228000C014C0F8C41400F59560FEF771FC00BFDF
:102290002A4820632848C0F8CC4400BF1E481438A0
:1022A0002549C1F8EC0400212348C0F8F014C0F817
:1022B000F4148021C0F8F8140021C0F8FC14C0F810
:1022C0000015C0F8041500E03AE04FF48051C0F862
:1022D000081500F2EC40FEF74BFC00BF17484430F5
:1022E00060631548C0F8104500BF022211460C205B
:1022F000FEF71FFF0C20FEF70FFF022211460D20F4
:10230000FEF717FF0D20FEF707FFBAE00038014087
:1023100000100240000801404400024050650020C7
:10232000F869002000440040F05A0020985F002027
:1023300000480040000C014020600020C8640020DC
:10234000514920688842E0D100BF5048C06940F43C
:1023500000204E49C8610846C06900F40020019081
:1023600000BF00BF00BF0846806940F010008861D0
:102370000846806900F01000019000BF00BF0815FA
:10238000029002200390002004900320059002A9EF
:102390003F48FEF799FC4FF4006002900020039044
:1023A00002A93B48FEF790FC032202213420FEF7ED
:1023B000C0FE3420FEF7B0FE00BF3448406940F054
:1023C0000200324948610846406900F0020001906D
:1023D00000BF00BF2F483049C1F8A80410212E4883
:1023E000C0F8AC140021C0F8B0148021C0F8B414B7
:1023F0000021C0F8B814C0F8BC14C0F8C014C0F86C
:10240000C41400F59560FEF7B3FB00BF23482063BA
:102410002148C0F8CC4400BF1E4828381E49C1F8E6
:10242000EC0400211C48C0F8F014C0F8F41480211A
:10243000C0F8F8140021C0F8FC14C0F80015C0F86A
:1024400004154FF48051C0F8081500F2EC40FEF777
:102450008FFB00BF1148443060630F48C0F810453F
:1024600000BF032202213A20FEF763FE3A20FEF766
:1024700053FE032202213C20FEF75BFE3C20FEF7C8
:102480004BFE06B010BD0000004C004000100240A2
:102490000010014058040240806A0020286F00208C
:1024A00077B581B00446154694F83A00202850D1FB
:1024B000029800B115B9012004B070BD00BF94F8B6
:1024C0003800012801D10220F6E7012084F8380005
:1024D00000BF0298A062A5850020E063222084F856
:1024E0003A001D48616B88621C48616BC8621C48D9
:1024F000616B08630020616B486302AE3268236839
:10250000191D2B46606BFEF77DFB00BF002000907D
:1025100020680068009020684068009000BF00BFFD
:1025200000BF002084F8380000BF2068C06840F475
:1025300080702168C8602068406940F0010021680F
:1025400048612068406940F04000216848610020EF
:10255000B2E70220B0E70000AD310008F331000817
:102560005D31000870B5044631492068884213D1B6
:1025700040F22B202F49A1F840000846D0F87852AD
:10258000406CC1F878020846456440F22B22D0F82E
:102590007812FFF785FF49E027492068884213D168
:1025A00040F22B202549A1F840000846D0F8785287
:1025B000406CC1F878020846456440F22B22D0F8FE
:1025C0007812FFF76DFF31E01D492068884213D172
:1025D00040F22B201B49A1F840000846D0F8785261
:1025E000406CC1F878020846456440F22B22D0F8CE
:1025F0007812FFF755FF19E013492068884215D17A
:1026000040F22B201149A1F840000846D0F878523A
:10261000406CC1F87802084645640A4840F22B2213
:10262000D0F878120948FFF73BFF00BF70BD0000EB
:10263000003801405065002000440040F05A00205E
:102640000048004020600020004C0040806A0020CC
:1026500070470000F7B50446154694F83900202865
:102660003DD1019800B10DB90120FEBD00BF94F825
:102670003800012801D10220F7E7012084F8380052
:1026800000BF01982062A584E5840020E06321203A
:1026900084F839001348216B88621348216BC862A3
:1026A0001248216B08630020216B486301AE236848
:1026B0001A1D31682B46206BFEF7A4FA6FF040001C
:1026C0002168086000BF002084F8380000BF20683F
:1026D000406940F08000216848610020C5E7022081
:1026E000C3E7000001320008373200085D310008FE
:1026F0007047704700BFFEE7062001490870704729
:1027000014000020014600207047000000B585B08D
:1027100000BF0F48806940F010000D4988610846ED
:10272000806900F01000009000BF00BF48150190C4
:102730000120029003900320049001A90548FEF7B0
:10274000C3FA012251020348FEF74CFC05B000BD5C
:10275000001002400010014001460548006808B919
:10276000012000E00020024A1060002070470000B5
:10277000A401224200BFFEE7704700000248006843
:10278000C0F30220704700000CED00E010B50028F7
:1027900007DA0A07140E054A00F00F031B1FD45472
:1027A00003E00A07130E024A135410BD18ED00E0AF
:1027B00000E400E0F0B514460025FF2801DC3F29C5
:1027C00000DDF0BD0346C71700EB5777C7F3C7021C
:1027D000C71700EB5777FF10A0EBC707FEB2C6F193
:1027E00007070123BB40DDB24CB10A4B03EB411399
:1027F0009B5C2B43074F07EB4117BB5408E0054B8D
:1028000003EB41139B5CAB43024F07EB4117BB54F7
:1028100000BFD6E7F06F002010B500F0F9F80122F4
:1028200010217A48FEF7DEFB002201217748FEF7EF
:10283000D9FB6420FEF734FA012211467348FEF7F3
:10284000D1FB0021AE2000F027FA0021FD2000F08E
:1028500023FA0121122000F01FFA0021B32000F01A
:102860001BFA0121912000F017FA0021CA2000F084
:1028700013FA01213F2000F00FFA0021A22000F0FE
:102880000BFA0121002000F007FA0021A12000F03E
:1028900003FA0121002000F0FFF90021A02000F040
:1028A000FBF90121142000F0F7F90121112000F0BB
:1028B000F3F90021B52000F0EFF90121002000F02C
:1028C000EBF90021AB2000F0E7F90121084600F008
:1028D000E3F90021B42000F0DFF90121A02000F08D
:1028E000DBF90121F82000F0D7F90021C12000F028
:1028F000D3F90121EF2000F0CFF90021C72000F02B
:10290000CBF90121FF2000F0C7F90021B82000F029
:10291000C3F901210C2000F0BFF90121182000F0BB
:10292000BBF90121242000F0B7F90121302000F08B
:10293000B3F901213C2000F0AFF90121482000F05B
:10294000ABF90121542000F0A7F90121602000F02B
:10295000A3F901216C2000F09FF90121782000F0FB
:102960009BF90121842000F097F90121902000F0CB
:1029700093F901219C2000F08FF90121A82000F09B
:102980008BF90121B42000F087F90021084600F0FE
:1029900083F90021B12000F07FF90121E22000F04D
:1029A0007BF90021D12000F077F90121A22000F06D
:1029B00073F90121202000F06FF90021BB2000F005
:1029C0006BF901211F2000F067F90021B62000F00B
:1029D00063F90121082000F05FF90021BE2000F01A
:1029E0005BF90121072000F057F90021A62000F033
:1029F00053F90021A92000F04FF90020FDF7ADFDAB
:102A00000021AF2000F048F910BD00000010014087
:102A100000B585B000BF1148806940F020000F4923
:102A200088610846806900F02000009000BF00BF68
:102A30004FF4785001900120029000200390032071
:102A4000049001A90648FEF73FF901224FF47C519A
:102A50000348FEF7C7FA05B000BD000000100240B1
:102A60000014014070B55B211C2000F075F904F1E1
:102A70003F00C1B2204600F07FF900F08DF900243C
:102A80000DE0002507E0074901EB4411485DFDF723
:102A9000A1FC681CC5B2202DF5DB601CC4B2402C23
:102AA000EFDB70BDF06F00202DE9FF4F0546884633
:102AB00017469946DDF834A0002002900195009059
:102AC000A7F12000C7B2B9F1100F1AD006DCB9F196
:102AD000080F0AD0B9F10C0F25D10CE0B9F1180F8D
:102AE00015D0B9F1280F1ED117E02F480290082009
:102AF0000090082419E02D4802900C200090082432
:102B000013E02B4802901020009008240DE0294883
:102B1000029030200090102407E02748029078208F
:102B20000090182401E0BDE8FF8F00BF002636E0CA
:102B3000009807FB0061029810F801B00020039094
:102B400027E00BF0800028B1524641462846FFF7A7
:102B500031FE0AE0BAF1000F01D1012000E00020AF
:102B6000024641462846FFF725FE4FEA4B604FEAF2
:102B7000106B681CC5B20198281AA04205D1019DAE
:102B800008F1010000F0FF0806E00398401CC0B205
:102B9000039003980828D4DB00BF701CC6B20098CD
:102BA0008642C5DB00BFBEE77E0000207E0300201A
:102BB000FE070020FE0D0020FE1F00202DE9FF4F24
:102BC00007460E4615461C46DDE90D9AB8460396A3
:102BD0004FF0000B00200290082C02D1052002903B
:102BE00005E0204604EBD071C1F34701029149E0B2
:102BF000BBF1000F2BD12878802802DD4FF0010BAC
:102C00003FE004EBD4714910C1F58071B94203DA99
:102C10003019C6B208F0FF07C4F14000B04200DA34
:102C200033E028780A2805D13019C6B208F0FF072A
:102C30006D1C27E0CDE9009A2A78234631463846B4
:102C4000FFF732FF6D1C02983844C7B219E04FF00D
:102C5000000BC4F58070B84203DA3019C6B208F030
:102C6000FF07C4F14000B04200DA0EE023462A46D6
:102C700031463846CDE9009A00F094F8AD1C381979
:102C8000C7B200BF28780028B2D100BFBDE8FF8FCF
:102C9000014600207047000070B504460E462EB174
:102CA0000122D1021E48FEF79DF905E000224FF4F3
:102CB00000611B48FEF796F900224FF40071184896
:102CC000FEF790F900251DE000224FF480511448D2
:102CD000FEF788F904F0800028B101225103104862
:102CE000FEF780F905E000224FF400510C48FEF792
:102CF00079F9012211030A48FEF774F96006040EFF
:102D0000681CC5B2082DDFDB012251020448FEF722
:102D100069F90122D1020248FEF764F970BD000092
:102D2000001401407047000008B508490968C90847
:102D30004FF47A72B1FBF2F14143009100BF00BF42
:102D400000994A1E00920029F9D108BD0000002018
:102D5000014600207047704770B505460C460021BB
:102D60001520FFF799FF01212846FFF795FF012164
:102D70002046FFF791FF70BD70B505460C46002157
:102D80007520FFF789FF01212846FFF785FF012104
:102D90002046FFF781FF70BD10B500215C20FFF7D2
:102DA0007BFF10BD2DE9FC4F05460E4692461C46A2
:102DB000AB46002001902046E21704EB5272D2107D
:102DC0002146E31704EB5373DB10A4EBC3030BB1F1
:102DD000012300E000231A446243D2B200920C2C7B
:102DE00007D0102C05D0182C03D0202C01D0BDE822
:102DF000FC8F21465046FDF7D1FB0190002738E0BB
:102E0000019800EB800101EBC0001C4901EB400080
:102E1000801C10F807804FF0000924E008F08000C3
:102E200028B1F1B2E8B20B9AFFF7C4FC09E00B9BA2
:102E30000BB9012300E000231A46F1B2E8B2FFF714
:102E4000B9FC4FEA48604FEA1068681C85B2A5EBF0
:102E50000B00A04203D15D46701C86B206E009F16A
:102E6000010000F0FF09B9F1080FD7DB00BF781CA3
:102E7000C7B200988742C3DB00BFB8E74E520020BC
:102E800030B593B00546002401200590000407905A
:102E90000420089080030690022010904FF4C06137
:102EA0001191402112910D90C1030E910F9505A82B
:102EB000FEF71EFB04460CB100BFFEE70F2000909A
:102EC00002200190002002904FF4806003900020C7
:102ED000049002216846FEF77FF904460CB100BF5A
:102EE000FEE713B030BD10B5FEF788F8FEF7D3FD4E
:102EF00010BD00001448006840F00100124908604D
:102F000008464068114908400F4948600846006873
:102F10000F4908400C4908600846006820F48020EA
:102F200008600846406820F4FE00486008460068D3
:102F300020F0A05008604FF47F0088600020C86235
:102F4000C803044908607047001002400000FFF009
:102F5000FFFFF6FE08ED00E010B50248FEF7EEFDBB
:102F600010BD0000B06F002070B505460C46074844
:102F7000074908600846446000218160C56001611E
:102F8000FEF78FFD0248FEF7C9FD70BD000400404A
:102F9000B06F0020002202681B4B98420BD0B0F1AA
:102FA000804F08D0194B984205D0194B984202D057
:102FB000184B984203D122F070024B681A43124B0F
:102FC00098420BD0B0F1804F08D0104B984205D0FA
:102FD0000F4B984202D00F4B984203D122F440721B
:102FE000CB681A4322F080024B691A4302608B6857
:102FF000C3620B688362044B984201D10B6903637F
:103000000123436170470000002C01400004004090
:1030100000080040000C004010B500241AE01048E1
:1030200000EB04100078012812D100200C4901EBBC
:10303000041108700A4800EB0410806840B1084A87
:1030400002EB0412D068064A02EB0412916888472A
:10305000601CC4B2034800788442E0DB10BD00006D
:103060001C0000201400002018490968491C174A58
:103070001160002024E0164901EB00118979012933
:103080001CD1134901EB00114988491C104A02EB7D
:10309000001251800E4901EB001149880C4A02EBE5
:1030A00000129288914209DB0021094A02EB0012CA
:1030B00051800121064A02EB00121170411CC8B276
:1030C000044909788842D6DB7047000018000020C8
:1030D0001C0000201400002038B51948FEF742FEFD
:1030E0001848006800F0100040B300BF00200090B6
:1030F000134800680068009011480068406800901C
:1031000000BF00BF0E48D0F8EC04406840F22B210D
:10311000081A0B49A1F840000846FEF7E4FD0848EC
:10312000D0F87842406C0649C1F8780208464464F9
:1031300040F22B22D0F87812FFF7B2F938BD000028
:10314000806A0020004C004070B505466C6A002083
:10315000E085E0842046FEF7F9FD70BD70B50646B7
:103160000025746A20684069C0F3C01594F83900DE
:10317000212805D125B10020E084204600F082F806
:1031800020684069C0F3801594F83A00222805D1E0
:1031900025B10020E085204600F054F8E06B40F0B7
:1031A0001000E0632046FEF7D1FD70BD70B5054606
:1031B0006C6A2868006800F02000B0B90020E08543
:1031C0002068C06820F480702168C8602068406969
:1031D00020F00100216848612068406920F040002B
:1031E00021684861202084F83A002046FFF7BAF9A8
:1031F00070BD70B50446656A2846FFF729FA70BDB0
:1032000070B505466C6A2868006800F0200070B947
:103210000020E0842068406920F080002168486137
:103220002068C06840F040002168C86002E0204685
:10323000FFF75EFA70BD70B50446656A2846FFF771
:1032400058FA70BD0168C96821F490710268D160B4
:103250000168496921F0010102685161202180F86B
:103260003A10704710B504462068C06820F040004E
:103270002168C860202084F839002046FFF738FA1A
:10328000002010BD0168C96821F0C0010268D1604A
:10329000202180F83910704770B5044694F83A0040
:1032A00022284AD1A068B0F5805F13D1A56A2069B1
:1032B00040B920684068C0F308002880A06A801CDC
:1032C000A06219E020684068C0B22880A06A401C53
:1032D000A06211E0206938B920684068C1B2A26AD2
:1032E000501CA062117007E02068406800F07F0168
:1032F000A26A501CA0621170E08D401E80B2E08571
:10330000C8B92068C06820F020002168C860206823
:10331000C06820F480702168C8602068406920F08F
:10332000010021684861202084F83A002046FFF718
:1033300019F9002070BD0020FCE70220FAE7000028
:103340002DE9F041044600252068006920F4405032
:10335000E1680843216808612169A0680843616940
:10336000084305432068C06841F20C618843284344
:103370002168C8602068406920F44070A169084352
:10338000216848615F49206888425CD1FEF70CF8EB
:1033900000EBC00101EB001061688900B0FBF1F6A1
:1033A000FEF702F800EBC00101EB00106168890034
:1033B000B0FBF1F06421B0FBF1F000EBC00101EBD8
:1033C0000010A6EB8000322101EB00106421B0FB5D
:1033D000F1F000F0F006FDF7E7FF00EBC00101EBB4
:1033E000001061688900B0FBF1F06421B0FBF1F0DE
:1033F00006EB0016FDF7D8FF00EBC00101EB001053
:1034000061688900B0FBF1F7FDF7CEFF00EBC0016A
:1034100001EB001061688900B0FBF1F06421B0FBA2
:10342000F1F000EBC00101EB0010A7EB80003221AE
:1034300001EB00106421B0FBF1F000F00F0030440C
:10344000216888605BE0FDF79FFF00EBC00101EBA6
:10345000001061688900B0FBF1F6FDF795FF00EB05
:10346000C00101EB001061688900B0FBF1F064213C
:10347000B0FBF1F000EBC00101EB0010A6EB800007
:10348000322101EB00106421B0FBF1F000F0F006F6
:10349000FDF77AFF00EBC00101EB001061688900C5
:1034A000B0FBF1F06421B0FBF1F006EB0016FDF784
:1034B0006BFF00EBC00101EB001061688900B0FBFD
:1034C000F1F7FDF761FF00EBC00101EB001061684F
:1034D0008900B0FBF1F06421B0FBF1F000EBC0011A
:1034E00001EB0010A7EB8000322101EB00106421FA
:1034F000B0FBF1F000F00F00304421688860BDE8B7
:10350000F081000000380140014691F8390021287F
:103510002CD18868B0F5805F0FD10A6A1088C0F39B
:1035200008000B685860086918B9086A801C0862AE
:1035300009E0086A401C086205E00B6A581C086232
:1035400018780B685860C88C401E80B2C88458B97F
:103550000868C06820F080000B68D8600868C06800
:1035600040F040000B68D860002070470220FCE764
:1035700038B51948FEF7F6FB1848006800F010004F
:1035800040B300BF0020009013480068006800901E
:10359000114800684068009000BF00BF0E48D0F896
:1035A000EC04406840F22B21081A0B49A1F84000B6
:1035B0000846FEF798FB0848D0F87842406C064968
:1035C000C1F878020846446440F22B22D0F8781201
:1035D000FEF766FF38BD000050650020003801404E
:1035E00038B51948FEF7BEFB1848006800F0100017
:1035F00040B300BF002000901348006800680090AE
:10360000114800684068009000BF00BF0E48D0F825
:10361000EC04406840F22B21081A0B49A1F8400045
:103620000846FEF760FB0848D0F87842406C06492F
:10363000C1F878020846446440F22B22D0F8781290
:10364000FEF72EFF38BD0000F05A00200044004075
:1036500038B51948FEF786FB1848006800F01000DE
:1036600040B300BF0020009013480068006800903D
:10367000114800684068009000BF00BF0E48D0F8B5
:10368000EC04406840F22B21081A0B49A1F84000D5
:103690000846FEF728FB0848D0F87842406C0649F7
:1036A000C1F878020846446440F22B22D0F8781220
:1036B000FEF7F6FE38BD0000206000200048004004
:1036C00010B5044600221146024800F06DF80020B3
:1036D00010BD0000F05A002000BFFEE700BF704799
:1036E00010B504460021A161E161E160A1600C21F7
:1036F00061612046FEF7DCFB04F14C00606404F5D8
:103700001F70C4F878022068C06840F0100021687B
:10371000C86040F22B222046D4F87812FEF7C0FE93
:1037200010BD2DE9F04104460D4616460A27FDF767
:103730005FFC804608E0FDF75BFCA0EB0800B842A8
:1037400002D90320BDE8F0812046FEF700FB2128C6
:10375000F1D0324629462046FEF77CFFF2E7000012
:1037600010B504460420FEF767F90148046010BD57
:1037700010000020FDF74EFC4FF4E010FFF780FB37
:103780004820FFF7EDFFFEF7C1FF48214FF47A70A4
:10379000FFF7EAFB00F032F8FEF7AEFFFFF73CF868
:1037A00001E0FFF739FCFCE72DE9F04104460D4646
:1037B00016460027B4F8400050B1B4F84010334624
:1037C0002A46D4E9110CE047C7B20020A4F8400013
:1037D0003846BDE8F08100002DE9F04104460D4671
:1037E0001746984600262A4621460348FFF799FFC8
:1037F0003046BDE8F0810000F05A002010B50848BE
:10380000084908604FF4E130486000210548016133
:103810000548044988640846FFF762FF10BD0000B0
:1038200000440040F05A0020D93700080000000092
:103830000000000001020304060708090000000060
:10384000010203046438000800000020F05A000060
:103850008C010008985E0008F05A002060230000E8
:10386000F0010008100600A24A040001121004032F
:1038700010010001A009F4010100C1360008108305
:1038800059271012DC3683912C1012141092052047
:10389000800788130100512D101264308385043095
:1038A00041162220013007002000505050261004FD
:1038B0005050F802301E50002078C07028F02000D0
:1038C000C0C810204098180040A0A040A8906800F0
:1038D0003020406E111610064040201000041210D7
:1038E0000C10080020A8702070A84A20042020F89E
:1038F0005221722004604080C972F8D310066060C3
:10390000000008501117200B708898A8C888700014
:10391000206082127010100C08304080F800F80807
:1039200010300818200D10305090F8101000F8805A
:10393000F008101006384080F088081120217A1114
:103940004022880321083005780810E05C215F419F
:10395000082280A02280A0217F218111A8213A1174
:10396000383210F010117088B8A8B8807800205054
:103970008888F88888005D210311581004808080B1
:1039800068110D110112F080200480F08098310838
:103990003280203006B88878008837340488007078
:1039A0004111A01507300E109060008890A0C0A0B3
:1039B00090880080012007F80088D8A8A828200651
:1039C0008888C8A898303158316051502788885865
:1039D0002180213811802270F02545259A528830A7
:1039E00031073250102004A8A8D8502250BB31080B
:1039F00021283518154023F0C0012004F00000FEF6
:103A0000193C2378180111E8159D359820052040B0
:103A1000F840076A10591004E01070801808808080
:103A2000B0C888C8B0382502300A70000808689805
:103A30008898681012F0102405304840F07846004D
:103A40007232F03015004A204329C6163002240491
:103A500060808001540498006018195212A801195E
:103A6000B013B04801414015E056000211A225C232
:103A700011AA43B048601678011004F00040A71066
:103A80000440483038129001218845002300004F3F
:103A900029AC35013118139868311B00F8A912F8C8
:103AA000DF15F83A408841041610F82210382B40F0
:103AB000A80E33A85002CD050325BC4E108A03334F
:103AC000006CA55D5303100414287C023D1B0320E9
:103AD00008103840403848702819355406200C70BA
:103AE00008144260071820205448344861543308B1
:103AF00008562210DB4320200C25809006107C10F5
:103B000028287992FC34114C4F10303C03BF007CC4
:103B10000D0426300A2004000404563E208303339B
:103B200038440132381E415F313318043844040BE5
:103B300062440C4004180404242C090C141424447A
:103B40007C040CE50360053C2020381860051C202F
:103B5000407848127C3C21B8413C63443818216CC1
:103B600080053C0408708C419011FC16180041B38C
:103B7000160CFD5C0460100C7E04727CC14408C00D
:103B80002018041820C02B12249D430030BF30069B
:103B90004C54544C40791630133C05287C44EC2E90
:103BA00004234444903D35041F3C446504412320D4
:103BB0000400F048F11A48DA300B0000FC44507061
:103BC000504044FCB44805202838286A3130524C13
:103BD000CC1005EC44447C483154967C20123CE2E5
:103BE000198A35502409EC444850704844E4703D2B
:103BF000C903332424245006EC6C6C54543C100547
:103C0000EC646454A9D7EC0074500678242424385A
:103C1000786118421CC01C0544784844920414067C
:103C20000000344C4068336458B43690A4619C71F1
:103C300048110C11FD457411B4116C3A541F13C492
:103C4000441540042844C4242122413C2B7C4403D5
:103C500055E04D250415CE2DE104296615BF211828
:103C6000520801111821450D105D06BC04FC00101E
:103C70000906140438443CE335AF640440586480BA
:103C8000455259401704345B412425BF30047C4021
:103C900040302C041C207CC20555EE4124730438AE
:103CA0004835387804100070A040041000789C1D3E
:103CB0000404E809C0405C48705048DCC424040097
:103CC00000E80835E070040000D84859F69238182A
:103CD00090047840E07839DE836C30904C073C44A7
:103CE00038044478EA0631A8421C3C12CC3B3E4CD6
:103CF000B40355825DB80367EC4480112460064824
:103D0000303048CC24300624281810104A677C48EC
:103D1000803DE3032DDC035E0844045D01043DEFB8
:103D200003211D5DCC038F2458CA03A10CBD8A0753
:103D30001C05183C3C3CAD053D530311C6CC056643
:103D4000666624110830056C6CFE6C044D790350D6
:103D50000A7CC6C2C07C0686C67C31540B0000C2F9
:103D6000C60C183060C686A35C0A6C6C3876DCCC56
:103D7000CCCC76B603BF3060F504112C31015E184F
:103D8000B3031109310173183072A006663CFF3C81
:103D900066A373187E6D81149131031100FED871F2
:103DA00032230206A05FC08022045809C6C6CED6C0
:103DB000D6E6C6C63B4F1838AC0663187E20412FA6
:103DC00073C6FE106006063C0606063010070C1C83
:103DD0003C6CCCFEB1521E7B1DF80683FC0E2013FA
:103DE00038601073C6C66012FE4041F4718093C6FD
:103DF0007C20210C127E60B30C78BA91F1511065D1
:103E00002031CE1536B206FF8502311C2124717097
:103E1000960CE035015406DEDEDEDCC00020071023
:103E2000386CC6C6FE915DA3031902127C045E665F
:103E300007032C043C66C2DB075FC266830323F8DA
:103E40006C1D5C0466666CAB03B00BFE6662687842
:103E500068606266FE1090046060F0404C06DEC64A
:103E6000C6663A0303251B316F5170463C7E5F18CE
:103E700018E3033A1E0E194055101007E6666C6CE5
:103E80007878754EE6900A33F0600171709006C63E
:103E9000EEFEFED6508007C6E6F6FEDECE6021DFDF
:103EA000256F936C38E08260A0358C7408C6C6D646
:103EB000DE7C0C0E0021E476E6B0740560380C065A
:103EC000D0B0047E7E5AB062C601B27C1090046C01
:103ED0003810205FD6D6400321201D21031D250365
:103EE00061B0254E923C502C04FEC6864F036AC238
:103EF000804E3C2F0357303020540B0080C0E070C0
:103F0000381C0E0602404D3F0364040C0C3CCE0DE1
:103F100015E9032C040000FF8F030E1018F30B7C2F
:103F200004780C7CB003240500E060606E7C0466BD
:103F300066DC130C1F7CC6DC0969E0121C6A836C0A
:103F4000CC30395282FE209406386C6460F06011E7
:103F50006022762F3404CC7C0CD3116084046C7600
:103F600066601D7B04AA38001C040606004E03216F
:103F7000013A667311303A66015590DA38302D38BF
:103F80000723FED60171104ADCA291A09D70037137
:103F9000207A7C0361A06DD303B004DC7662C02A72
:103FA0007C026D30042405103030FC8F73361C7099
:103FB00031DF9510317F8E3CC10359018110190109
:103FC000A5A849336C047E060C53032ECC5005592A
:103FD000001E0E480B2270F47E0EF9042DAD056E06
:103FE000187F05211C21245E182709EF76DC0A05BD
:103FF0003DE203000434C6FE0001D00402000702C3
:10400000B202028124599120040039C00223108099
:10401000020126662004018031024005E03F80F164
:104020000AC10C9E80EC051300060210073FC06613
:1040300060C63002200F00C60066003E000F8007F9
:10404000C0066006121116200566603FC0265D623C
:10405000061011004820CC60CC40CCC0CC80CD8074
:104060004B0032425C1604000C0009801A40366096
:10407000266066604660C660824001220630061CEB
:10408000002200420210046400283E1C1038004840
:10409000004C00C400C670C320C320C10D057C06BF
:1040A000C1C067603CB006C518051D4F100B20004D
:1040B000400080018001000302021106022118164F
:1040C00001101300802A2DE20E1DC7081E188F0F45
:1040D000120CB2011230211812082232105B652432
:1040E000100404000E023C08C460E4E064C011A89F
:1040F0000F2009110064C0E4E0C460180E15040C20
:1041000008615460057FE07FE090092E3010040CB8
:10411000001E02320E9A0E15188904216002370023
:10412000014162860C5216605466C0565602DE4546
:104130001482301F7D770D28050E001B006E1F6056
:10414000C0AB07C260022105297098041B000E70E5
:104150000404131E007E7CA588673FC0E3121F5E27
:104160001C0560C0E060BA041D1D10119A5405C002
:10417000018003101C04300070A40E7406E020FFC0
:10418000E0FF021E0F3203300670E07060302E2117
:104190002C10050E000380B3213E1D4905114A9CD9
:1041A00005E071C03F2C031203021C0C0780058040
:1041B0000D8009801980112003180B218061804136
:1041C00080C180FFF05C310272076030057FC07FE4
:1041D000C04B315150086700698070C0405E31604B
:1041E0008006C0E0C0718060100B1F00338061C08A
:1041F00061C0C180BB2C0700CF00D180E0DE0FD5AD
:1042000024961FCEE809FFE0C060804080C0DAB28B
:104210000C02C520414D456A4532A162A160613062
:1042200091201515340431601E209008306070C054
:1042300070C0393085B8120F020217061001243001
:104240003207CECE0C140BC660D425E51A606C3E46
:1042500018A4031DC00345BE091DFA0D180603016D
:10426000134EF172794014048018C00611025A20CE
:104270006E4D08030D16A0051C041F0020AC10B0E5
:104280000880208F2099A0B1023C05BFA09CC07976
:10429000041DEC0FAF1F807005120B021209021AE9
:1042A00019702DDA05100630C030C03F044F204091
:1042B0008F091D4F097D30077406FE00630061E21F
:1042C0001C046180633E03676380B93E60640388B9
:1042D000046180FF703F20312D031EC0AE0F01111D
:1042E000023132A970916001120151748D110B4E8F
:1042F000FF8B031DF31310046000610220046300B0
:104300007F421102394121181D05038D9003011DC3
:10431000305D48038DDF0820041E40338C2E40554D
:104320000341B43EC1310361017C0861C063C03602
:10433000C01C2004DFF1E075042DA003F1027EF122
:10434000C0032F1FE02C06011E027E1F50046F07C2
:10435000E004040110021E6160071EE128041E67CC
:1043600034076DE2151004F3E061181263E8126679
:1043700002126C022D46111276022114211C31907A
:1043800075E0B6F008F102F5501DDB0435991DE427
:104390000431021C0879E0696069606F78072102C6
:1043A00009104036E1202DD603140E70C078C06885
:1043B000C06CC064C066C062462D96044E610304A2
:1043C0001D1714CD70050511430D155004FAFE8E0E
:1043D000F00463807EC80324F000601ECC3C08809B
:1043E00009636031C01EC0007060BD0003115E250E
:1043F00056255E855285E01C041E407352081D62DE
:10440000051D54101DD2151D80082E0E760424069D
:104410008001C000E07B8808E060F0C0D9808FD0C8
:104420000C0A1AF0E670C6308610861090068DC011
:1044300003091070051023AD6003A1306D80094D94
:10444000140741022D5A08AD4408CFF0F0880363E9
:104450002640021A36F82F36C034042D3804C130F5
:104460002D42042D4E044D74054D6C05212A2D5A04
:1044700004CD50048130413281340114F01EFFD04C
:10448000065C06C1C081808388062D86063E1836EC
:10449000052D38051F602068041D9F074DF003009F
:1044A000052807E00400022D54072DDB051E40EE11
:1044B000051E20F0056D9A091E04F6058E02B80946
:1044C00061212D2E0EDD2E0B011C025E7E7606254F
:1044D0000600064D6060402000011C06FFF0180039
:1044E0003C0407033801C0441A3FC01EF0BA072C31
:1044F0000600C00FC03842093DFA177C04E3C03EF5
:10450000E711BEE028051C046F00797008BDAC05FA
:104510001DD8030C04157980CF210B1D3E0919F31A
:104520002E6173085D0E062D05098F30C09006C1FF
:10453000615F1F603E06CD1E08000417E01F20606B
:104540007DFA091DB808011160280907C00CE018A0
:10455000E01840341E18350F0213180206157E208D
:104560001C063E6063E0C18A091EC152051E3EA8BA
:10457000073C067800CF80C1BC0804051060C03F2E
:1045800080201C0567006D80F51A0D190006CD9876
:10459000080E1F1EF0031C040300071E0A6203CE50
:1045A0000D1706065E630406C1901E630E062D0AF3
:1045B000061E6CB6070E1476B0040D1F0C0BC190CE
:1045C000CD601C4C05EDC07FE0FA05C1020314F775
:1045D0007030061FE7200518E00D14B00ACDF01C5E
:1045E000CAEFA0399CFE6FE407BE00EE077A61F8BF
:1045F0001DCA082FC033FC053DAB080E1101D009C0
:104600000C0918E7806CC078E070C06006FD60039C
:104610005D0C061E78AA096E030406593C7DE71955
:104620007988FBFFC09C0407156018600CC00780E8
:10463000F6E14A5DA0080D158C0A4D0E06AD020686
:10464000ED0006C1304D0E062DDA074DFE05FE3F8A
:1046500000060114606D58065E1BA0030219F1905C
:104660001230306D3C065E07B40E12CC020E137889
:104670006C0E1E409B09BDAE0B3D02064D00060FA1
:104680001001E0860F4D2E060D106E0F1D8A0B0ACD
:1046900022E0FAAD160E021478484E80CC0BE17879
:1046A0000112C01D57191D5B180F1CC360B4052DE6
:1046B0009E0614040E000AA01E11DC0E1E201E0B06
:1046C000634040E40195010215E003021B4003DD55
:1046D000BB141DDA1F32F0030E1E60FC0612E3034A
:1046E000140F8001E78001C700038E00071C00063D
:1046F000E41C043000086011026240EFE302010391
:1047000040047FFFC0030004130402000371211E54
:10471000084021F103051D5F6547100E01F80007F1
:104720004C000E46000C47001C031C054F001C4E9D
:10473000B30C1C07000E40000F40EC062D63042E46
:1047400001C81E3DFC1D300A5C00005E00004F00E9
:10475000002D323C03123803040B1B4600184E0098
:104760000C580003F08F9D0807100B3C02006606F2
:1047700000420400C303300B0C00C30800C3180040
:10478000C310032220031C084260006640003C085E
:1047900008100999800098800130C003300503306B
:1047A000C002033204031208031C04108018740EA4
:1047B0000E260F1E121D32051C050C6000083F0F4F
:1047C000A1031E2016051C07001C40000D80FF08D9
:1047D0001C1F000E1F801E060037060067060063C0
:1047E0008600E38400E1C400E1CC00E0E800E0786A
:1047F000B00C0C0D1D00703820703C20384E400F5E
:1048000087C3141D3418321F0311573203031D13BD
:10481000151D61231DA11E0E5C3040033620E12EC4
:10482000802B14117932068B1D891C321C7C323886
:10483000031D321F02157003623024321833320C0C
:104840003F4206C431542D6110021320761DB3205F
:10485000320832A12F2D9F046EC0C6030218607863
:104860006E60EA03197632C0BCC1BF021318760D20
:10487000134614C1631C0E3861E03E23E01F27C0BD
:1048800007AF0001A31F222006110C11121118E41A
:10489000043C30E00205407F0115031E3F5B0C0124
:1048A000181E0D736C05095BA61DC2040D8B5906FD
:1048B00071ED9F1F00C6150D1A29055EC0480366DD
:1048C000011B3E06C4033A0CE93A18F26610E04DAB
:1048D0005805328032021A00323E30A3030E1D60AA
:1048E00027052D4F111C05038C0007F61A20090718
:1048F000000C03001C03800300061C01803801C06B
:10490000031124412D1136113C1D381B11480D1780
:10491000570A0D10211F41A30C0518700007F0AEB7
:10492000030125031D63060E26FFEB191D900610DB
:104930000D061E00180700100700300380036238C0
:10494000032DC8046E07CB046A1C9E3E602C046DC8
:10495000260410090600800C00801801391D690327
:1049600021030D2618061FF000231D1D461B1230C3
:1049700003300407003803118721724D3A053E3891
:1049800008073E1C8A046E07DB048004038018A21B
:10499000213911423F0C1C08070D25AF186E0497F2
:1049A0000511031DD11C1F2C004D1A1DAC0A1C0B38
:1049B000008C00010C00030C0002401031031E08A3
:1049C00021181F0C00CB241F200CFB072EE09405A0
:1049D000D10319DA0D276C0310040FFF80033E0882
:1049E000AC0571036A10CC240911F80013FC001601
:1049F0000E89250531EAD1F03630A4022E10F01CC4
:104A0000047E00017A1128040380069A7E809206B3
:104A10005D9506E80EFC0039FF003B0F003E038069
:104A20003C03E52A18D629D9220E3FAC04000386A0
:104A3000C629011FF012C0031B0C011C7C060010CC
:104A4000030010C603A1FA7D940339557103F201E6
:104A5000030E270022112D6606130700B111035221
:104A60001CC02103200C1E01C00F03800F83000710
:104A7000E624180C037C00063F000C0F001C07F115
:104A8000FDCC033DC6031D0504022701F02DD80906
:104A90001E0C2B1F1D32042D3504433801039D3598
:104AA000047C1103C03C03C01C07C01F0DC00FF9DC
:104AB000C003E16F075D75071C061C07001C0ED0C4
:104AC0001F0C0643000C3800072A0C3D0B04510351
:104AD000023F70270D314B0C0D2B780CCA600A0D6C
:104AE0001921067D63090E140C95044DB8087D123A
:104AF000095D3E093E600406E1190D416D0C0D167D
:104B000071070D438907022610C90622C0170B2919
:104B10001000D01E065B051F030080043005100145
:104B2000C03003323C031E1CD40B3E07B90B3A1CA9
:104B30003D5EE0B20781039D3A1B1D84110F2901E0
:104B4000E0C0032DB0041EC340191C0580060040C0
:104B50007B051007080FA018319003100510611095
:104B6000300322C303633183031006821031862091
:104B7000031C09118A60188BC0187361052DB105DB
:104B80001C0504006002FF110F17830017140D109D
:104B9000B80E3D000F21AE527003120203523803CB
:104BA0001DCB2853041C031D7F052006080E000F93
:104BB000FE0611091D91054E109A051D41073C0482
:104BC00007002044070F26F80F511F3F7FF8F60318
:104BD0006E076A08A1031D11041D5004A0041C00E7
:104BE0001F24BE01D7045DE00441300C05270E00F0
:104BF0007FFC7D161C09F880038780060180A305D1
:104C00001F1C00B512234038030D1AA40C4D320CA2
:104C100052382A10048018008D1D6A050C042900E2
:104C2000070428051D701D731C18CF8D6009011124
:104C3000D5B103F5170C06280C001C3800B8206706
:104C40007FFF3E11B74C0600C01C00400308631CE8
:104C5000040330050C001FFC577112A20003324000
:104C60000335800C042703807FE808137FFF306240
:104C7000C0725005601C0020786202031D2C19329E
:104C8000FED27112021700030E287FC0031C04F12C
:104C90000003CA19100603000C0100F615AD15B388
:104CA0000517E09C071FF07003C070FF095E18CB6A
:104CB0000A2D47070D2B08070804117F0FE0CAC90A
:104CC000D900041F1FFF8024412A0E277F48031D9F
:104CD0005D090D3E370B9DBE0E0E270F400B1E03C8
:104CE0005E0E0519B10130031270031C0438007008
:104CF0001E1B0E1760B51735681DA608394039BB55
:104D00001C091C08001C10001C30C92F2D58111D37
:104D1000DE1E1D4116100B1DE0001FF0001E70006E
:104D20001C03323803321C033E1E6A082DFD082D79
:104D300000091D03090528681D3419033A0E0003F4
:104D40003220030C0927400E00C00E01C03F400B6B
:104D50007007FC07E03C07800390053E0B802E03A4
:104D600070052F138027039005238023A30370046D
:104D7000C38021032283030C0626208380F88FA0A2
:104D8000051C047C03E0F603321E033217032313D1
:104D900080032311C0033310E00332700332380361
:104DA000321C03320E033207033203032201030FC6
:104DB000297C00980D1D8D0C4D850E6E184D0A2313
:104DC0003000032E701313011403111E5F3800BB53
:104DD0000B1D950D1DC50A1E06BB1E0E2A0CA00537
:104DE0004D6C064D9A050D146906293D2D2B0509BC
:104DF00021CF0D29B0041D18151D24271DB0041D39
:104E00007D046D6F0F011CED1103201571E0C03B97
:104E1000F1C03E39C03C39801C1B801C1F000E1E97
:104E2000481C0501FE200083072D4F150D1D311470
:104E30004C063FFC000E0F300C2991B1033D450C90
:104E4000111E120F24300538000E1C031595320E6A
:104E5000033D231011B151271D260D19D00E2681B7
:104E6000990D2C0601F880060F61053D5C104D9DE3
:104E7000052DA0051D930E4E1E1B123EC0DE151DF6
:104E80003B131D0B262F0F8072092D1B1633C020DC
:104E9000031D90091D96093DA6050C0627001E0E50
:104EA0000011F8071D0E131E38DC261DE8320C0910
:104EB0003A70206070104070102805022701783E7B
:104EC0007F4803013D034E0C70080D2B90061C0615
:104ED00003F01E00C0BD03620E0340050F01000772
:104EE000031DD30E6282036005860001C4031EE821
:104EF0007A323103CEF8A5150D2A3114800AFDFB54
:104F0000E078F0C03870800343710003200C1C79F6
:104F1000001CF9001CBB001CBA03321D03330F1E1A
:104F200003221C03596A1D14191D642A3004080049
:104F300004030D2780075D180629A01D23211D26C7
:104F4000211004080003032C05980003905A187ED2
:104F500001E9194DAA191C04B800016A111C073C8B
:104F600000021C0002CD1E1D4A221D52112C0407F6
:104F700000088E110F28807EC80A968368655F46F8
:104F8000075CC684590D21E1120F2903FE68103E0B
:104F90001EAF085D7F0B6E0EAE126E1C76174D14A1
:104FA000134DDC0B3D5F193E034D033E077E151D7F
:104FB0008A06191F1DE2051E3CAE0F0D22D8091DE1
:104FC0006708035CC000030D187C086E18EB174DD2
:104FD000EE173E06DE186E03030E4E01830D6EC003
:104FE000250E3E6021156E302E0E01263DCDFF218F
:104FF00062F0420157030E131F7B1F1C07F80001CC
:10500000DC00031A2E03D3010001BFFFFFCE201DD9
:105010001C170E1707E5190D7DC1172F03F8F306AE
:105020003D2C0A2DB60D2D3A0360073F0003C70043
:105030000F128238030C0B25201C0F201C37200771
:10504000C3C08C150E197C0C0B1C097C001C87003E
:105050001D0380E1030E1A1E220E2D540C1C051E8A
:1050600003001B8D0F0E41F81B1E2D7B093DE00731
:10507000720CE1021000033D490E1D000F0E2A02C2
:1050800090064601EA0114032C0603E70007178E79
:1050900008F556B1031D23161DBB0B1DBB140C06D2
:1050A000420617C003E6882611F02E86AF053E069D
:1050B000C7086E0C3315AC041FFFC0DA0C3DB50BEE
:1050C0003C0780070080038397080D25991B1D0965
:1050D000281E7036232006E000C0E001038DDE1597
:1050E0000C05123FFF8001ED1501190307431FFE58
:1050F000E07408E0071FE00E0E60E049DC1DC337D6
:105100001DD8091D8B205F0DF841061DC52B1C06FF
:105110000FFF000C7F7518BD1D161DE0190B320323
:10512000FCD020061D8E001E070302241C030F273F
:105130007F1FF9161D3D1A327803DD421C0C0559FC
:1051400030000FF0000F2DAA19321E03DD942F1D21
:1051500015030E38FE260E2DDF111D27120E1430FA
:105160000A171DE11B0E193E640E4F1FC0FD084CAF
:10517000170E08000E10000E30000E60000E7000BA
:105180000EF0000FF8000FCA0B3E1EC70B4E0FC4E7
:105190000B0F25803F100E05334D05446805157F24
:1051A0001D3341000929F9CF003EF38038E3030E97
:1051B0003FFF8B2429EB1DA0050805548E001D061A
:1051C000D00D1A0C102DB0043DDB122D15062E1833
:1051D000F40ED2E0031115111B1D7F1A2DB81A0D04
:1051E0002AC819011CF01C051D86001F710D0D1C1D
:1051F000B2143DE4121DE7031E1D6411FEF8120FE8
:105200000530F10C062403E100071318064E0718B9
:10521000062D4B06ED60060E2C3F652C1DF2366CFC
:105220000E7F83C0038CE00390E003A0E0033A0B01
:10523000011C030D298016051CE01C0483C0068D8B
:105240000F1D24122D75062DA90B1DEC2D2D4722A7
:105250003E7F0C0F2E03FD0E5E10A11C256B0E3140
:10526000194F397DD9265EC0180C1DC01E0D24872C
:10527000061240031E009A339FE100B731093658E9
:105280000C052601007C1F3F032DF8071D22080C8A
:10529000054117C007E4A71B1F7F873B0D3DC210C8
:1052A0003E02C7084D2E0E1D051F3288033005D85B
:1052B0000001D003CEF00E280D40FB0A1008F9F0D3
:1052C00038F04038700313801C032F78800F0F10C4
:1052D00004B9000E032C05BB000E9E090F12070334
:1052E000321C031D921F2208030D400F1D60063F54
:1052F0009F800F06E4DD0F0F3D0C0F1D090F1E03ED
:10530000F2191DE6191DD0383D21150F417E3FC30E
:105310001B1C053F87E00F01384D74105E026E10B4
:105320005D150F6C05CC0001C86B109EF095257DB6
:10533000AB223C0740001880001C27270D2E3B1C89
:105340001D73201D65193F180FA31A3E1EEE203E47
:10535000382508AEF00F0F1C0640078040073E308E
:105360001DE5142E019A170D1E58185EC014220256
:10537000210C033E18850E0224182D4DD40EBF07B4
:10538000000F31027240039D5F2ECE1C600F011C86
:10539000032D661E8E304B27011F034D60238DB9F0
:1053A0003E3D040E4C0518C0001037491D092B3E28
:1053B0001CA8100D6091260176781D9049100F44AD
:1053C00027E424548554655425540D5415061C0CAB
:1053D000E554210422842444285420CE1D1E1FFF9E
:1053E0004B1C061FF01014FF554340051FF0111011
:1053F0000412010C1DB22B1C14FC00087FFC0100E0
:1054000011101110092009200104FFFEAC3D91028A
:105410003DF63E1C188410FE1104FD041284104455
:105420001014102410441D84F08440044D3E501587
:1054300010084008480FFC1040104833FC520893F5
:10544000F8120813040C061512081FFE10903A817A
:105450000A1D5E3B1DEA3E1C150FE01FF03FF87F62
:10546000FCFFFE7FFC3FF81FF00FE007C030362D39
:10547000861B13F0219C1C0E11100110020EF4006B
:1054800013F8110811204C1C0B10A0144018B01375
:105490000E0C04C4342010F0082014402380028035
:1054A0000C60301EDFF4CC21E421061E1036231DD3
:1054B0005F0E1C07F004100C2012103F6C07060052
:1054C0001808EFFCD6471C250FF8080804400E40CA
:1054D0007880088009FEFE0408281C201AA828A449
:1054E000292649228A20082008A00840F43F1C1CD5
:1054F0004823FC22084A08FBF81200220443FEF667
:10550000944A9403FC1A94E2944294EB2435602D5F
:10551000C0461D291A153E1DD92C11121D493521D1
:10552000022404A00040444321080260093FF821FE
:10553000080100410402177FFC441DCA4D431FFCB3
:105540002F81024E20573F3D214E61604164C10CC6
:10555000120092100B227E22447F4422443E7C049F
:1055600011082C10227CFFC40044244422844114DE
:105570008208027C3F35E435D07404103FF8DC1516
:10558000EC1D0B4B1004400444B648084000383F63
:10559000C01210021C0A038005400930110E615B25
:1055A000071DF74B60062004483FFCC031C68A0047
:1055B000281C0500387FC0AC2F11261F3FC0052EC8
:1055C000232004621A084C1005101108257E15408E
:1055D0002C1C40204827FC4880F910120827FC4169
:1055E00024F920412001201A22E222441ECB2471FA
:1055F0009C29867004F811000231A03D48363558C8
:105600001B04406C180A5013F83040504090407210
:105610001B4417602D4E401010100405FEFC44087A
:1056200044104434445844940819B21008841104B6
:105630001228141028212C141B80FC88250427FE16
:105640002402240449FE290411042904450485FC8C
:10565000010408FC1C0C08801088109830A050C071
:10566000907C3E2804128014F41282021E7E8E4D1D
:10567000280E4847FC204023F80040EFFE20080A8F
:105680002323F80408091E2A08320822280210A041
:1056900024053FF82448742D660325BE91043D92ED
:1056A00003A9400110082DF3492C06101013F8101F
:1056B000694A18130437FE3840544051509148123B
:1056C0004C14441040119E1DDB3C23402202100864
:1056D00048227CFBC82648081C0B48226822503A06
:1056E00042E20241F2031D5749110260091520FFF1
:1056F00024113E1120021C0813201D20F124475FB5
:105700000E1C0608080BFC0AAC03140B120833F835
:10571000324050449FFE2E1009E011501248144EA2
:105720001864657E200408000BA834062030445F0E
:10573000FE7E4240801E01D0151C06220023FC3E46
:105740007204100522883E887E1C0B5022203E5099
:10575000E248428E0308301C10004042483150108D
:105760004883FC620822080B200414042208E34248
:1057700031024F28222F4A1DBA2F1C05F00FFC7052
:10578000CB2830150C03300C23B00C2330056B30C4
:105790000CEE300CC6300CE7035C16ADB00DB9B0A2
:1057A0000D18B00E10300C00301C00B00C00F008CA
:1057B000F82D0D10703E1D5C23300BE00FFFF0073D
:1057C00080F00600E0034004C00301031E80CA27E6
:1057D0001C0403FFC093130E1203AA3E6FA1A38EF5
:1057E0000461024D8E04100A0000CDA80FE0428033
:1057F000215A10080920EFE029202F0410102960F9
:1058000050008FF0B5C004404FF02100270830064B
:10581000E7C024402704211A1FD6F77D184F407F88
:1058200094395C04803FC07839100720FFF0B2CB78
:1058300009061E09823310067E40248012121C0EB7
:105840000B00128062708220B5A5108009104453AD
:1058500024400431302D10331008CFD400403FE0F5
:1058600020142104134900802004402980483C056D
:10587000CABE0040883F112A120248180D12402269
:105880002042108A100400D3EB421A204C1D56040B
:105890001C041FE0107A031C04FFA0008003100604
:1058A00000C0C9E847AC200724400440E830B22CCF
:1058B0001122802A80310026C01830D6C37FC0490B
:1058C00040D8032178100B3F80248022803F802025
:1058D000A0681EB10A3A1D525010088FF08840FA95
:1058E0004089021C06F840884001CC0B300CBCE417
:1058F000202017F040204F20490421061C12482088
:1059000040A04060B1B808800FC01880250046084C
:105910003A30082070DFC012401F041C08D0C512A6
:105920000011202F1E53100867E0A00027E020047C
:105930002324200413CFA27862C0EA210414111496
:1059400000522050508FC0D1A10100454027E03ABD
:10595000240C20EFF022802290249028706C1408F0
:10596000D4F127E02240FAA2140A26C03930E7C059
:1059700021002F944407A1004100B1BE743C0E06E3
:10598000000D001500148024405FB08462341FB500
:10599000D89E05100A0025202570F5A02F20081C90
:1059A00005603500643D041C2403F0CAFD94805852
:1059B00080FDF031205A2090402140FD4048803049
:1059C000802940C630BEDD202027F024F242141684
:1059D000248037F0E48024A02BF02A20ABE0522072
:1059E000D5FD00207F8050090200224023E02200E4
:1059F0000215A047D4DAF61E08CE34100621006F37
:105A0000E0A1763221FA2407B1A3104017E08810F4
:105A10000A67C0A1003FF02300256640073130210E
:105A200000B4E6321617F2180620806120BF62111A
:105A3000AC1011002300B2E281105F90115095501C
:105A400055503504280DD55044504A10515060200F
:105A5000C1BF342F22401B17894225C80118EA1CF8
:105A600004D6B70060351620E61006F48024F02432
:105A7000081C0B24803480C4A01FF0D7D304441D1D
:105A80007C411D040451D821DC1E1288451ECD2105
:105A90005210107FF048A06AA0512051206AA04AFD
:105AA000A044A525EE23D1DAA61C0A2FF0F4402944
:105AB0002037D0E50803140E254027D0A11060F050
:105AC000C2EB0040FFA21C102240724057F0D010E1
:105AD000501057D070104124072BB9D8F24E02282D
