:020000040800F2
:10000000988800203D02000881310008152F000863
:100010007D31000831070008294400080000000075
:100020000000000000000000000000000B3A000883
:100030009508000800000000D939000855020008A2
:10004000570200085702000857020008570200082C
:10005000570200085702000857020008570200081C
:10006000570200085702000857020008570200080C
:10007000E9070008F907000809080008190800083E
:10008000290800083908000857020008570200082C
:1000900057020008570200085702000857020008DC
:1000A00057020008570200085702000857020008CC
:1000B00057020008013C00085702000857020008D8
:1000C00057020008570200085702000857020008AC
:1000D00057020008C142000831430008A14300084C
:1000E00057020008570200085702000800000000ED
:1000F0000000000000000000000000000000000000
:10010000000000000000000057020008570200082D
:10011000293E000857020008113C0008213C000855
:100120005702000857020008490800085702000853
:100130005908000857020008570200085702000833
:10014000570200085702000857020008570200082B
:1001500000F002F800F063F80AA090E8000C824476
:100160008344AAF10107DA4501D100F058F8AFF253
:10017000090EBAE80F0013F0010F18BFFB1A43F085
:1001800001031847584400007844000010F8013B70
:100190000A4413F0030408BF10F8014B1D1108BFF7
:1001A00010F8015B641E05D010F8016B641E01F8A5
:1001B000016BF9D1002D15D010F8014B03F00C03A1
:1001C0000C2BA1EB04040ABF10F8013BA4EB831431
:1001D000A4EB032405F1010314F8016B5B1E01F885
:1001E000016BF9D5914238BF10F8013BD1D370476C
:1001F0000023002400250026103A28BF78C1FBD830
:10020000520728BF30C148BF0B607047642900F017
:10021000E980002070471FB51FBD10B510BD00F06C
:1002200034FA1146FFF7F7FF04F05AF900F052FADA
:1002300003B4FFF7F2FF03BC04F0FFF8094880475E
:1002400009480047FEE7FEE7FEE7FEE7FEE7FEE7B8
:10025000FEE7FEE7FEE7FEE704480549054A064BD0
:10026000704700009D3B0008510100089882002063
:10027000988800209884002098840020704753EAD2
:10028000020C00F069802DE9F04B4FF00006002BC6
:100290001FBFB3FA83F503FA05F424FA05F65E40AE
:1002A00012BF1643B2FA82F502FA05F4C5F1200531
:1002B0001EBF22FA05FC44EA0C04203556EA044C21
:1002C0004FEA144418BF641C4FF000084FF00009B7
:1002D000904271EB030C39D3002919BFB1FA81F7B1
:1002E00001FA07F6B0FA80F700FA07F6C7F120071F
:1002F0001EBF20FA07FC46EA0C062037B6FBF4FCCA
:10030000A7EB0507103F07F01F0BCBF120060CFAF7
:100310000BFB2CFA06F644BFB3460026202FA4BFE1
:100320005E464FF0000B5BEA060C08BF4FF0010B76
:1003300019EB0B09ABFB027C48EB0608C01B06FB64
:1003400002CC0BFB03CC71EB0C01C1E70B46024660
:1003500041464846BDE8F08B13B54FF000004FF022
:100360000001AFF30080BDE81C4070470FB41CB51E
:10037000074B06AA7B4469460090059800F06DF98A
:100380000020694600F07CF91CBC5DF814FB0000FD
:100390000903000070B5044685690068C10601D5EF
:1003A000302600E02026C00707D070BDD4E9012127
:1003B00030469047206A401C20626D1EF6D570BD05
:1003C00070B5044685690078C00707D170BDD4E9CF
:1003D000012120209047206A401C20626D1EF6D526
:1003E00070BD00002DE9F041064600241068752913
:1003F000314616A510D0AFF30080002802DA404243
:1004000013A507E031688A0701D512A502E0490764
:1004100004D511A5012401E0AFF3008000210A22D8
:1004200006F1240709E0B0FBF2FCB0FBF2F302FB9B
:100430001C00303078541846491C0028F3D123465C
:100440002A463046BDE8F04100F0A8B800000000A0
:100450002D0000002B000000200000002DE9F05FBF
:10046000894604464FF0000ADFF824B1FB44C0F887
:1004700020A02046E168884700287DD0252806D0A6
:10048000D4E901219047206A401C2062F1E7002551
:100490005F462046E16888472028064607DB312E64
:1004A00005D2B81910F8200C08B10543F1E7A807E8
:1004B00001D525F00405C4F81CA00027C4F818A035
:1004C0002A2E09D0304603F0B1FF38B304EB870879
:1004D000303EC8F8186019E059F8041B204604EBB8
:1004E00087029161E1688847012F064618D1E069CB
:1004F000002820DA25F020051DE0D8F8180000EBD0
:10050000800006EB40003038C8F818002046E1684B
:100510008847064603F08AFF0028EED1012F0AD053
:100520002E2E08D12046E16888477F1C0646022F00
:1005300045F02005C4DBA069002803DA404245F0FD
:100540000105A061E80701D025F01005A6B1A6F1CC
:100550004100192802D8203645F400654A46314644
:10056000204625604D46FFF751FE60B1012807D0B7
:10057000ED1D25F0070000E007E000F1080978E72D
:1005800005F1040975E730467AE7206ABDE8F09F77
:100590005841000070477047704770472DE9F04799
:1005A0000D4699469246044600F1240801688806E3
:1005B00004D5E06921F01001216000E00120A8428B
:1005C00001DD471B00E00027A1697A1902EB090051
:1005D000081AA0612078C00602D42046FFF7DAFE90
:1005E000002608E0D4E901211AF806009047206AA5
:1005F000401C761C20624E45F4DB2078C0060AD5EC
:100600002046FFF7C7FE06E0D4E9012130209047DD
:10061000206A401C2062381EA7F10107F4DC07E0C5
:10062000D4E9012118F805009047206A401C206297
:10063000281EA5F10105F3DC2046FFF7C1FE207856
:10064000000602D50220BDE8F0870120FBE700008C
:1006500001694A1C02610878704700B58FB0CDE986
:1006600001310021059105497944CDE90310114676
:100670006846FFF7F3FE0FB000BD0000E5FFFFFF87
:100680000A6802F8010B0A607047754600F02CF802
:10069000AE4605006946534620F00700854618B06F
:1006A00020B5FFF7D9FDBDE820404FF000064FF020
:1006B00000074FF000084FF0000B21F00701AC4697
:1006C000ACE8C009ACE8C009ACE8C009ACE8C009B6
:1006D0008D46704710B50446AFF300802046BDE854
:1006E0001040FFF7A5BD000000487047348200208D
:1006F00010B50C480078012812D10B480078401C36
:100700000949087008460078022809DD00200870B1
:100710000449087000224FF48041044801F02AF88F
:1007200010BD0000880000208A0000200014014055
:1007300000BFFEE72DE9FC410646354600244CE0AB
:1007400005F0C008B8F1000F09D0B8F1400F0AD089
:10075000B8F1800F0BD0B8F1C00F10D10BE0002022
:1007600001A908550CE00F2001A9085508E0F02068
:1007700001A9085504E0FF2001A9085500E000BFC9
:1007800000BFA806050E05F0C00737B1402F08D0FE
:10079000802F0AD0C02F10D10BE000200DF80400EC
:1007A0000CE00F200DF8040008E0F0200DF8040024
:1007B00004E0FF200DF8040000E000BF00BFA80621
:1007C000050E01A9085D012103F0C0F81DF8040021
:1007D000012103F0BBF8601CC4B2022CB0DBBDE801
:1007E000FC8101460020704710B50249086B00F0FB
:1007F000B3FB10BDE469002010B50249486B00F05E
:10080000ABFB10BDE469002010B50249086B00F095
:10081000A3FB10BD146F002010B50249486B00F017
:100820009BFB10BD146F002010B50249486B00F00F
:1008300093FB10BDB464002010B50249086B00F0B2
:100840008BFB10BDB464002010B50249486B00F06A
:1008500083FB10BD4474002010B50249086B00F002
:100860007BFB10BD4474002030B590F8405001244B
:10087000AC40C56B6C60046863604468102C04D1A4
:100880000468A2600468E16003E00468A160046891
:10089000E26030BD7047000030B58FB014240625EB
:1008A0002A4803782A4802782AA103A8FFF75EFDA8
:1008B000FF2001210C2303AACDE9001019461020C6
:1008C00002F02BFF2E482249097800EBC100C088B6
:1008D0002B491F4A127801EBC2018988CDE900102B
:1008E00027481B49097800EBC10043882448184970
:1008F000097830F8312023A103A8FFF737FDFF2046
:1009000005F11801009004F12000102303AA02F061
:1009100071FEFF2005F12601009004F13400102340
:100920001EA202F0A4FEFF20182320A22321009083
:10093000142002F05FFEFF2018231DA22321009047
:10094000DC2002F057FE0FB030BD00000D5B002030
:100950000C5B0020B5B1C7B0CDA8B5C04348253168
:100960006420202020202020202020202020202043
:1009700020B2CEBFBCCDA8B5C03A434825316400F3
:100980000E5B0020302E2025303364202530336468
:10099000202530336420253033640000206D73201F
:1009A00020757320206E7320207073003C000000BF
:1009B0003E0000001CB5FF2001210C2312A2CDE94E
:1009C00000100021084602F011FFFF2000210C2337
:1009D0000FA2CDE900101021002002F007FFFF2038
:1009E00001210C230DA2CDE900102021002002F0EE
:1009F000FDFEFF2001210C230CA2CDE900103021C7
:100A0000002002F0F3FE1CBDD6F7B2CBB5A5000066
:100A1000B2E2C1BFCAFDBEDD00000000B4A5B7A2AE
:100A2000B5E7C6BDC9E8D6C300000000CDE2B2BF3D
:100A3000D3EBC4DAB2BFB2CEBFBCC9E8D6C30000A4
:100A40001CB5FF2001210C2312A2CDE900100021CA
:100A5000084602F0CBFEFF2001210C230FA2CDE9B6
:100A600000101021002002F0C1FEFF2000210C2305
:100A70000DA2CDE900102021002002F0B7FEFF20DA
:100A800001210C230CA2CDE900103021002002F03E
:100A9000ADFE1CBDD6F7B2CBB5A50000B2E2C1BF1A
:100AA000CAFDBEDD00000000B4A5B7A2B5E7C6BD13
:100AB000C9E8D6C300000000CDE2B2BFD3EBC4DA70
:100AC000B2BFB2CEBFBCC9E8D6C300001CB5FF2080
:100AD00001210C2312A2CDE900100021084602F0EA
:100AE00085FEFF2001210C230FA2CDE9001010216B
:100AF000002002F07BFEFF2001210C230DA2CDE996
:100B000000102021002002F071FEFF2000210C23A4
:100B10000CA2CDE900103021002002F067FE1CBDC0
:100B2000D6F7B2CBB5A50000B2E2C1BFCAFDBEDDAB
:100B300000000000B4A5B7A2B5E7C6BDC9E8D6C39A
:100B400000000000CDE2B2BFD3EBC4DAB2BFB2CE38
:100B5000BFBCC9E8D6C300001CB5FF2001210C238F
:100B600012A2CDE900100021084602F03FFEFF204E
:100B700001210C230FA2CDE900101021002002F06A
:100B800035FEFF2001210C230EA2CDE9001020210B
:100B9000002002F02BFEFF2001210C230EA2CDE944
:100BA00000103021002002F021FE1CBDD6F7B2CB90
:100BB000B5A50000B4A5B7A2B5E7C6BDC9E8D6C3C0
:100BC00000000000CDE2B2BFD3EBC4DAB2BFB2CEB8
:100BD000BFBCC9E8D6C30000B2CEBFBCCDA8B5C06B
:100BE000C9E8D6C30000000010B50446072C47D260
:100BF000DFE804F0460F1A3025043B003148007846
:100C000000EB4000304901EB800040782D4908702E
:100C100037E02C48007800EB40002B4901EB8000C6
:100C20008078284908702CE02648007800EB4000C6
:100C3000254901EB8000C0782249087021E0214855
:100C4000007800EB4000204901EB800000791D494D
:100C5000087016E01B48007800EB40001A4901EBD1
:100C600080004079174908700BE01648007800EBC7
:100C70004000154901EB800080791249087000E0BE
:100C800000BF00BF114800780E490978884218D08B
:100C90000C4800780D49087002F090FA00224FF4D9
:100CA00080410B4800F066FD0648007800EB4000EC
:100CB000054901EB80008068064908600846006825
:100CC000804710BD045B0020505B0020B064002012
:100CD00000140140085B002070B506467721002013
:100CE00002F094FE7F21002002F0A0FE02F0AEFE92
:100CF00000240FE0002509E00121304602F026FE25
:100D00000121304602F022FE681CC5B2782DF3DBCB
:100D1000601CC4B2802CEDDB70BD000070B50246D3
:100D200000230C291FD15524002018E000EB80057A
:100D300005EBC0050E4E16F815501678B5420CD1CD
:100D400000EB800505EBC005094E06EB45056D7807
:100D50005678B54201D1034603E0451CA8B2A04233
:100D6000E4DB00BF02E0102900D000BF184670BDD0
:100D700060520020014600200A68126822F00E022C
:100D80000B681A600A68126822F001020B681A6088
:100D900091F8403001229A40CB6B5A60012281F8D1
:100DA000212000BF002281F8202000BF70470000F2
:100DB00070B50446002594F82100022803D00420D1
:100DC000A0630125C1E02068006820F00E002168C2
:100DD00008602068006820F00100216808605C4914
:100DE0002068884252D95A4978392068884201D10E
:100DF000012047E0564964392068884201D110201B
:100E000040E0534950392068884201D1801539E0CB
:100E10004F493C392068884201D1801432E04C4966
:100E200028392068884202D14FF480302AE04849AE
:100E300014392068884202D14FF4801022E04449DE
:100E40002068884201D140041CE042492068884261
:100E500001D1012016E03F4914312068884201D1B8
:100E600010200FE03B4928312068884201D18015CD
:100E700008E038493C312068884201D1801401E003
:100E80004FF480303349091F086051E03049783908
:100E90002068884201D1012047E02D49643920684B
:100EA000884201D1102040E0294950392068884209
:100EB00001D1801539E026493C392068884201D1AA
:100EC000801432E0224928392068884202D14FF448
:100ED00080302AE01E4914392068884202D14FF43C
:100EE000801022E01A492068884201D140041CE0A9
:100EF00018492068884201D1012016E015491431B3
:100F00002068884201D110200FE012492831206862
:100F1000884201D1801508E00E493C3120688842A2
:100F200001D1801401E04FF48030094980394860D4
:100F3000012084F8210000BF002084F8200000BFB9
:100F4000606B10B12046616B8847284670BD000079
:100F5000800002400804024070B50446E06B05685A
:100F60002068066894F84010042088402840002833
:100F700075D006F004000028FAD02068006800F060
:100F8000200028B92068006820F00400216808606B
:100F9000D5492068884254D9D34978392068884295
:100FA00001D1042049E0D04964392068884201D148
:100FB000402042E0CC4950392068884201D10015D8
:100FC0003BE0C9493C392068884202D14FF4804057
:100FD00033E0C54928392068884202D14FF4802087
:100FE0002BE0C14914392068884202D14FF48000B7
:100FF00023E0BD492068884201D1C0041DE0BB49FF
:101000002068884201D1042017E0B84914312068D3
:10101000884201D1402010E0B4492831206888423C
:1010200001D1001509E0B1493C312068884202D164
:101030004FF4804001E04FF48020AC49091F086064
:1010400054E0A94978392068884201D104204AE057
:10105000A54964392068884202D1402043E04CE031
:10106000A14950392068884201D100153BE09E49D2
:101070003C392068884202D14FF4804033E09A49DD
:1010800028392068884202D14FF480202BE096490D
:1010900014392068884202D14FF4800023E092493D
:1010A0002068884201D1C0041DE090492068884230
:1010B00001D1042017E08D4914312068884201D104
:1010C000402010E0894928312068884201D100156C
:1010D00009E086493C312068884202D14FF48040C3
:1010E00001E04FF48020804980394860E06A0028A0
:1010F00002D02046E16A8847F4E094F840100220CC
:1011000088402840002871D006F002000028FAD05C
:101110002068006800F0200040B92068006820F0D6
:101120000A0021680860012084F821006E492068C7
:10113000884254D96C4978392068884201D102200C
:1011400049E0694964392068884201D1202042E0A1
:10115000654950392068884201D140153BE0624919
:101160003C392068884202D14FF4005033E05E4998
:1011700028392068884202D14FF400302BE05A49C8
:1011800014392068884202D14FF4001023E05649F8
:101190002068884201D180041DE0544920688842BB
:1011A00001D1022017E0514914312068884201D151
:1011B000202010E04D4928312068884201D1401597
:1011C00009E04A493C312068884202D14FF400507E
:1011D00001E04FF400304549091F086054E04249DE
:1011E00078392068884202D102204AE057E03E491F
:1011F00064392068884201D1202042E03A495039C0
:101200002068884201D140153BE037493C392068CD
:10121000884202D14FF4005033E033492839206826
:10122000884202D14FF400302BE02F491439206856
:10123000884202D14FF4001023E02B4920688842F5
:1012400001D180041DE029492068884201D1022093
:1012500017E0264914312068884201D1202010E08F
:10126000224928312068884201D1401509E01F49F0
:101270003C312068884202D14FF4005001E04FF425
:10128000003019498039486000BF002084F82000F0
:1012900000BFA06A30B32046A16A884722E094F8D4
:1012A0004010082088402840E0B106F00800C8B18E
:1012B0002068006820F00E002168086094F8401053
:1012C00001208840E16B48600120A06384F8210080
:1012D00000BF002084F8200000BF206B10B1204622
:1012E000216B884770BD0000800002400804024066
:1012F0000146002209B901207047204B0868984236
:101300000BD21F4B0868C01A1423B0FBF3F0800007
:1013100008641B480838C8630AE0184B0868C01AFC
:101320001423B0FBF3F08000086414480838C86345
:10133000022081F821000868026843F6F0708243B9
:10134000D1E901031843CB6818430B6918434B6973
:1013500018438B691843CB6918430243086802603D
:1013600000208862C862086348638863012081F8AE
:101370002100002081F8200000BFBDE708040240E2
:10138000080002402DE9F04104460D4616461F466E
:101390004FF0000800BF94F82000012802D102207D
:1013A000BDE8F081012084F8200000BF94F82100FE
:1013B00001282CD1022084F821000020A06320689D
:1013C000006820F00100216808603B46324629464B
:1013D0002046FFF749FAE06A30B12068006840F023
:1013E0000E00216808600BE02068006820F004000F
:1013F000216808602068006840F00A0021680860E1
:101400002068006840F001002168086006E000BF25
:10141000002084F8200000BF4FF002084046BFE7DC
:1014200070B5044600F0ACF906462546681C10B1BC
:1014300004480078054400BF00F0A2F9801BA842D0
:10144000FAD370BD0C0000202DE9F84703460024B4
:10145000002000258446002700226EE14FF001089D
:1014600008FA02F4D1F8008008EA0400A0427DD115
:10147000DFF8D0A2D1F80480A8EB0A09D0453AD011
:1014800014DCB8F1030F50D009DCB8F1000F31D0F3
:10149000B8F1010F1CD0B8F1020F49D120E0B8F12A
:1014A000110F18D0B8F1120F42D11EE0B9F5881F04
:1014B00025D006DCB9F5803F20D0B9F5801F37D1A3
:1014C0001AE0B9F5001F18D0B9F5041F30D117E0A4
:1014D000D1F80CC02DE0D1F80C8008F1040C28E004
:1014E000D1F80C8008F1080C23E0D1F80C8008F149
:1014F0000C0C1EE000BF00BF00BF00BF00BF00BF5C
:10150000D1F80880B8F1000F02D14FF0040C0BE0C5
:10151000D1F80880B8F1010F03D14FF0080C1C611D
:1015200002E04FF0080C5C6103E04FF0000C00E0BB
:1015300000BF00BFFF2801D8984601E003F104086E
:101540004646FF2802D84FEA820803E0A2F10808C5
:101550004FEA88084746D6F800804FF00F0909FA8D
:1015600007F928EA09080CFA07F900E088E048EAD8
:101570000908C6F80080D1F8048008F08058B8F156
:10158000805F7DD100BFDFF8C081D8F8188048F0B7
:101590000108DFF8B491C9F81880C846D8F8188057
:1015A00008F00108CDF8008000BF00BF4FEAB9384D
:1015B0004FEA920958F829504FEA82784FEA187991
:1015C0004FF00F0808FA09F825EA0805DFF87C81D2
:1015D000434502D14FF0000816E0DFF8748143451F
:1015E00002D14FF001080FE0DFF86881434502D1D6
:1015F0004FF0020808E0DFF86081434502D14FF068
:10160000030801E04FF004084FEA82794FEA1979A4
:1016100008FA09F848EA0505DFF840814FEA92091F
:1016200048F82950D1F8048008F48038B8F5803F94
:101630000AD1DFF82C81D8F8008048EA0008DFF8EA
:101640002091C9F8008009E0DFF81481D8F8008003
:1016500028EA0008DFF80891C9F80080D1F8048072
:1016600008F40038B8F5003F10D1DFF8F48008F135
:101670000408D8F8008048EA0008DFF8E49000E0A9
:101680005AE009F10409C9F800800DE0DFF8D080C4
:1016900008F10408D8F8008028EA0008DFF8C090B4
:1016A00009F10409C9F80080D1F8048008F4801811
:1016B000B8F5801F0ED1DFF8A88008F10808D8F827
:1016C000008048EA0008DFF8989009F10809C9F895
:1016D00000800DE0DFF8888008F10808D8F8008065
:1016E00028EA0008DFF8789009F10809C9F80080B5
:1016F000D1F8048008F40018B8F5001F0ED1DFF807
:10170000608008F10C08D8F8008048EA0008DFF88B
:10171000509009F10C09C9F800800DE0DFF8408015
:1017200008F10C08D8F8008028EA0008DFF83090AB
:1017300009F10C09C9F80080521C102AFFF48EAE82
:10174000BDE8F887000011100010024000080140B9
:10175000000C01400010014000140140080001404D
:1017600000040140024693680B400BB1012000E0E9
:10177000002070470AB1016101E00B04036170476A
:10178000014800687047000004000020034800681A
:1017900003490978084401490860704704000020A3
:1017A0000C00002010B50648006840F01000044905
:1017B0000860052000F0BCF800F02AF8002010BDF9
:1017C0000020024070B504460E4800784FF47A714C
:1017D000B1FBF0F00C490968B1FBF0F5284600F0C8
:1017E000FFFC08B1012070BD102C07D20022214659
:1017F000501E00F05EF80548046001E00120F2E7A9
:101800000020F0E70C00002000000020080000206D
:1018100008B500BF1F48806940F001001D4988617C
:101820000846806900F00100009000BF00BF00BFC3
:101830000846C06940F08050C8610846C06900F0A1
:101840008050009000BF00BF052000F071F800221A
:1018500011466FF00B0000F02CF8002211466FF0DB
:101860000A0000F026F8002211466FF0090000F08F
:1018700020F800221146501F00F01BF800221146EC
:10188000101F00F016F800221146901E00F011F80B
:1018900008BD00000010024000BF00F01F0201213F
:1018A00091404209920002F1E022C2F8001100BF0B
:1018B00070472DE9F05F80460D461646002701F07F
:1018C00061FC074639462A46334601F00700C0F15D
:1018D000070ABAF1040F02D94FF0040A01E0C0F17F
:1018E000070AD14600F1040ABAF1070F02D24FF0FD
:1018F000000A01E0A0F1030AD4464FF0010A0AFAF7
:1019000009FAAAF1010A0AEA020A0AFA0CFA4FF0E5
:10191000010B0BFA0CFBABF1010B0BEA030B4AEAD0
:101920000B042146404601F035FCBDE8F09F000065
:1019300000BF00F00702064B19684FF6FF0319407D
:10194000044B0B4343EA0221014B196000BF70476F
:101950000CED00E00000FA0570B504460D460026C7
:101960006248006800F00700A8420ED25F48006895
:1019700020F0070028435D4908600846006800F031
:101980000700A84201D0012070BD207800F00200BD
:10199000022807D15648406820F0F000A1680843AB
:1019A00053494860207800F0010000285DD060684D
:1019B000012806D14E48006800F4003090B901209B
:1019C000E2E76068022806D14948006800F000702C
:1019D00040B90120D8E74648006800F0020008B985
:1019E0000120D1E74248406820F0030061680843C5
:1019F0003F494860FFF7C4FE06466068012810D1E1
:101A000008E0FFF7BDFE801B41F28831884201D912
:101A10000320B9E73648406800F00C000428F0D1F4
:101A200023E06068022810D108E0FFF7A9FE801BC0
:101A300041F28831884201D90320A5E72C4840684B
:101A400000F00C000828F0D10FE008E0FFF798FE46
:101A5000801B41F28831884201D9032094E7244851
:101A6000406800F00C000028F0D12048006800F029
:101A70000700A8420ED91D48006820F0070028433F
:101A80001A4908600846006800F00700A84201D023
:101A9000012079E7207800F00400042807D11448D9
:101AA000406820F4E060E16808431149486020780C
:101AB00000F00800082808D10D48406820F4605064
:101AC000216940EAC1000A49486000F03DF8084930
:101AD0004968C1F30311074A515CC84006490860D0
:101AE0000020FFF76FFE00204EE7000000200240BC
:101AF00000100240B04500080000002001480068C6
:101B0000704700000000002000B5FFF7F7FF044910
:101B10004968C1F30221034A515CC84000BD00007E
:101B200000100240C045000800B5FFF7E7FF044978
:101B30004968C1F3C221034A515CC84000BD00009E
:101B400000100240C04500082DE9F04F8BB03CA2C8
:101B5000D2E901311068D268CDE908310A920790C4
:101B60003BA3D3E90020D3E9021304AC0BC40392D6
:101B70004FF00009CB46CA46002400200290019095
:101B800000903748D0F8049009F00C0000284FD09E
:101B9000042802D008284AD102E0324802904AE0E4
:101BA00007A8C9F38341445C09F48030C0B32C48D2
:101BB000C06A00F00F0003A911F800B02848C06AFD
:101BC00000F4803008B32648C06AC0F30310401CFC
:101BD00001902348C06AC0F30320801C0090019844
:101BE000A0FB0B5006461F490098A1FB00210023D3
:101BF000A2FB047C01FB04C102FB03112A4633460D
:101C00003846FEF73CFB824603E016486043B0FBD3
:101C1000FBFA9DF82900A04206D14FEA5A0A03E0D8
:101C2000FFE7114804FB00FACDF808A003E000BF6D
:101C30000E48029000BF00BF02980BB0BDE8F08FC5
:101C4000000004050607080900000000000D000060
:101C50000102030405060708090A0B0C0D0E0F10FC
:101C60000010024040787D0100093D0000127A001A
:101C7000F8B504460025207800F00100002878D04F
:101C8000FD48406800F00C0004280CD0FA48406879
:101C900000F00C00082811D1F748406800F48030AB
:101CA000B0F5803F0AD1F448006800F40030002805
:101CB0005FD0A06800285CD10120F8BD00BFA068FB
:101CC000B0F5803F06D1EC48006840F48030EA4926
:101CD000086028E0A06858B9E748006820F4803020
:101CE000E54908600846006820F4802008601AE092
:101CF000A068B0F5A02F0BD1DF48006840F4802029
:101D0000DD4908600846006840F4803008600AE059
:101D1000D948006820F48030D74908600846006838
:101D200020F48020086000BFA06888B1FFF728FD7C
:101D3000054606E0FFF724FD401B642801D9032077
:101D4000BBE7CD48006800F400300028F2D010E076
:101D5000FFF716FD054606E0FFF712FD401B64285D
:101D600001D90320A9E7C448006800F40030002826
:101D7000F2D1207800F00200022857D1BE48406816
:101D800000F00C0050B1BC48406800F00C0008287E
:101D900018D1B948406800F4803098B9B648006856
:101DA00000F0020020B16069012801D0012084E721
:101DB000B148006820F0F800A16940EAC100AE49CE
:101DC000086033E06069E8B10120AC490860FFF7C2
:101DD000D7FC054606E0FFF7D3FC401B022801D9DB
:101DE00003206AE7A448006800F002000028F2D04F
:101DF000A148006820F0F800A16940EAC1009E49AE
:101E0000086013E000209D490860FFF7B9FC054613
:101E100006E0FFF7B5FC401B022801D903204CE780
:101E20009548006800F002000028F2D1207800F008
:101E3000080008282DD1E069B8B101209049086058
:101E4000FFF79EFC054606E0FFF79AFC401B0228C0
:101E500001D9032031E78848406A00F002000028D9
:101E6000F2D0012001F0BAFD13E00020844908609F
:101E7000FFF786FC054606E0FFF782FC401B0228C0
:101E800001D9032019E77C48406A00F002000028CD
:101E9000F2D1207800F00400042873D1002676489F
:101EA000C06900F0805070B900BF7348C06940F04D
:101EB00080507149C8610846C06900F080500090A8
:101EC00000BF00BF01266F48006800F48070B0B901
:101ED0006C48006840F480706A490860FFF750FC65
:101EE000054606E0FFF74CFC401B642801D903209F
:101EF000E3E66448006800F480700028F2D000BF78
:101F00002069012806D15C48006A40F001005A4966
:101F1000086227E0206958B95748006A20F001009C
:101F2000554908620846006A20F00400086219E07A
:101F3000206905280BD15048006A40F004004E4942
:101F400008620846006A40F0010008620AE04A4858
:101F5000006A20F00100484908620846006A20F043
:101F60000400086200BF2069A0B1FFF709FC054624
:101F700009E0FFF705FC401B41F28831884202D995
:101F800003209AE622E03C48006A00F002000028A4
:101F9000EFD012E0FFF7F4FB054608E0FFF7F0FB97
:101FA000401B41F28831884201D9032085E632483E
:101FB000006A00F002000028F0D1012E05D12E4861
:101FC000C06920F080502C49C86100BFE06AA0B30E
:101FD0002948406800F48030B0F5803F0ED1264893
:101FE000406800F00C00082808D12348C06A00F4BB
:101FF0008030B0F5803F01D101205EE6E06A022822
:1020000050D11D48006800F0805040B11A48C06AA5
:1020100000F0F001606B814201D001204DE600200C
:1020200016498866FFF7ACFB054607E0FFF7A8FBFB
:10203000401B642802D903203FE64DE00E480068AB
:1020400000F000600028F1D10B48C06A20F0F000D9
:10205000616B08430849C8620846C06A20F4706092
:10206000216B08430449C862012004498866FFF7D0
:1020700087FB05460FE000000010024000004242CE
:102080008004424200700040FFF77AFB401B642846
:1020900001D9032011E64648006800F000600028DE
:1020A000F2D019E04248C06A20F480304049C8624A
:1020B000002040498866FFF763FB054606E0FFF70E
:1020C0005FFB401B642801D90320F6E5384800680F
:1020D00000F000600028F2D1206AE0B33448406884
:1020E00000F00C0008285ED0206A022846D10020AB
:1020F00030490866FFF744FB054606E0FFF740FB62
:10210000401B022801D90320D7E52948006800F0C8
:1021100000700028F2D1606AB0F5803F0DD12448EC
:10212000C06A616808432249C8620846C06A20F054
:102130000F00E16808431E49C862D4E90901084359
:102140001B49496821F4741108431949486001206A
:102150001849086600E028E0FFF712FB054606E094
:10216000FFF70EFB401B022801D90320A5E510480C
:10217000006800F000700028F2D016E000200D4941
:102180000866FFF7FDFA054606E0FFF7F9FA401B7F
:10219000022801D9032090E50548006800F000708E
:1021A0000028F2D101E0012087E5002085E500004C
:1021B0000010024000004242042808D14FF0E02104
:1021C000096941F004014FF0E022116107E04FF08E
:1021D000E021096921F004014FF0E022116170470C
:1021E00070B504462546681EB0F1807F01D30120FA
:1021F0000FE0681E4FF0E02148610F214FF0FF30E3
:1022000000F0C8FF00204FF0E0218861072008613E
:10221000002070BD7047704710B504460CB901200E
:1022200010BD94F83D0028B9002084F83C002046F9
:1022300000F00CF8022084F83D00211D206801F018
:10224000F7FC012084F83D000020E9E738B504469A
:1022500028492068884216D100BF2748C06940F04D
:1022600002002549C8610846C06900F002000090DC
:1022700000BF00BF032201211D20FFF71AFB1D2014
:10228000FFF70AFB34E01D492068884216D100BFE1
:102290001948C06940F010001749C8610846C06974
:1022A00000F01000009000BF00BF01220221362084
:1022B000FFF7FFFA3620FFF7EFFA19E01049206820
:1022C000884215D100BF0C48C06940F020000A497F
:1022D000C8610846C06900F02000009000BF00BF40
:1022E000012202213720FFF7E4FA3720FFF7D4FA62
:1022F00038BD000000040040001002400010004003
:102300000014004001460868C06840F001000A68F7
:10231000D0600868006840F001000A681060002082
:102320007047704710B5044620680069C0F340004C
:10233000D8B12068C068C0F34000B0B16FF00200AF
:1023400021680861012020772068806900F003007F
:1023500018B12046FFF7E5FF05E0204600F0ADF894
:10236000204600F0ABF80020207720680069C0F319
:102370008000D8B12068C068C0F38000B0B16FF0B1
:10238000040021680861022020772068806900F439
:10239000407018B12046FFF7C4FF05E0204600F06A
:1023A0008CF8204600F08AF8002020772068006929
:1023B000C0F3C000D8B12068C068C0F3C000B0B19D
:1023C0006FF0080021680861042020772068C06948
:1023D00000F0030018B12046FFF7A3FF05E02046F8
:1023E00000F06BF8204600F069F8002020772068A4
:1023F0000069C0F30010D8B12068C068C0F30010B5
:10240000B0B16FF0100021680861082020772068C3
:10241000C06900F4407018B12046FFF782FF05E064
:10242000204600F04AF8204600F048F800202077C7
:102430002068006900F0010058B12068C06800F011
:10244000010030B16FF0010021680861204600F002
:1024500037F820680069C0F3C01058B12068C06820
:10246000C0F3C01030B16FF08000216808612046D1
:10247000FFF7D0FE20680069C0F3801058B12068D3
:10248000C068C0F3801030B16FF04000216808616F
:10249000204600F037F820680069C0F3401058B1BA
:1024A0002068C068C0F3401030B16FF02000216890
:1024B00008612046FFF7AFFE10BD7047704700006F
:1024C00010B504460B492068884212D00A4920689A
:1024D000884204D1FFF75AF901F06EFC09E0074980
:1024E0002068884205D10648006800F57A700449E2
:1024F000086010BD000400400010004000140040BF
:102500008C000020704770B50446002520684069A3
:10251000C0F3C01594F8390021280ED16DB12068A0
:10252000406920F0800021684861206B10B1206B69
:10253000FEF720FC204601F04DFD20684069C0F305
:10254000801594F83A0022280ED16DB120684069B8
:1025500020F0400021684861606B10B1606BFEF7AD
:1025600009FC204601F016FD002070BD70470146B1
:102570000022002391F8392091F83A3042EA030012
:10258000704700002DE9F047044620680568206880
:10259000C668206847694FF00008C14605F00F087B
:1025A000B8F1000F0AD105F0200038B106F0200084
:1025B00020B1204601F018FDBDE8F087B8F1000F0A
:1025C0006DD007F0010018B906F49070002866D0AD
:1025D00005F0010030B106F4807018B1E06B40F0F6
:1025E0000100E06305F0040030B107F0010018B10C
:1025F000E06B40F00200E06305F0020030B107F04C
:10260000010018B1E06B40F00400E06305F0080041
:1026100030B107F0010018B1E06B40F00800E06352
:10262000E06B68B305F0200028B106F0200010B17F
:10263000204601F0D9FC20684069C0F38019E06BA6
:1026400000F0080010B9B9F1000F22D0204601F0C7
:10265000A1FC2068406900F04000B0B120684069EA
:1026600020F0400021684861606B50B11748616BF1
:102670004863606BFEF79CFB10B1606B416B884751
:102680000CE02046FFF772FF08E02046FFF76EFFE0
:1026900004E02046FFF76AFF0020E0638CE705F0C6
:1026A000800030B106F0800018B1204601F0D4FD62
:1026B00082E705F0400030B106F0400018B1204636
:1026C00001F078FC78E700BF76E70000993E00084B
:1026D00010B504460CB9012010BDA06900B100E09E
:1026E00000BF94F8390028B9002084F8380020464B
:1026F00000F028F8242084F839002068C06820F40D
:1027000000502168C860204601F0C2FC20680069C2
:1027100020F49040216808612068406920F02A0078
:10272000216848612068C06840F400502168C86092
:102730000020E063202084F8390084F83A0000206B
:10274000CAE7000010B586B00446F8492068884200
:102750007DD100BFF648806940F48040F44988612B
:102760000846806900F48040019000BF00BF00BFB0
:102770000846806940F0040088610846806900F0DE
:102780000400019000BF00BF481502900220039092
:10279000002004900320059002A9E648FEF754FEAD
:1027A0004FF4806002900020039002A9E148FEF7F8
:1027B0004BFE002202212520FFF77BF82520FFF7A2
:1027C0006BF800BFDA48406940F00100D849486121
:1027D0000846406900F00100019000BF00BFD648E4
:1027E000D649C1F8A8041021D448C0F8AC1400217F
:1027F000C0F8B0148021C0F8B4140021C0F8B81497
:10280000C0F8BC14C0F8C0144FF40051C0F8C41490
:1028100000F59560FEF76CFD00BFC9482063C7480E
:10282000C0F8CC4400BFC4481430C449C1F8EC041B
:102830000021C248C0F8F014C0F8F4148021C0F898
:10284000F8140021C0F8FC14C0F8001500E022E0E4
:10285000C0F804154FF40051C0F8081500F2EC4020
:10286000FEF746FD00BFB64844306063B348C0F889
:10287000104500BF002202210E20FFF71AF80E209B
:10288000FFF70AF8002202210F20FFF712F80F20AD
:10289000FFF702F805E2AB49206888427DD100BF0E
:1028A000A348C06940F40030A149C8610846C06926
:1028B00000F40030019000BF00BF00BF08468069EF
:1028C00040F0040088610846806900F0040001902F
:1028D00000BF00BF0420029002200390002004905B
:1028E0000320059002A99348FEF7AEFD0820029050
:1028F0000020039002A98F48FEF7A6FD01220221C5
:102900002620FEF7D6FF2620FEF7C6FF00BF884828
:10291000406940F00100864948610846406900F07E
:102920000100019000BF00BF83483C308649C1F8D8
:10293000A80410218448C0F8AC140021C0F8B014D9
:102940008021C0F8B4140021C0F8B814C0F8BC1439
:10295000C0F8C0144FF48051C0F8C41400F595605D
:10296000FEF7C6FC00BF794820637748C0F8CC4426
:1029700000BF714828307449C1F8EC040021724846
:10298000C0F8F014C0F8F4148021C0F8F814002145
:10299000C0F8FC14C0F8001500E022E0C0F80415EF
:1029A0004FF48051C0F8081500F2EC40FEF7A0FC8F
:1029B00000BF6648443060636348C0F8104500BFFC
:1029C000012202211120FEF774FF1120FEF764FF9F
:1029D000012202211020FEF76CFF1020FEF75CFFA1
:1029E0005FE15B49206888427ED100BF5048C069E2
:1029F00040F480204E49C8610846C06900F4802038
:102A0000019000BF00BF00BF0846806940F0080089
:102A100088610846806900F00800019000BF00BF8F
:102A200008150290022003900020049003200590D6
:102A300002A94848FEF708FD4FF40060029000200C
:102A4000039002A94348FEF7FFFC0222114627200B
:102A5000FEF72FFF2720FEF71FFF00BF3448406915
:102A600040F00100324948610846406900F0010029
:102A7000019000BF00BF304828383749C1F8A8048A
:102A800010213548C0F8AC140021C0F8B0148021E2
:102A9000C0F8B4140021C0F8B814C0F8BC14C0F8D1
:102AA000C014C0F8C41400F59560FEF721FC00BF07
:102AB0002A4820632848C0F8CC4400BF1E48143878
:102AC0002549C1F8EC0400212348C0F8F014C0F8EF
:102AD000F4148021C0F8F8140021C0F8FC14C0F8E8
:102AE0000015C0F8041500E03AE04FF48051C0F83A
:102AF000081500F2EC40FEF7FBFB00BF174844301E
:102B000060631548C0F8104500BF022211460C2032
:102B1000FEF7CFFE0C20FEF7BFFE022211460D206D
:102B2000FEF7C7FE0D20FEF7B7FEBAE00038014001
:102B3000001002400008014044000240146F0020D1
:102B4000BC73002000440040B46400205C69002095
:102B500000480040000C0140E46900208C6E002019
:102B6000514920688842E0D100BF5048C06940F414
:102B700000204E49C8610846C06900F40020019059
:102B800000BF00BF00BF0846806940F010008861A8
:102B90000846806900F01000019000BF00BF0815D2
:102BA000029002200390002004900320059002A9C7
:102BB0003F48FEF749FC4FF400600290002003906C
:102BC00002A93B48FEF740FC032202213420FEF715
:102BD00070FE3420FEF760FE00BF3448406940F0CC
:102BE0000200324948610846406900F00200019045
:102BF00000BF00BF2F483049C1F8A80410212E485B
:102C0000C0F8AC140021C0F8B0148021C0F8B4148E
:102C10000021C0F8B814C0F8BC14C0F8C014C0F843
:102C2000C41400F59560FEF763FB00BF23482063E2
:102C30002148C0F8CC4400BF1E4828381E49C1F8BE
:102C4000EC0400211C48C0F8F014C0F8F4148021F2
:102C5000C0F8F8140021C0F8FC14C0F80015C0F842
:102C600004154FF48051C0F8081500F2EC40FEF74F
:102C70003FFB00BF1148443060630F48C0F8104567
:102C800000BF032202213A20FEF713FE3A20FEF78E
:102C900003FE032202213C20FEF70BFE3C20FEF740
:102CA000FBFD06B010BD0000004C004000100240CB
:102CB000001001405804024044740020EC780020C9
:102CC00077B581B00446154694F83A00202850D1D3
:102CD000029800B115B9012004B070BD00BF94F88E
:102CE0003800012801D10220F6E7012084F83800DD
:102CF00000BF0298A062A5850020E063222084F82E
:102D00003A001D48616B88621C48616BC8621C48B0
:102D1000616B08630020616B486302AE3268236810
:102D2000191D2B46606BFEF72DFB00BF00200090A5
:102D300020680068009020684068009000BF00BFD5
:102D400000BF002084F8380000BF2068C06840F44D
:102D500080702168C8602068406940F001002168E7
:102D600048612068406940F04000216848610020C7
:102D7000B2E70220B0E70000FD3E0008433F000834
:102D8000AD3E000870B5044631492068884213D131
:102D900040F22B202F49A1F840000846D0F8785285
:102DA000406CC1F878020846456440F22B22D0F806
:102DB0007812FFF785FF49E027492068884213D140
:102DC00040F22B202549A1F840000846D0F878525F
:102DD000406CC1F878020846456440F22B22D0F8D6
:102DE0007812FFF76DFF31E01D492068884213D14A
:102DF00040F22B201B49A1F840000846D0F8785239
:102E0000406CC1F878020846456440F22B22D0F8A5
:102E10007812FFF755FF19E013492068884215D151
:102E200040F22B201149A1F840000846D0F8785212
:102E3000406CC1F87802084645640A4840F22B22EB
:102E4000D0F878120948FFF73BFF00BF70BD0000C3
:102E500000380140146F002000440040B46400209A
:102E600000480040E4690020004C00404474002009
:102E700070470000F7B50446154694F8390020283D
:102E80003DD1019800B10DB90120FEBD00BF94F8FD
:102E90003800012801D10220F7E7012084F838002A
:102EA00000BF01982062A584E5840020E063212012
:102EB00084F839001348216B88621348216BC8627B
:102EC0001248216B08630020216B486301AE236820
:102ED0001A1D31682B46206BFEF754FA6FF0400044
:102EE0002168086000BF002084F8380000BF206817
:102EF000406940F08000216848610020C5E7022059
:102F0000C3E70000513F0008873F0008AD3E0008BE
:102F10007047704700BFFEE7062001490870704700
:102F20001400002000B585B000BF1948806940F04A
:102F30002000174988610846806900F02000009051
:102F400000BF00BF00BF0846806940F040008861B4
:102F50000846806900F04000009000BF00BF4FF4B9
:102F60007C400190002002900120039003200490F7
:102F700001A90848FEF768FA4FF48040019001204B
:102F8000029001A90448FEF75FFA05B000BD0000F9
:102F900000100240001801400014014010B5044622
:102FA000012C01D14349087042480078002857D0CD
:102FB0004FF400414048FEF7D5FBE8B14FF48041A3
:102FC0003D48FEF7CFFBB8B14FF400613A48FEF739
:102FD000C9FB88B14FF480513748FEF7C3FB58B1A5
:102FE0004FF400513448FEF7BDFB28B14FF4806127
:102FF0003148FEF7B7FB90BB00202E4908704FF414
:1030000000412D48FEF7AEFB08B9012010BD4FF47A
:1030100080412948FEF7A6FB08B90220F6E74FF4E5
:1030200000612548FEF79EFB08B90320EEE74FF448
:1030300080512148FEF796FB08B90420E6E74FF4DB
:1030400000511D48FEF78EFB08B90520DEE74FF45E
:1030500080611948FEF786FB48BB0620D6E7FFE7EC
:103060004FF400411448FEF77DFB01281FD1810376
:103070001148FEF777FB012819D1C1020E48FEF76F
:1030800071FB012813D101030B48FEF76BFB0128EC
:103090000DD141030848FEF765FB012807D18102E5
:1030A0000548FEF75FFB012801D1024908700020A6
:1030B000ACE70000890000200018014010B504466C
:1030C00000F00AF803494879FDF78EFDFDF710FB83
:1030D000002010BD8000002010B50120FFF75EFF2A
:1030E00004460948807960402040074948710846F5
:1030F0008471407938B1012291030448FEF73AFB0C
:1031000001200349087010BD800000200014014018
:103110008800002000B585B000BF0F48806940F0EE
:1031200010000D4988610846806900F01000009089
:1031300000BF00BF481501900120029003900320BA
:10314000049001A90548FEF77FF9012251020348C6
:10315000FEF710FB05B000BD00100240001001405A
:1031600001460548006808B9012000E00020024A35
:103170001060002070470000A401224200BFFEE75B
:103180007047000002480068C0F30220704700004A
:103190000CED00E010B5002807DA0A07140E054A06
:1031A00000F00F031B1FD45403E00A07130E024A5A
:1031B000135410BD18ED00E000E400E070B50024E9
:1031C0000CE0002506E00020074901EB45110855F9
:1031D000681C85B2402DF6DB601C84B2202CF0DB2D
:1031E0000020FDF779FD70BD347A0020F0B514465B
:1031F0000025FF2801DC3F2900DDF0BD0346C7178D
:1032000000EB5777C7F3C702C71700EB5777FF10DC
:10321000A0EBC707FEB2C6F107070123BB40DDB232
:103220004CB10A4B03EB41139B5C2B43074F07EB5D
:103230004117BB5408E0054B03EB41139B5CAB43C8
:10324000024F07EB4117BB5400BFD6E7347A00208A
:1032500010B500F0F9F8012210217A48FEF78AFA39
:10326000002201217748FEF785FA6420FEF7D8F89E
:10327000012211467348FEF77DFA0021AE2000F0CE
:1032800065FB0021FD2000F061FB0121122000F010
:103290005DFB0021B32000F059FB0121912000F0DB
:1032A00055FB0021CA2000F051FB01213F2000F016
:1032B0004DFB0021A22000F049FB0121002000F07D
:1032C00045FB0021A12000F041FB0121002000F07E
:1032D0003DFB0021A02000F039FB0121142000F06B
:1032E00035FB0121112000F031FB0021B52000F059
:1032F0002DFB0121002000F029FB0021AB2000F074
:1033000025FB0121084600F021FB0021B42000F03C
:103310001DFB0121A02000F019FB0121F82000F085
:1033200015FB0021C12000F011FB0121EF2000F06E
:103330000DFB0021C72000F009FB0121FF2000F058
:1033400005FB0021B82000F001FB01210C2000F05A
:10335000FDFA0121182000F0F9FA0121242000F0E3
:10336000F5FA0121302000F0F1FA01213C2000F0B3
:10337000EDFA0121482000F0E9FA0121542000F083
:10338000E5FA0121602000F0E1FA01216C2000F053
:10339000DDFA0121782000F0D9FA0121842000F023
:1033A000D5FA0121902000F0D1FA01219C2000F0F3
:1033B000CDFA0121A82000F0C9FA0121B42000F0C3
:1033C000C5FA0021084600F0C1FA0021B12000F042
:1033D000BDFA0121E22000F0B9FA0021D12000F06D
:1033E000B5FA0121A22000F0B1FA0121202000F05D
:1033F000ADFA0021BB2000F0A9FA01211F2000F046
:10340000A5FA0021B62000F0A1FA0121082000F061
:103410009DFA0021BE2000F099FA0121072000F05A
:1034200095FA0021A62000F091FA0021A92000F0D1
:103430008DFA0020FDF750FC0021AF2000F086FA45
:1034400010BD00000010014000B585B000BF11485C
:10345000806940F020000F4988610846806900F0CB
:103460002000009000BF00BF4FF478500190012071
:103470000290002003900320049001A90648FDF764
:10348000E3FF01224FF47C510348FEF773F905B0C6
:1034900000BD0000001002400014014070B55B2127
:1034A0001C2000F0B3FA04F13F00C1B2204600F046
:1034B000BDFA00F0CBFA00240DE0002507E0074933
:1034C00001EB4411485DFDF735F9681CC5B2202DAC
:1034D000F5DB601CC4B2402CEFDB70BD347A0020F9
:1034E0002DE9FF4F0546884617469946DDF834A07A
:1034F0000020029001950090A7F12000C7B2B9F119
:10350000100F1AD006DCB9F1080F0AD0B9F10C0F70
:1035100025D10CE0B9F1180F15D0B9F1280F1ED143
:1035200017E02F48029008200090082419E02D4849
:1035300002900C200090082413E02B4802901020E9
:10354000009008240DE029480290302000901024BB
:1035500007E02748029078200090182401E0BDE899
:10356000FF8F00BF002636E0009807FB006102983D
:1035700010F801B00020039027E00BF0800028B184
:10358000524641462846FFF731FE0AE0BAF1000FE5
:1035900001D1012000E00020024641462846FFF705
:1035A00025FE4FEA4B604FEA106B681CC5B20198CC
:1035B000281AA04205D1019D08F1010000F0FF0882
:1035C00006E00398401CC0B2039003980828D4DB9F
:1035D00000BF701CC6B200988642C5DB00BFBEE7C4
:1035E000900000209003002010080020100E002002
:1035F000102000202DE9FC4706460F4615461C46C4
:10360000DDF828804FF00009082C02D14FF00509A1
:1036100004E0204604EBD071C1F347091FE004EB3E
:10362000D4714910C1F58071B14202DA002638190F
:10363000C7B2C4F14000B84204DA0020064607468B
:10364000FFF7BCFD0120CDE900082A782346394662
:103650003046FFF745FF06EB0900C6B26D1C28781F
:103660007E2802DC28782028D9DABDE8FC872DE9FD
:10367000FC4706460F4614461D46DDF828904FF0DD
:10368000000A082D02D14FF0050A04E0284605EB98
:10369000D071C1F3470A38E005EBD5714910C1F587
:1036A0008071B14202DA00267819C7B2C5F1400034
:1036B000B84204DA002006460746FFF77FFD0120E6
:1036C000CDE9000922782B4639463046FFF708FF3E
:1036D0002078202804D16078202812D0607880B12A
:1036E0004FF000080AE006EB0801C8B20122394693
:1036F000FFF77CFD08F1010000F0FF08B8F1080FAA
:10370000F1DB06EB0A00C6B2641C20787E2802DCDE
:1037100020782028C0DABDE8FC872DE9FE4F064658
:103720000F4615461C46DDE90C9AB0464FF0000BDB
:1037300000200290082C02D10520029005E02046CE
:1037400004EBD071C1F34701029149E0BBF1000FD6
:103750002BD12878802802DD4FF0010B3FE004EBED
:10376000D4714910C1F58071B14203DA3819C7B27A
:1037700008F0FF06C4F14000B84200DA33E02878D0
:103780000A2805D13819C7B208F0FF066D1C27E0DA
:10379000CDE9009A2A78234639463046FFF7A0FE45
:1037A0006D1C02983044C6B219E04FF0000BC4F50E
:1037B0008070B04203DA3819C7B208F0FF06C4F1CE
:1037C0004000B84200DA0EE023462A463946304629
:1037D000CDE9009A00F040F9AD1C3019C6B200BF27
:1037E00028780028B2D100BFBDE8FE8F2DE9F04F48
:1037F00085B006460F4615461C46DDF838B0B24681
:1038000000200490039002908046A946082C02D123
:103810000520029005E0204604EBD071C1F347017A
:103820000291102C0CD004DC082C07D00C2C10D1E9
:1038300005E0182C07D0282C0BD107E000BF00BFF3
:103840000820039008E01020039005E01820039062
:1038500002E005B0BDE8F08F00BF10E099F800006D
:10386000802806DD08EB04001FFA80F809F1020940
:1038700005E0039840441FFA80F809F1010999F81E
:1038800000000028EAD1B8F1FF0F06DCC8F580700F
:1038900000EBD071C1F34706B2464AE0049860BB22
:1038A0002878802802DD0120049041E004EBD471E7
:1038B0004910C1F58071B14203DA3819C7B20AF074
:1038C000FF06C4F14000B84200DA35E028780A2843
:1038D00005D13819C7B20AF0FF066D1C29E00F9810
:1038E000CDE900B02A78234639463046FFF7F8FD87
:1038F0006D1C02983044C6B21AE000200490C4F552
:103900008070B04203DA3819C7B20AF0FF06C4F17A
:103910004000B84200DA0FE00F9823462A463946A5
:10392000CDE900B0304600F097F8AD1C3019C6B2B2
:1039300000BF28780028B1D100BF00BF89E710B5CB
:103940000446FFF7ABFD002010BD000070B5044633
:103950000E462EB10122D1021E48FDF70BFF05E0F5
:1039600000224FF400611B48FDF704FF00224FF4D2
:1039700000711848FDF7FEFE00251DE000224FF4FF
:1039800080511448FDF7F6FE04F0800028B10122B2
:1039900051031048FDF7EEFE05E000224FF4005100
:1039A0000C48FDF7E7FE012211030A48FDF7E2FE8D
:1039B0006006040E681CC5B2082DDFDB012251022F
:1039C0000448FDF7D7FE0122D1020248FDF7D2FEDE
:1039D00070BD0000001401407047000008B50849A0
:1039E0000968C9084FF47A72B1FBF2F141430091C2
:1039F00000BF00BF00994A1E00920029F9D108BDFE
:103A000000000020014600207047704770B5054651
:103A10000C4600211520FFF799FF01212846FFF7EA
:103A200095FF01212046FFF791FF70BD70B5054657
:103A30000C4600217520FFF789FF01212846FFF77A
:103A400085FF01212046FFF781FF70BD10B50021E1
:103A50005C20FFF77BFF10BD2DE9FC4F05460E46AD
:103A600092461C46AB46002001902046E21704EB2C
:103A70005272D2102146E31704EB5373DB10A4EB10
:103A8000C3030BB1012300E000231A446243D2B206
:103A900000920C2C07D0102C05D0182C03D0202C11
:103AA00001D0BDE8FC8F21465046FDF737F9019063
:103AB000002738E0019800EB800101EBC0001C49B1
:103AC00001EB4000801C10F807804FF0000924E053
:103AD00008F0800028B1F1B2E8B20B9AFFF786FB3C
:103AE00009E00B9B0BB9012300E000231A46F1B259
:103AF000E8B2FFF77BFB4FEA48604FEA1068681CAA
:103B000085B2A5EB0B00A04203D15D46701C86B2C6
:103B100006E009F1010000F0FF09B9F1080FD7DB59
:103B200000BF781CC7B200988742C3DB00BFB8E76C
:103B30006052002030B593B0054600240120059066
:103B40000004079004200890800306900220109043
:103B50004FF4C0611191402112910D90C1030E915B
:103B60000F9505A8FEF784F804460CB100BFFEE7E8
:103B70000F20009002200190002002904FF48060FE
:103B800003900020049002216846FDF7E5FE0446FC
:103B90000CB100BFFEE713B030BD00001448006850
:103BA00040F0010012490860084640681149084089
:103BB0000F494860084600680F4908400C490860F2
:103BC0000846006820F4802008600846406820F419
:103BD000FE0048600846006820F0A05008604FF4DE
:103BE0007F0088600020C862C803044908607047ED
:103BF000001002400000FFF0FFFFF6FE08ED00E0BD
:103C000010B50248FEF78EFB10BD0000747900204D
:103C100010B50248FEF786FB10BD0000B479002005
:103C200010B50248FEF77EFB10BD0000F4790020BD
:103C3000002202681B4B98420BD0B0F1804F08D095
:103C4000194B984205D0194B984202D0184B984214
:103C500003D122F070024B681A43124B98420BD0EA
:103C6000B0F1804F08D0104B984205D00F4B9842CE
:103C700002D00F4B984203D122F44072CB681A4312
:103C800022F080024B691A4302608B68C3620B68A2
:103C90008362044B984201D10B69036301234361A2
:103CA00070470000002C0140000400400008004064
:103CB000000C004010B50446032C04D0062C09D09B
:103CC000072C15D10DE000200B4908600B48FEF7CA
:103CD00019FB0EE000200A4908600A48FEF712FBB3
:103CE00007E00020064908600748FEF70BFB00E0EC
:103CF00000BF00BF10BD0000240400407479002004
:103D0000242C0140B4790020F47900202DE9F04101
:103D100005460E461746012D10D0032D03D10C4C3D
:103D20000C4820600AE0062D03D10B4C0B482060A4
:103D300004E0072D02D10A4C0A4820606760E66063
:103D400000212161A1602046FEF766FABDE8F081FE
:103D50007479002000040040B47900200010004075
:103D6000F47900200014004010B500241AE0104837
:103D700000EB04100078012812D100200C4901EB5F
:103D8000041108700A4800EB0410806840B1084A2A
:103D900002EB0412D068064A02EB041291688847CD
:103DA000601CC4B2034800788442E0DB10BD000010
:103DB0001C0000201400002018490968491C174AFB
:103DC0001160002024E0164901EB001189790129D6
:103DD0001CD1134901EB00114988491C104A02EB20
:103DE000001251800E4901EB001149880C4A02EB88
:103DF00000129288914209DB0021094A02EB00126D
:103E000051800121064A02EB00121170411CC8B218
:103E1000044909788842D6DB70470000180000206A
:103E20001C0000201400002038B51948FEF7AAFB3A
:103E30001848006800F0100040B300BF0020009058
:103E400013480068006800901148006840680090BE
:103E500000BF00BF0E48D0F8EC04406840F22B21B0
:103E6000081A0B49A1F840000846FEF74CFB084829
:103E7000D0F87842406C0649C1F87802084644649C
:103E800040F22B22D0F87812FEF71AFF38BD00005E
:103E900044740020004C004070B505466C6A002058
:103EA000E085E0842046FEF761FB70BD70B50646F4
:103EB0000025746A20684069C0F3C01594F8390081
:103EC000212805D125B10020E084204600F082F8A9
:103ED00020684069C0F3801594F83A00222805D183
:103EE00025B10020E085204600F054F8E06B40F05A
:103EF0001000E0632046FEF739FB70BD70B5054643
:103F00006C6A2868006800F02000B0B90020E085E5
:103F10002068C06820F480702168C860206840690B
:103F200020F00100216848612068406920F04000CD
:103F300021684861202084F83A002046FEF722FFDD
:103F400070BD70B50446656A2846FEF791FF70BDE6
:103F500070B505466C6A2868006800F0200070B9EA
:103F60000020E0842068406920F0800021684861DA
:103F70002068C06840F040002168C86002E0204628
:103F8000FEF7C6FF70BD70B50446656A2846FEF7A9
:103F9000C0FF70BD0168C96821F490710268D160EA
:103FA0000168496921F0010102685161202180F80E
:103FB0003A10704710B504462068C06820F04000F1
:103FC0002168C860202084F839002046FEF7A0FF51
:103FD000002010BD0168C96821F0C0010268D160ED
:103FE000202180F83910704770B5044694F83A00E3
:103FF00022284AD1A068B0F5805F13D1A56A206954
:1040000040B920684068C0F308002880A06A801C7E
:10401000A06219E020684068C0B22880A06A401CF5
:10402000A06211E0206938B920684068C1B2A26A74
:10403000501CA062117007E02068406800F07F010A
:10404000A26A501CA0621170E08D401E80B2E08513
:10405000C8B92068C06820F020002168C8602068C6
:10406000C06820F480702168C8602068406920F032
:10407000010021684861202084F83A002046FEF7BC
:1040800081FE002070BD0020FCE70220FAE700005E
:104090002DE9F041044600252068006920F44050D5
:1040A000E1680843216808612169A06808436169E3
:1040B000084305432068C06841F20C6188432843E7
:1040C0002168C8602068406920F44070A1690843F5
:1040D000216848615F49206888425CD1FDF724FD72
:1040E00000EBC00101EB001061688900B0FBF1F644
:1040F000FDF71AFD00EBC00101EB001061688900BB
:10410000B0FBF1F06421B0FBF1F000EBC00101EB7A
:104110000010A6EB8000322101EB00106421B0FBFF
:10412000F1F000F0F006FDF7FFFC00EBC00101EB41
:10413000001061688900B0FBF1F06421B0FBF1F080
:1041400006EB0016FDF7F0FC00EBC00101EB0010E0
:1041500061688900B0FBF1F7FDF7E6FC00EBC001F8
:1041600001EB001061688900B0FBF1F06421B0FB45
:10417000F1F000EBC00101EB0010A7EB8000322151
:1041800001EB00106421B0FBF1F000F00F003044AF
:10419000216888605BE0FDF7B7FC00EBC00101EB34
:1041A000001061688900B0FBF1F6FDF7ADFC00EB93
:1041B000C00101EB001061688900B0FBF1F06421DF
:1041C000B0FBF1F000EBC00101EB0010A6EB8000AA
:1041D000322101EB00106421B0FBF1F000F0F00699
:1041E000FDF792FC00EBC00101EB00106168890053
:1041F000B0FBF1F06421B0FBF1F006EB0016FDF727
:1042000083FC00EBC00101EB001061688900B0FB8A
:10421000F1F7FDF779FC00EBC00101EB00106168DC
:104220008900B0FBF1F06421B0FBF1F000EBC001BC
:1042300001EB0010A7EB8000322101EB001064219C
:10424000B0FBF1F000F00F00304421688860BDE859
:10425000F081000000380140014691F83900212822
:104260002CD18868B0F5805F0FD10A6A1088C0F33E
:1042700008000B685860086918B9086A801C086251
:1042800009E0086A401C086205E00B6A581C0862D5
:1042900018780B685860C88C401E80B2C88458B922
:1042A0000868C06820F080000B68D8600868C068A3
:1042B00040F040000B68D860002070470220FCE707
:1042C00038B51948FEF75EF91848006800F010008C
:1042D00040B300BF002000901348006800680090C1
:1042E000114800684068009000BF00BF0E48D0F839
:1042F000EC04406840F22B21081A0B49A1F8400059
:104300000846FEF700F90848D0F87842406C0649A4
:10431000C1F878020846446440F22B22D0F87812A3
:10432000FEF7CEFC38BD0000146F002000380140BD
:1043300038B51948FEF726F91848006800F0100053
:1043400040B300BF00200090134800680068009050
:10435000114800684068009000BF00BF0E48D0F8C8
:10436000EC04406840F22B21081A0B49A1F84000E8
:104370000846FEF7C8F80848D0F87842406C06496D
:10438000C1F878020846446440F22B22D0F8781233
:10439000FEF796FC38BD0000B464002000440040E5
:1043A00038B51948FEF7EEF81848006800F010001C
:1043B00040B300BF002000901348006800680090E0
:1043C000114800684068009000BF00BF0E48D0F858
:1043D000EC04406840F22B21081A0B49A1F8400078
:1043E0000846FEF790F80848D0F87842406C064935
:1043F000C1F878020846446440F22B22D0F87812C3
:10440000FEF75EFC38BD0000E46900200048004073
:1044100010B5044600221146024800F087F800203B
:1044200010BD0000B464002000BFFEE730380A2849
:1044300001D2012070470020704700BF704710B5BF
:1044400004460021A161E161E160A1600C2161618C
:104450002046FEF73DF904F14C00606404F51F703E
:10446000C4F878022068C06840F010002168C86075
:1044700040F22B222046D4F87812FEF721FC10BD22
:104480002DE9F04104460D4616460A27FDF778F956
:10449000804608E0FDF774F9A0EB0800B84202D9A5
:1044A0000320BDE8F0812046FEF761F82128F1D015
:1044B000324629462046FEF7DDFCF2E710B50446F9
:1044C0000420FDF779FE054804604FF0E020006904
:1044D00020F002004FF0E021086110BD1000002024
:1044E000FDF760F94FF4E010FFF724FB4820FFF7D9
:1044F000E5FFFEF70FFEFEF715FD48224FF47A7137
:104500000620FFF703FC48224FF47A710720FFF7DB
:10451000FDFB0620FFF7CEFB00F032F8FEF7FCFCB7
:10452000FEF796FE01E0FFF71FFCFCE72DE9F041E6
:1045300004460D4616460027B4F8400050B1B4F8C2
:10454000401033462A46D4E9110CE047C7B2002098
:10455000A4F840003846BDE8F08100002DE9F041A4
:1045600004460D461746984600262A46214603482B
:10457000FFF786FF3046BDE8F0810000B4640020FC
:1045800010B50848084908604FF4E1304860002140
:10459000054801610548044988640846FFF74FFF54
:1045A00010BD000000440040B46400205D450008D8
:1045B00000000000000000000102030406070809D3
:1045C00000000000010203040400000800000000D5
:1045D000000000020001000010000000FC4500087F
:1045E00000000020B46400008C010008A86C0008E2
:1045F000B4640020E4230000F0010008100600A2CB
:104600004A0400011210040310010001A009F40182
:104610000100114400081083613110129636833F67
:10462000391012141083BD30308007E803010005F3
:104630003A3012642083E307307169D17D22200172
:1046400030070020005050503810045050F802300D
:104650001E50002078C07028F02000C0C8102040F4
:1046600098180040A0A040A8906800302040801119
:1046700016100640402010000412100C10080020F4
:10468000A8702070A84A20042020F8522184200419
:10469000604080CB72F8E5100660600000085011A1
:1046A00017200B708898A8C888700020608212704C
:1046B00010100C08304080F800F80810300818205E
:1046C0000D10305090F8101000F880F0081010060F
:1046D000384080F088081120217A11402288032177
:1046E000083005780810E05C215F41082280A02294
:1046F00080A0217F218111A8213A11383210F010B9
:10470000117088B8A8B880780020508888F8888808
:10471000005D21031158100480808068110D110183
:1047200012F080200480F08098310832802030061A
:10473000B8887800883734048800704111A01507C4
:10474000300E109060008890A0C0A090880080017A
:104750002007F80088D8A8A82820068888C8A89824
:1047600030315831605150278888582180213811C4
:10477000802270F02545259A52883031073250103A
:104780002004A8A8D8502250BB310821283518157C
:104790004023F0C0012004F00000FE194E237818D9
:1047A0000111E8159D359820052040F840076A1052
:1047B0006B1004E010708018088080B0C888C8B002
:1047C0006A2502300A7000080868988898681012F4
:1047D000F0102405304840F07846007232F0301571
:1047E000004A204329D816300224046080800154F6
:1047F0000498006018195212A801116813B04801FA
:10480000414015E056000211A225C211AA43B0484A
:10481000601678011004F00040A71804404830FAF0
:10482000129001218845002300004F29AC35013149
:1048300018139868311B00F8A912F8DF15F83A40F0
:104840008841041610F82210382B40A80E33A850C7
:1048500002CD050325BC4E109C0333006CA55D659D
:1048600003100414287C023D1B032008103840402C
:104870003848702819355406200C70081442600717
:10488000182020544834486154330808562210DB5D
:104890004320200C25809006107C1028287992FC5B
:1048A00034114C4F10303C03BF007C1F0426300AEB
:1048B0002004000404563E20830333384401323878
:1048C0001E415F313318043844040B62440C400429
:1048D000180404242C090C141424447C040CE5034F
:1048E00060053C2020381860051C20407848127C68
:1048F0003C21B8413C63443818216C80053C0408D5
:10490000708C419011FC16180041B3160CFD5C042C
:1049100060100CB004727CC14408C0201804182038
:10492000C02B12249D430030BF30064C54544C40E1
:10493000791630133C05287C44EC2E042344449023
:104940003D35041F3C4465044123200400F048F138
:104950001A48DA300B0000FC445070504044FCB45C
:104960004805202838286A3130524CCC1005EC44D8
:10497000447C483154967C20123CE2198A355024FC
:1049800009EC444850704844E4703DC90333242482
:10499000245006EC6C6C54543C1005EC646454A92F
:1049A000D7EC007450067824242438786118421C0F
:1049B000C01C0544784844920414060000344C405E
:1049C00068336458B43690A4619C7148110C11FD91
:1049D000457411B4116C3A541F13C4441540042893
:1049E00044C4242122413C2B7C440355E04D250442
:1049F00015CE2DE104296615BF21185208011118A2
:104A000021450D106F06BC04FC00101B0614043871
:104A1000443CE335AF640440586480455259401724
:104A200004345B412425BF30047C4040302C041CFE
:104A3000207CC20555EE412473043848353878048B
:104A4000100070A040041000789C1D0404E809C008
:104A5000405C48705048DCC41DCF06250835E07026
:104A6000040000D84859F692381890047840E0784D
:104A700039DE836C30904C073C4438044478EA06B5
:104A800031A8421C3C12CC3B3E4CB40355825DB86D
:104A90000367EC44801124600648303048CC243051
:104AA0000624281810104A677C48803DE3032DDC5B
:104AB000035E0844045D01043DEF03211D5DCC034A
:104AC0008F2458CA03A10CBD8A071C05183C3C3C26
:104AD000AD053D530311C6CC056666662423083038
:104AE000056C6CFE6C044D7903500A7CC6C2C07C18
:104AF0000686C67C31540B0000C2C60C183060C656
:104B000086A35C0A6C6C3876DCCCCCCC76B603BF62
:104B10003060F504112C31015E18B3031109310125
:104B200073183072A006663CFF3C66A373187E6D56
:104B300081149131031100FED87132230206A05F67
:104B4000C08022045809C6C6CED6D6E6C6C63B4F9C
:104B50001838AC0663187E20412F73C6FE1060061D
:104B6000063C0606063010070C1C3C6CCCFEB1520D
:104B70001E7B1DF80683FC0E201338601073C6C61A
:104B80006012FE4041F4718093C67C20210C127E9D
:104B900060B30C78BA91F15110652031CE1536B260
:104BA00006FF8502311C21247170960CE0350154FA
:104BB00006DEDEDEDCC000200710386CC6C6FE91C3
:104BC0005DA3031902127C045E6607032C043C6695
:104BD000C2DB075FC266830323F86C1D5C04666654
:104BE0006CAB03B00BFE6662687868606266FE10AC
:104BF00090046060F0404C06DEC6C6663A030325AA
:104C00001B316F5170463C7E5F1818E3033A1E0E4D
:104C1000194055101007E6666C6C7878754EE6B250
:104C20000A33F0600171709006C6EEFEFED6508029
:104C300007C6E6F6FEDECE6021DF256F936C38E016
:104C40008260A0358C7408C6C6D6DE7C0C0E0021AE
:104C5000E476E6B0740560380C06D0B0047E7E5A67
:104C6000B062C601B27C1090046C3810205FD6D6BA
:104C7000400321201D21031D250361B0254E923CD8
:104C8000502C04FEC6864F036AC2804E3C2F035749
:104C9000303020540B0080C0E070381C0E060240FB
:104CA0004D3F0364040C0C3CCE0D15E9032C0400AD
:104CB00000FF8F030E1018050C7C04780C7CB003E9
:104CC000240500E060606E7C046666DC250C1F7CB9
:104CD000C6DC0969E0121C6A836CCC30395282FE52
:104CE000209406386C6460F060116022762F3404E2
:104CF000CC7C0CD3116084046C7666601D7B04AAA6
:104D000038001C040606004E0321013A6673113078
:104D10003A66015590DA38302D380723FED60171F6
:104D2000104ADCA291A09D700371207A7C0361A0DF
:104D30006DD303B004DC7662C02A7C026D3004249B
:104D400005103030FC8F73361C7031DF9510317FC9
:104D50008E3CC103590181101901A5A849336C0487
:104D60007E060C53032ECC500559001E0E480B2214
:104D700070F47E0EF9042DAD056E187F05211C21FF
:104D8000245E182709EF76DC0A053DE203000434AF
:104D9000C6FE0001D00402000702B20202812459BB
:104DA0009120040039C002231080020126662004ED
:104DB000018031024005E03F80F10AC10C9E80EC89
:104DC000051300060210073FC06660C63002200FC0
:104DD00000C60066003E000F8007C0066006121184
:104DE00016200566603FC0265D620610110048204F
:104DF000CC60CC40CCC0CC80CD804B0032425C1625
:104E000004000C0009801A40366026606660466027
:104E1000C660824001220630061C002200420210B9
:104E2000046400283E1C10380048004C00C400C632
:104E300070C320C320C10D057C06C1C067603CB0B3
:104E400006C518051D4F100B200040008001800191
:104E50000003020211060221181601101300802A15
:104E60002DE20E1DC7081E18A10F120CB201123040
:104E7000211812082232105B6524100404000E026F
:104E80003C08C460E4E064C011BA0F20091100645A
:104E9000C0E4E0C460180E15040C08615460057F7E
:104EA000E07FE090092E3010040C001E02320E9AB2
:104EB0000E151889042160023700014162860C52E8
:104EC00016605466C0565602DE451482301F7D7748
:104ED0000D28050E001B006E1F60C0AB07C26002EC
:104EE0002105297098041B000E700404131E007E17
:104EF0007CA588673FC0E3121F5E1C0560C0E060B0
:104F0000BA041D1D10119A5405C0018003101C0421
:104F1000300070A40E7406E020FFE0FF021E0F3286
:104F200003300670E07060302E212C10050E000357
:104F300080B3213E1D4905114A9C05E071C03F2CFC
:104F4000031203021C0C078005800D800980198064
:104F5000112003180B218061804180C180FFF05C2B
:104F6000310272076030057FC07FC04B315150085D
:104F70006700698070C0405E31608006C0E0C0712B
:104F80008060100B1F00338061C061C0C180BB2CEA
:104F90000700CF00D180E0DE0FD524961FCEE809B0
:104FA000FFE0C060804080C0DAB20C02C520414DF5
:104FB000456A4532A162A160613091201515340423
:104FC00031601E209008306070C070C0393085B8E4
:104FD000120F02021706100124303207CECE0C1435
:104FE0000BC660D425E51A606C3E18A4031DC003EF
:104FF00045BE091DFA0D18060301134EF1727940E2
:1050000014048018C00611025A206E4D08030D16B4
:10501000A0051C041F0020AC10B00880208F209930
:10502000A0B1023C05BFA09CC079041DEC0FAF1FCE
:10503000807005120B021209021A19702DDA051080
:105040000630C030C03F044F20408F091D4F097DFE
:1050500030077406FE00630061E21C046180633E59
:1050600003676380B93E60640388046180FF703F1A
:1050700020312D031EC0AE0F0111023132A97091F3
:105080006001120151748D110B4EFF8B031DF31340
:10509000100460006102200463007F421102394164
:1050A00021181D05038D9003011D305D48038DDF20
:1050B0000820041E40338C2E40550341B43EC131BC
:1050C0000361017C0861C063C036C01C2004DFF1AD
:1050D000E075042DA003F1027EF1C0032F1FE02C28
:1050E00006011E027E1F50046F07E0040401100237
:1050F0001E6160071EE128041E6734076D04161048
:1051000004F3E061181263E8126602126C022D4685
:10511000111276022114211C319075E0B6F008F1CD
:1051200002F5501DDB0435991DE40431021C087999
:10513000E0696069606F7807210209104036E1205C
:105140002DD603140E70C078C068C06CC064C066F1
:10515000C062462D96044E6103041D1714CD7005E0
:105160000511430D155004FAFE8EF00463807EC8CD
:105170000324F000601ECC3C088009636031C01E2F
:10518000C0007060BD0003115E2556255E85528506
:10519000E01C041E407352081D62051D54101DD2F0
:1051A000151D80082E0E760424068001C000E07BC9
:1051B0008808E060F0C0D9808FD00C0A1AF0E67041
:1051C000C6308610861090068DC003091070051039
:1051D00023AD6003A1306D80094D140741022D5AA3
:1051E00008AD4408CFF0F08803632640021A36F871
:1051F0002F36C034042D3804C1302D42042D4E0406
:105200004D74054D6C05212A2D5A04CD5004813072
:10521000413281340114F01EFFD0065C06C1C0810A
:10522000808388062D86063E1836052D38051F60BA
:105230002068041D9F074DF00300052807E00400C7
:10524000022D54072DDB051E40EE051E20F0056DD6
:105250009A091E04F6058E02B80961212D2E0EDD75
:105260002E0B011C025E7E7606250600064D606050
:10527000402000011C06FFF018003C040703380121
:10528000C0441A3FC01EF0BA072C0600C00FC03839
:1052900042093DFA177C04E3C03EE711BEE0280551
:1052A0001C046F00797008BDAC051DD8030C0415F3
:1052B0007980CF210B1D3E0919F32E6173085D0E15
:1052C000062D05098F30C09006C1615F1F603E0644
:1052D000CD1E08000417E01F20607DFA091DB808E4
:1052E000011160280907C00CE018E01840341E18AE
:1052F000350F0213180206157E201C063E6063E07F
:10530000C18A091EC152051E3EA8073C067800CF7F
:1053100080C1BC0804051060C03F80201C056700E8
:105320006D80F51A0D190006CD98080E1F1EF003AA
:105330001C040300071E0A6203CE0D1706065E63F7
:105340000406C1901E630E062D0A061E6CB6070EDB
:105350001476B0040D1F0C0BC190CD721C4C05EDE2
:10536000C07FE0FA05C1020314F77030061FE72082
:105370000518E00D14B00ACD021DCAEFA0399CFE3D
:105380006FE407BE00EE077A61F81DCA082FC0332C
:10539000FC053DAB080E1101D0090C0918E7806C23
:1053A000C078E070C06006FD60035D0C061E78AA40
:1053B000096E030406593C7DE7197988FBFFC09C00
:1053C0000407156018600CC00780F6E14A5DA0086C
:1053D0000D158C0A4D0E06AD0206ED0006C1304DCE
:1053E0000E062DDA074DFE05FE3F00060114606D26
:1053F00058065E1BA0030219F1901230306D3C0676
:105400005E07B40E12CC020E13786C0E1E409B0980
:10541000BDAE0B3D02064D00060F1001E0860F4D9C
:105420002E060D106E0F1D8A0B0A22E0FAAD160E25
:10543000021478484E80CC0BE1780112C01D571938
:105440001D5B180F1CC360B4052D9E0614040E00CE
:105450000AA01E11DC0E1E201E0B634040E40195C5
:10546000010215E003021B4003DDBB141DDA1F32ED
:10547000F0030E1E60FC0612E303140F8001E780A8
:1054800001C700038E00071C0006E41DCA201D6032
:1054900011026240EFE302010340047FFFC00300FA
:1054A0000413040200037121000410080400030522
:1054B0001D5F6547100E01F800074C000E46000CFA
:1054C00047001C031C054F001C4EB30C1C07000EAC
:1054D00040000F40EC062D63042E01C81E3DFC1D4C
:1054E000300A5C00005E00004F00002D323C0312C9
:1054F0003803040B1B4600184E000C580003F08FB5
:105500009D0807100B3C0200660600420400C3031E
:10551000300B0C00C30800C31800C3100322200383
:105520001C084260006640003C0808100999800091
:1055300098800130C00330050330C00203320403F9
:105540001208031C04108018740E0E260F1E121D64
:1055500032051C050C6000083F0FA1031E20160534
:105560001C07001C40000D80FF081C1F000E1F8040
:105570001E0600370600670600638600E38400E12C
:10558000C400E1CC00E0E800E078B00C0C0D1D0098
:10559000703820703C20384E400F87C3141D3418DB
:1055A000321F0311573203031D13151D73231DA151
:1055B0001E0E5C3040033620E12E802B1411793210
:1055C000068B1D891C321C7C3238031D321F0215CC
:1055D0007003623024321833320C3F4206C4315417
:1055E0002D6110021320761DB320320832A12F2D19
:1055F0009F046EC0C603021860786E60EA031976D5
:1056000032C0BCC1BF021318760D134614C1631C0F
:105610000E3861E03E23E01F27C007AF0001A31F43
:10562000222006110C11121118E4043C30E002058E
:10563000407F0115031E3F5B0C01181E0D736C05A6
:10564000095BA61DC2040D8B590671ED9F1F00C694
:10565000150D1A29055EC0480366011B3E06C403EA
:105660003A0CE93A18F26610E04D580532803202E1
:105670001A00323E30A3030E1D6027052D4F111C6A
:1056800005038C0007F61A200907000C03001C0311
:10569000800300061C01803801C0031124412D1134
:1056A00036113C1D381B11480D17570A0D10211FCC
:1056B00041A30C0518700007F0AE030125031D631C
:1056C000060E26FFEB191D9006100D061E0018078A
:1056D00000100700300380036238032DC8046E07F2
:1056E000CB046A1C9E3E602C046D26041009060043
:1056F000800C00801801391D690321030D2618064E
:105700001FF000231D1D461B123003300407003814
:1057100003118721724D3A053E3808073E1C8A0462
:105720006E07DB048004038018A2213911423F0C6C
:105730001C08070D25AF186E04970511031DD11C19
:105740001F2C004D1A1DAC0A1C0B008C00010C0014
:10575000030C0002401031031E0821181F0C00CB5F
:10576000241F200CFB072EE09405D10319DA0D2726
:105770006C0310040FFF80033E08AC0571036A1030
:10578000CC240911F80013FC00160E89250531EA16
:10579000D1F03630A4022E10F01C047E00017A11E4
:1057A00028040380069A7E8092065D9506E80EFC2A
:1057B0000039FF003B0F003E03803C03E52A18D66A
:1057C00029D9220E3FAC04000386C629011FF0121E
:1057D000C0031B0C011C7C060010030010C603A1B3
:1057E000FA7D940339557103F201030E270022114B
:1057F0002D6606130700B11103521CC02103200CB3
:105800001E01C00F03800F830007E624180C037CE1
:1058100000063F000C0F001C07F1FDCC033DC60342
:105820001D0504022701F02DD8091E0C2B1F1D3267
:10583000042D3504433801039D35047C1103C03C1D
:1058400003C01C07C01F0DC00FF9C003E16F075D47
:1058500075071C061C07001C0ED01F0C0643000C0D
:105860003800072A0C3D0B045103023F70270D310D
:105870004B0C0D2B780CCA600A0D1921067D6309AB
:105880000E140C95044DB8087D12095D3E093E606A
:105890000406E1190D416D0C0D1671070D438907C2
:1058A000022610C90622C0170B291000D01E065B65
:1058B000051F0300800430051001C03003323C0393
:1058C0001E1CD40B3E07B90B3A1C3D5EE0B20781AB
:1058D000039D3A1B1D84110F2901E0C0032DB00464
:1058E0001EC340191C05800600407B051007080FE9
:1058F000A0183190031005106110300322C3036318
:1059000031830310068210318620031C09118A603E
:10591000188BC0187361052DB1051C0504006002C9
:10592000FF110F17830017140D10B80E3D000F2143
:10593000AE5270031202035238031DCB2853041CCD
:10594000031D7F052006080E000FFE0611091D919C
:10595000054E109A051D41073C0407002044070F1F
:1059600026F80F511F3F7FF8F6036E076A08A10360
:105970001D11041D5004A0041C001F24BE01D704E7
:105980005DE00441300C05270E007FFC7D161C09EC
:10599000F880038780060180A3051F1C00B5122331
:1059A0004038030D1AA40C4D320C52382A100480D2
:1059B00018008D1D6A050C042900070428051D70B8
:1059C0001D731C18CF8D60090111D5B103F5170C9B
:1059D00006280C001C3800B820677FFF3E11B74C2A
:1059E0000600C01C00400308631C040330050C00C3
:1059F0001FFC577112A2000332400335800C0427AC
:105A000003807FE808137FFF3062C0725005601C7E
:105A10000020786202031D2C1932FED27112021787
:105A200000030E287FC0031C04F10003CA191006EE
:105A300003000C0100F615AD15B30517E09C071F18
:105A4000F07003C070FF095E18CB0A2D47070D2BBD
:105A500008070804117F0FE0CAC9D900041F1FFFFF
:105A60008024412A0E277F48031D5D090D3E370B18
:105A70009DBE0E0E270F400B1E035E0E0519B101D1
:105A800030031270031C043800701E1B0E1760B523
:105A90001735681DA608394039BB1C091C08001CB5
:105AA00010001C30C92F2D58111DDE1E1D4116106F
:105AB0000B1DE0001FF0001E70001C033238033283
:105AC0001C033E1E6A082DFD082D00091D03090553
:105AD00028681D3419033A0E00033220030C0927ED
