:020000040800F2
:10000000908200206D02000875460008094400082F
:1000100071460008C5190008AD580008000000002E
:100020000000000000000000000000008F4E0008EB
:10003000291B0008000000005D4E00088502000832
:10004000870200088702000887020008870200086C
:10005000870200088702000887020008870200085C
:10006000870200088702000887020008870200084C
:100070007D1A00088D1A00089D1A0008AD1A0008A4
:10008000BD1A0008CD1A0008870200088702000880
:10009000870200088702000887020008870200081C
:1000A000870200088702000887020008870200080C
:1000B00087020008855000088702000887020008B0
:1000C00087020008870200088702000887020008EC
:1000D0008702000845570008B55700082558000852
:1000E000870200088702000887020008000000005D
:1000F0000000000000000000000000000000000000
:1001000000000000000000008702000887020008CD
:10011000AD5200088702000895500008A55000085D
:100120008702000887020008DD1A0008870200081D
:10013000ED1A0008870200088702000887020008FD
:10014000870200088702000887020008870200086B
:1001500000F002F800F07AF80AA090E8000C82445F
:100160008344AAF10107DA4501D100F06FF8AFF23C
:10017000090EBAE80F0013F0010F18BFFB1A43F085
:1001800001031847EC6000000C61000010F8013B0F
:100190000A4413F0030408BF10F8014B1D1108BFF7
:1001A00010F8015B641E05D010F8016B641E01F8A5
:1001B000016BF9D1002D15D010F8014B03F00C03A1
:1001C0000C2BA1EB04040ABF10F8013BA4EB831431
:1001D000A4EB032405F1010314F8016B5B1E01F885
:1001E000016BF9D5914238BF10F8013BD1D370476C
:1001F0000023002400250026103A28BF78C1FBD830
:10020000520728BF30C148BF0B607047662905F010
:10021000B087652905F0AD87672905F0AA876129B0
:1002200005F0A987642900F01D81732900F031864B
:10023000002070471FB500F031FE040000200021AF
:1002400005F0B6FCE0601FBD10B510BD00F022FF48
:100250001146FFF7EFFF05F039FC00F040FF03B453
:10026000FFF7F2FF03BC05F0DDFB00000948804703
:1002700009480047FEE7FEE7FEE7FEE7FEE7FEE788
:10028000FEE7FEE7FEE7FEE704480549054A064BA0
:10029000704700002150000851010008907C0020A8
:1002A00090820020907E0020907E0020704753EACC
:1002B000020C00F069802DE9F04B4FF00006002B96
:1002C0001FBFB3FA83F503FA05F424FA05F65E407E
:1002D00012BF1643B2FA82F502FA05F4C5F1200501
:1002E0001EBF22FA05FC44EA0C04203556EA044CF1
:1002F0004FEA144418BF641C4FF000084FF0000987
:10030000904271EB030C39D3002919BFB1FA81F780
:1003100001FA07F6B0FA80F700FA07F6C7F12007EE
:100320001EBF20FA07FC46EA0C062037B6FBF4FC99
:10033000A7EB0507103F07F01F0BCBF120060CFAC7
:100340000BFB2CFA06F644BFB3460026202FA4BFB1
:100350005E464FF0000B5BEA060C08BF4FF0010B46
:1003600019EB0B09ABFB027C48EB0608C01B06FB34
:1003700002CC0BFB03CC71EB0C01C1E70B46024630
:1003800041464846BDE8F08B13B54FF000004FF0F2
:100390000001AFF30080BDE81C4070470FB41CB5EE
:1003A000074B06AA7B4469460090059800F047FD7C
:1003B0000020694600F056FD1CBC5DF814FB0000EF
:1003C000BD0A000070B5044685690068C10601D504
:1003D000302600E02026C00707D070BDD4E90121F7
:1003E00030469047206A401C20626D1EF6D570BDD5
:1003F00070B5044685690078C00707D170BDD4E99F
:10040000012120209047206A401C20626D1EF6D5F5
:1004100070BD70B50C460546012A05D028788006C7
:1004200000D5EA69002302E0012305E05B1C93424A
:1004300002D2E05C0028F9D1A869E618C01AA861C8
:10044000286A184428622846FFF7BCFF04E0D5E973
:10045000012114F8010B9047B442F8D32846FFF766
:10046000C7FF70BD2DE9F0410646002410687529CC
:10047000314616A510D0AFF30080002802DA4042C2
:1004800013A507E031688A0701D512A502E04907E4
:1004900004D511A5012401E0AFF3008000210A2258
:1004A00006F1240709E0B0FBF2FCB0FBF2F302FB1B
:1004B0001C00303078541846491C0028F3D12346DC
:1004C0002A463046BDE8F04100F0D0B800000000F8
:1004D0002D0000002B000000200000002DE9F05F3F
:1004E000894604464FF0000ADFF874B1FB44C0F8B7
:1004F00020A02046E1688847002874D0252806D02F
:10050000D4E901219047206A401C2062F1E70026CF
:100510005F462046E16888472028054607DB312DE5
:1005200005D2781910F8200C08B10643F1E7B0079E
:1005300001D526F00406C4F81CA00027C4F818A0B2
:100540002A2D09D0284605F066FA38B304EB87084F
:10055000303DC8F8185019E059F8041B204604EB48
:1005600087029161E1688847012F054618D1E0694B
:10057000002820DA26F020061DE0D8F8180000EB4D
:10058000800005EB40003038C8F818002046E168CC
:100590008847054605F03FFA0028EED1012F0AD022
:1005A0002E2D08D12046E16888477F1C0546022F82
:1005B00046F02006C4DBA069002803DA404246F07A
:1005C0000106A061F00701D026F010066C2D0BD0BB
:1005D000682D09D04C2D39D06A2D35D0742D35D0E9
:1005E0007A2D33D016E038E0E1682F462046884760
:1005F000B842054609D16C2F26D04FF48060E168DF
:10060000064320468847054604E06C2F1AD04FF475
:10061000807006430DB3A5F14100192802D820359A
:1006200046F400664A462946204626604E46FFF7B5
:10063000EDFD80B101280BD0F61D26F0070000F17A
:10064000080956E74020E4E78020D8E70020D6E7F5
:1006500006F104094DE7284652E7206ABDE8F09FFD
:10066000A25C000070477047704770472DE9F04763
:100670000D4699469246044600F124080168880612
:1006800004D5E06921F01001216000E00120A842BA
:1006900001DD471B00E00027A1697A1902EB090080
:1006A000081AA0612078C00602D42046FFF78AFE0F
:1006B000002608E0D4E901211AF806009047206AD4
:1006C000401C761C20624E45F4DB2078C0060AD51B
:1006D0002046FFF777FE06E0D4E90121302090475D
:1006E000206A401C2062381EA7F10107F4DC07E0F5
:1006F000D4E9012118F805009047206A401C2062C7
:10070000281EA5F10105F3DC2046FFF771FE2078D5
:10071000000602D50220BDE8F0870120FBE7704704
:100720002DE9FF4F0C461E464FF0FF378BB0D2E944
:100730000001DDF860800A908A46C1F30A5505B9C8
:100740003D46002108464FF00000BAF1000F00F4CA
:10075000400005DA00EB80004FF4400101EA500050
:100760004FEA9059B9F1010F00DDB9460A9850EAF5
:100770004A000ED044F61050A5F2FF3545432F1421
:10078000B8F1000F1ED07542291E1EDDC9F100020E
:100790001CE0B8F1010F4FF0000001D0302103E060
:1007A000F24305E02154401CB042FBDB30460022FE
:1007B000002121540B99C1F80880C1E900200FB035
:1007C000BDE8F08FBD1B6D1CDEE74A4600DA6942CA
:1007D00006A800F0EDFB06AB93E8070003AB83E847
:1007E000070050460A9900F0C3FC8DE80700A0F509
:1007F00000501F3800900398002D09DD42F21F01C0
:100800004A46084403A90390684600F022FF08E026
:10081000A0F500504A461F3803A90390684600F02F
:100820002CFF8DE807000004000C03D04FF0FF30D0
:10083000410800E01046B8F1000F03D000220092FA
:1008400015461EE0751E05D400F02CFB30326255B3
:100850006D1EF9D5B3460122084302D000227F1C49
:1008600004E02078302801D100227F1E002A099759
:1008700086D01DE0112D07DA00F014FB30326255EE
:100880006D1C50EA0102F5D1084302D00098C8B1AE
:100890000EE00021681E05E0235C625C6354225474
:1008A000401E491C8142F7DBAB46A81B401E099045
:1008B000002004F80B000B98099AC0F80880C0E9E2
:1008C000002B7CE711264FF0000859E72DE9F04F87
:1008D00088460446D21D22F0070191B0D1E90001FB
:1008E000CDE90A0105F083F802460B98C00F01D04C
:1008F0002D2007E02068810701D52B2002E0202170
:1009000001EAC000032A099001D0072A05DB03464B
:100910004146204600F00CFB0BE12078800601D513
:10092000E06900E00620B8F1650F814606D0B8F115
:10093000660F18D0B8F1670F70D131E00020B9F11F
:10094000110F009001DB112301E009F101030AAA54
:1009500001A90CA8FFF7E4FEDDE90C70002609F1FF
:100960000105834647E001204B4600904FF00047C9
:100970000AAA01A90CA8FFF7D3FEDDE90DB00C9976
:100980005D46002610B909F101000D18B9EB05000C
:1009900003D4C0F1FF3609F10105A5EB09002BE0F6
:1009A000B9F1010F01DA4FF001090020B9F1110F7F
:1009B0000090484601DD112300E003460AAA01A980
:1009C0000CA8FFF7ADFEDDE90C704D46002683460E
:1009D000207800070AD4AB4500DA5D4601A8012D56
:1009E00004DD411911F8011C302907D04F4502DA06
:1009F00017F1040F04DA012082460FE06D1EEEE7C6
:100A0000002F02DCED1B3E4403E0781CA84200DD11
:100A10007D1CB81B00F1010A4FF000472078000749
:100A200003D4AA4501DB4FF0FF3A0021B7F1004F94
:100A30000DF143088DF8431024D002202B23002F02
:100A400001DA7F422D230A21021EA0F1010000DC01
:100A50005FB197FBF1FC97FBF1F201FB1C7C1746A1
:100A60000CF1300C08F801CDEEE7A8F1010003709D
:100A70002188090501D5452100E06521A0F1010883
:100A800000F8011C09980FA9A1EB0807FF1D00B190
:100A90000120411901EBEA70A1693844081A401E8F
:100AA000A0612078C00602D42046FFF78BFC09988D
:100AB00028B1D4E901219047206A401C20622078A7
:100AC000C00622D52046FFF77DFC1EE0002E04DB89
:100AD000B34502DD01A8805D00E03020D4E90121AA
:100AE0009047206A401C2062761CAAF101005FEA50
:100AF000000A0AD100F0D2F9C0680168405CD4E96C
:100B000001219047206A401C2062281EA5F10105A2
:100B1000DCDC07E0D4E9012118F8010B9047206ADA
:100B2000401C2062381EA7F10107F3DC2046FFF7C6
:100B30005FFC032011B043E62DE9F04F04460D465B
:100B4000D21D22F0070089B0D0E900974846394607
:100B500004F04DFF0246F80F01D02D2307E0206876
:100B6000810701D52B2302E0202101EAC0038DF883
:100B700020300BB1012000E00020032A824601D082
:100B8000072A04DB2946204600F0D2F93FE120780D
:100B9000800601D40D2500E0E569C7F30A560D2D46
:100BA00049DA00214FEA175B08464FF00000002F9A
:100BB00000F4400007DA00EB80004FF4400100EB46
:100BC000D07001EA60008115012901DD4FF0FF318D
:100BD00000224FEA850CBCF1180F06D31346ACF186
:100BE00018004FF08052C24003E04FF4801323FA04
:100BF0000CF30CF10C0CBCF1200F04D3ACF1200C65
:100C000009FA0CF001E007FA0CF000294FF0004857
:100C100001DD18B90FE00ED140450CD319EB0209E4
:100C20005F4121B9404502D19F4329EA0209BBEB4C
:100C3000175F00D0761C2088000502D57B487844D9
:100C400002E07A487844193808AA302302F80A30BA
:100C5000037C0AF10101002E0AF1020A53546A468C
:100C600002DC4FF0300101E04FF031014FF001089C
:100C70008DF8001002D0A6F2FF3603E059EA4701D2
:100C800000D06B4E002D02DC2178090704D54FF00F
:100C900002082E218DF80110C44600210BE0C7F395
:100CA00003433F01C35C491C6D1E02F8083005294F
:100CB00008F1010801DA002DF1DC00210CE000EB65
:100CC0001973491C1B786D1E082902F808304FEA79
:100CD000091908F1010801DA002DF0DC21688B0602
:100CE00002D516E0A8F10108E04505DD02EB080396
:100CF00013F8013C302BF5D0B8F1000F09DD02EB01
:100D0000080313F8013C2E2B03D1090701D4A8F1E5
:100D10000108002D05DD3E2102F808106D1E08F1C6
:100D20000108407C002E02F8080008F1010804DAEE
:100D30002D20764202F8080002E02B2002F808007D
:100D40000A214FF47A70864208F101080BDB96FB0A
:100D5000F0F3303302F8083096FBF0F308F10108A5
:100D600000FB136601E0642E0CDB642096FBF0F3BD
:100D7000303302F8083096FBF0F308F1010800FB6D
:100D8000136601E00A2E06DB96FBF1F0303002F824
:100D9000080008F1010896FBF1F001FB106030300B
:100DA00002F80800A16908F1010808EB050202EB4E
:100DB0000A00081AA0612078C00602D42046FFF776
:100DC00001FB216A08AE01EB0A00206204E0D4E9CD
:100DD000012116F8010B9047BAF1010AF7D22078E9
:100DE000C00602D52046FFF7EDFA6E4609E016F878
:100DF000010B3E280FD0D4E901219047206A401C06
:100E00002062B8F10108F2D22046FFF7F1FA09B0EA
:100E10000320BDE8F08F206A2844206203E0D4E973
:100E20000121302090476D1EEBD3F8E77455000088
:100E300002FCFFFF01694A1C02610878704700B597
:100E40008FB0CDE901310021059105497944CDE903
:100E5000031011466846FFF741FB0FB000BD0000CC
:100E6000E5FFFFFF0A6802F8010B0A60704710B542
:100E7000436913B1AFF3008001E0FFF7CAFA012024
:100E800010BD127800F124010A7000224A7001227C
:100E9000EDE711684FF0FF32E9E7000000487047C6
:100EA0004C7C002030B5B0F10A024FEA900E71F18F
:100EB00000034EEA817EB0EB0E0061EB91014FEA38
:100EC000101E4EEA017E10EB0E0041EB11114FEAAD
:100ED000102E4EEA016E10EB0E0041EB11214FEA8D
:100EE000104E4EEA014E10EB0E0041EB114140183E
:100EF00041F100014FEAD00040EA41704FEAD101D0
:100F000010EB80054FEA810444EA907444EB01043D
:100F10006D1944EB0404521BA3414FF0000348BF7A
:100F20000A3200D530BD401C41F1000130BD000047
:100F30002DE9F0411F46044603260168072A01F403
:100F4000006004DB08B116A505E016A503E008B1B2
:100F500015A500E015A521F010002060A069C01EB5
:100F6000A0610FB1401EA0612046FFF72BFA4FB1E0
:100F7000D4E9012138469047206A401C2062C01CF9
:100F8000206206E0206AFAE7D4E9012115F8010B96
:100F90009047761EF8D22046FFF72AFABDE8F08186
:100FA0004E414E006E616E00494E4600696E66000D
:100FB0002DE9F047814616468AB0334878440DC87B
:100FC0008DE80D0030487844801C03AC0DC884E8DF
:100FD0000D0041F69B300844372190FBF1F290FB65
:100FE000F1F5A5F1800501FB12041B3C02D564421A
:100FF000012000E00020DFF890A080460027FA449E
:10100000AAF1BE0A0DE0E00709D03246684607EBB8
:1010100047010AEB810100F030FB8DE80700641006
:101020007F1C002CEFD1184F7F44AC3F18E0E8073D
:1010300014D007EB04100DF1180A90E80E008AE8AE
:101040000E00C068F04201D198190890324606A9F6
:1010500003A800F012FB03AB83E807006D10641CCB
:10106000002DE4D132466946B8F1000F03A802D042
:1010700000F0EFFA01E000F000FBC9E90001C9F857
:1010800008200AB0BDE8F087885200000048704789
:101090002C7C00207546FFF7F9FFAE460500694637
:1010A000534620F00700854618B020B5FFF7ECF84E
:1010B000BDE820404FF000064FF000074FF0000859
:1010C0004FF0000B21F00701AC46ACE8C009ACE8DA
:1010D000C009ACE8C009ACE8C0098D46704710B53E
:1010E0000446AFF300802046BDE81040FFF7B7B8D4
:1010F0004FF0013C50F8042B51F8043B9A4221D1A7
:10110000A2EB0C03934313EACC1317D150F8042B32
:1011100051F8043B9A4215D1A2EB0C03934313EA16
:10112000CC130BD150F8042B51F8043B9A4209D14F
:10113000A2EB0C03934313EACC13DBD04FF0000077
:10114000704700BFD01A01BAB1FA81F101F018015D
:1011500022FA01F0CB40C1F12001DBB2C0B2C01ACB
:101160002CFA01F3D11A914311EAC311E6D1704769
:101170005FEA400C08BF91F0000F4FEA8C234FEA62
:10118000C12243EA51514FEA1C5018BF00F5F0400C
:101190004FEA300018BF41F000415FEA6C5C00F09C
:1011A0002980BCF1FF3F08BF40F080407047130C1E
:1011B00006BF12044FF0100C4FF0000C130E04BFCA
:1011C00012020CF1080C130F04BF12010CF1040CF5
:1011D000930F04BF92000CF1020CD30F04BF520016
:1011E0000CF1010C11464FF00002A0F11F00A0EB22
:1011F0000C00704711F0004F08BF704731F00041FC
:101200003FF4D5AF0B0C06BF09044FF0100C4FF0A4
:10121000000C0B0E04BF09020CF1080C0B0F04BFED
:1012200009010CF1040C8B0F04BF89000CF1020CB6
:10123000CB0F04BF49000CF1010CCCF12003A0EB53
:101240000C0022FA03F302FA0CF241EA030100F166
:101250000100704720F07F4C80EA030023F07F47B5
:10126000ACEB070303F57C5300F0004003F1FF03F0
:101270002DE980494FEA154B09B44FEA144325EA9A
:101280000B4E24EA03480FF2042606EB1327490805
:101290003E785FEA320203FB0667C7F5000707FBEB
:1012A00006F64FEA54374FEAD64606F1020607FB28
:1012B000066CCCF1005C4FEA1C472CEA074C07FB9C
:1012C00006F40CFB06F504EB15464FEA961634BF00
:1012D00000204FF000404FEAD13706FB07FC4FEAF1
:1012E0001C4C0CFB0BF7D21B03FB0CF761EB07014B
:1012F0000CFB0EF7B0EB074072EB17420CFB08F744
:1013000034BFA2EB0742B2EB074261EB17414FEA51
:101310000C444FEA910706FB07FC4FEA1C4C0CFB00
:101320000BF7B0EBC74072EB573203FB0CF734BF3F
:10133000A2EBC742B2EBC74261EB57310CFB0EF791
:10134000B0EBC70072EB57720CFB08F734BFA2EB8F
:10135000C702B2EBC70261EB5771039F4FEA81618D
:1013600041EA921104EBCC044FEAD1374FEA826292
:1013700006FB07FC42EA90124FEA80604FEA1C4CE1
:101380000CFB0BF7D21B03FB0CF761EB07010CFB0B
:101390000EF7B0EB074072EB17420CFB08F734BFB7
:1013A000A2EB0742B2EB074261EB17414FEA8C55C3
:1013B0004FEA910704EB9C2406FB07FC4FEA1C4C08
:1013C0000CFB0BF7B0EBC74072EB573203FB0CF78B
:1013D00034BFA2EBC742B2EBC74261EB57310CFB03
:1013E0000EF7B0EBC70072EB57720CFB08F734BF77
:1013F000A2EBC702B2EBC70261EB577115EB4C25AC
:101400004FEA816141EA92114FEA82624FEAD13795
:1014100042EA901206FB07FC44F100044FEA8060A8
:101420004FEA1C4C0CFB0BF7D21B03FB0CF761EBD8
:1014300007010CFB0EF7B0EB074072EB17420CFBF9
:1014400008F734BFA2EB0742B2EB074261EB17414A
:1014500015EB1C154FEA813141EA92414FEA823285
:1014600042EA90424FEA80304FEA0C7644F10004A1
:1014700048EA03434EEA0B484FF0000EB2EB080C6B
:1014800071EB030724BF624639464EEB0E0E4FF058
:10149000000B0018524149414BEB0B0BB2EB080C0F
:1014A00071EB03077BF1000B24BF624639464EEB1C
:1014B0000E0E4FF0000B0018524149414BEB0B0B45
:1014C000B2EB080C71EB03077BF1000B24BF624603
:1014D00039464EEB0E0E51EA020718BF46F00106E0
:1014E00016EB0E7655F1000254F1000103D5BDE86C
:1014F0008901BDE80088BDE88901BDE80048B6194A
:10150000524141EB0101A3F10103704780807F7ECE
:101510007D7C7B7A79787776767574737271717069
:101520006F6E6E6D6C6C6B6A6A696868676666651B
:101530006464636362616160605F5F5E5E5D5D5CA9
:101540005C5B5B5A5A59595858575756565555551A
:101550005454535352525251515050504F4F4F4E7A
:101560004E4D4D4D4C4C4C4B4B4B4A4A4A494949C8
:10157000484848474747474646464545454444440A
:10158000444343434342424242414141002B26D41B
:10159000770021D01CB54FEA370703B44FF0100095
:1015A0004FF010014FF000000FBCBDE810400BF1F0
:1015B000010BBBF1010F08BF5FEA170722BF12F151
:1015C000010211F101014FF0004143F1000300F06D
:1015D000004043EA00007047F9D35708DAE746EACB
:1015E000064613F1400F4FEA16461FDD13F1200F98
:1015F000DFBF16430A46002120335B42C8D0C3F147
:10160000200746EA064602FA07F74FEA164646EA78
:101610000706C3F1200722FA03F201FA07F721FABD
:1016200003F14FF0000342EA0702B1E746EA02067F
:1016300046EA06464FEA164646EA0106BCBF46EAB7
:101640000646360C4FF000034FF000024FF0000149
:101650009EE72DE9C048934630B491E8380007C8AA
:1016600031EA400C48BF34EA430C03D5FFF7F2FDE2
:10167000FFF78CFFF0BCBDE800882DE9C048934619
:1016800030B491E8380007C810F0804F08BF13F05D
:10169000804F03D100F005F8FFF778FFF0BCBDE8FC
:1016A000008820F07F4780EA030023F07F4C07EB9F
:1016B0000C03A3F57C5300F00040A3F1FE0392F06D
:1016C000000F00F0B38095F0000F00F077802DE957
:1016D00001494FEA11404FEA144621EA004800FB55
:1016E00006FC24EA064708FB06F607FB08F800FBA1
:1016F00007F718EB06484CEB164C4FEA124B18EB69
:1017000007484FEA15464CEB174022EA0B4E0BFBFD
:1017100006FC25EA06470EFB06F607FB0EFE0BFB52
:1017200007F71EEB064E4CEB164C4FF000061EEB77
:10173000074E4CEB174B18EB0B0840F1000018EB71
:101740000E0B58EB000840F100008F1A4FF000011B
:101750003CBFC943661B14BFB5EB040C00213CBF62
:10176000C943F61B4FEA17444EEA8E0E27EA04459A
:101770004FEA1C4704FB07622CEA074C05FB07F7FE
:101780000CFB05F604FB0CFC16EB074642EB17427C
:1017900016EB0C4642EB1C421BEB060658EB020212
:1017A000414146EA9E0601D5BDE80189B61952417C
:1017B00041EB0101A3F10103BDE801894FEA1445A2
:1017C0004FEA114724EA054621EA074C05FB07F4D6
:1017D00006FB07F70CFB06F105FB0CFC11EB0741C0
:1017E00044EB17444FEA124711EB0C4144EB1C4405
:1017F00022EA074C05FB07F206FB07F70CFB06F68F
:1018000005FB0CFC16EB074642EB174216EB0C46A9
:1018100042EB1C456A1854F1000148BF7047B619E5
:10182000524141EB0101A3F10103704795F0000F14
:1018300037D04FEA11424FEA144721EA024624EA20
:10184000074C02FB07F106FB07F70CFB06F402FB53
:101850000CFC14EB074441EB17414FEA154714EB1E
:101860000C4441EB1C4125EA074C02FB07F506FB43
:1018700007F70CFB06F602FB0CFC16EB074645EBE4
:10188000174516EB0C4645EB1C42121951F10001AD
:1018900048BF7047B619524141EB0101A3F1010362
:1018A00070474FEA14454FEA114724EA054621EAFA
:1018B000074C05FB07F106FB07F70CFB06F24FF0A0
:1018C000000605FB0CFC12EB074241EB174112EB43
:1018D0000C4251EB1C4148BF7047921841EB01018B
:1018E000A3F10103704700002DE9F04704460D46BF
:1018F00016464FF0000AD046C1463BE02046E117AD
:1019000004EB9171C1F3870716F80800203800F046
:10191000FF0A3D2F08DD00242046E11704EB9171FA
:101920008F1005F11000C5B207F11D02D1B2521E91
:10193000D0B203F0ADFA05F10F00C1B2284603F0B2
:10194000B7FA03F0C5FA4FF0000909E009EB0A11F4
:101950000B4A505C00F038F809F1010000F0FF0973
:10196000B9F1100FF2DB08F1010000F0FF0804F1FB
:101970000800C4B216F808000028BFD1BDE8F087FF
:101980001008002010B50C480078012812D10B482F
:101990000078401C0949087008460078022809DDD3
:1019A000002008700449087000224FF48041044868
:1019B00001F05AF910BD0000880000208A000020C4
:1019C0000014014000BFFEE72DE9FC410646354604
:1019D00000244CE005F0C008B8F1000F09D0B8F1C0
:1019E000400F0AD0B8F1800F0BD0B8F1C00F10D162
:1019F0000BE0002001A908550CE00F2001A90855B3
:101A000008E0F02001A9085504E0FF2001A90855CD
:101A100000E000BF00BFA806050E05F0C00737B103
:101A2000402F08D0802F0AD0C02F10D10BE000200B
:101A30000DF804000CE00F200DF8040008E0F02081
:101A40000DF8040004E0FF200DF8040000E000BFE2
:101A500000BFA806050E01A9085D012103F0B8F931
:101A60001DF80400012103F0B3F9601CC4B2022C7C
:101A7000B0DBBDE8FC8101460020704710B502498B
:101A8000086B00F0E3FC10BDDC63002010B50249D8
:101A9000486B00F0DBFC10BDDC63002010B5024990
:101AA000086B00F0D3FC10BD0C69002010B5024992
:101AB000486B00F0CBFC10BD0C69002010B502494A
:101AC000486B00F0C3FC10BDAC5E002010B50249AD
:101AD000086B00F0BBFC10BDAC5E002010B50249E5
:101AE000486B00F0B3FC10BD3C6E002010B50249FD
:101AF000086B00F0ABFC10BD3C6E002030B590F8D8
:101B000040500124AC40C56B6C600468636044685D
:101B1000102C04D10468A2600468E16003E004684A
:101B2000A1600468E26030BD7047000030B58FB03E
:101B300014240625354803785B1C35480278521C6E
:101B400034A103A8FEF72AFCFF20002101220C2368
:101B5000CDE90021029003AA084603F0A9F838480D
:101B60002B49097800EBC100C0883549284A127812
:101B700001EBC2018988CDE9001031482449097878
:101B800000EBC10043882E482149097830F8312004
:101B90002CA103A8FEF702FCFF200021CDE90010D4
:101BA00005F1100104F12000102303AA02F0FCFF4C
:101BB00005F1100104F1200003AAFFF795FEFF20B4
:101BC0000121CDE9001005F1200104F136001023B8
:101BD00022A202F0E9FFFF200021CDE9001005F16B
:101BE0001601182321A2204602F0DEFFFF2000216B
:101BF000CDE9001005F1160104F1C802D0B2182396
:101C00001BA202F0D1FF0FB030BD0000D95400205C
:101C1000D8540020A1A3B5B1C7B0CDA8B5C04348E2
:101C2000253164202020202020202020202020B2C8
:101C3000CEBFBCCDA8B5C03A4348253164000000F2
:101C4000E8540020302E20253033642025303364C2
:101C5000202530336420253033640000206D73204C
:101C600020757320206E7320207073003C000000EC
:101C70003E00000000B59DB00B480C49097850F8B3
:101C800021200BA104A8FEF789FBFF2000210122DF
:101C90000C23CDE90021029004AA1946002003F08C
:101CA00007F81DB000BD0000DC540020E454002003
:101CB000A1A3B5B1C7B0B2CEBFBC3A0A0A2020205A
:101CC00020202020202020203C20202020202020F8
:101CD00020257320202020202020203E000000000E
:101CE0000EB5FF20012100910C2304A2CDE90110C3
:101CF0000021084602F0DCFF0EBD0000D6F7B2CB93
:101D0000B5A50A3E20B2E2C1BFBDE1B9FB0AB4A548
:101D1000B7A2B5E7C6BDC9E8D6C30ACDE2B2BFD304
:101D2000EBC4DAB2BFB2CEBFBCC9E8D6C300000074
:101D30000EB5FF20012100910C2304A2CDE9011072
:101D40000021084602F0B4FF0EBD0000D6F7B2CB6A
:101D5000B5A50AB2E2C1BFBDE1B9FB0A3E20B4A5F8
:101D6000B7A2B5E7C6BDC9E8D6C30ACDE2B2BFD3B4
:101D7000EBC4DAB2BFB2CEBFBCC9E8D6C300000024
:101D80000EB5FF20012100910C2304A2CDE9011022
:101D90000021084602F08CFF0EBD0000D6F7B2CB42
:101DA000B5A50AB2E2C1BFBDE1B9FB0AB4A5B7A2AD
:101DB000B5E7C6BDC9E8D6C30A3E20CDE2B2BFD35F
:101DC000EBC4DAB2BFB2CEBFBCC9E8D6C3000000D4
:101DD0000EB5FF20012100910C2304A2CDE90110D2
:101DE0000021084602F064FF0EBD0000D6F7B2CB1A
:101DF000B5A50AB4A5B7A2B5E7C6BDC9E8D6C30A5A
:101E0000CDE2B2BFD3EBC4DAB2BFB2CEBFBCC9E839
:101E1000D6C30A3E20B2CEBFBCCDA8B5C0C9E8D655
:101E2000C300000000B59DB00A480278521C0AA108
:101E300004A8FEF7B3FAFF20002101220C23CDE90C
:101E40000021029004AA1946002002F031FF1DB0C3
:101E500000BD0000D9540020A1A3B5B1C7B0B2CED7
:101E6000BFBCCDA8B5C03A0A0A20202020202020DF
:101E7000202020203C2020202020202020434825F6
:101E8000316420202020202020203E0070B590B01A
:101E90001425062420480278521C20A104A8FEF72D
:101EA0007DFAFF20002101220C23CDE900210290C0
:101EB00004AA2146002002F0FBFE244800780C21F1
:101EC000234B154ECDE90010367853F8262004F147
:101ED000180105F19403D8B2012302F001FEFF209E
:101EE0000121CDE9001004F1180105F1A602D0B2DC
:101EF0000C23562202F06AFDFF200021CDE90010DC
:101F000004F1160105F1C802D0B2182311A202F0A3
:101F10004BFE10B070BD0000D8540020A1A3B5B195
:101F2000C7B0CDA8B5C043482531640A0A20202097
:101F3000202020202020202020B4A5B7A2B5E7C66D
:101F4000BD28302D3556293A00000000E554002008
:101F5000285500203E00000010B50446072C47D24B
:101F6000DFE804F0460F1A3025043B008D48007866
:101F700000EB40008C4901EB8000407889490870F3
:101F800037E08848007800EB4000874901EB80008B
:101F90008078844908702CE08248007800EB40008B
:101FA000814901EB8000C0787E49087021E07D48BE
:101FB000007800EB40007C4901EB80000079794912
:101FC000087016E07748007800EB4000764901EB96
:101FD00080004079734908700BE07248007800EB8C
:101FE0004000714901EB800080796E49087000E083
:101FF00000BF00BF6D4800786A490978884206D062
:10200000684800786949087002F052FBBBE06548F7
:102010000078042821D1032C0FD0042C1BD1644854
:102020000078401E6249087008460078072802DDE3
:102030000720087000E000BF0EE05D480078401CFB
:102040005B49087008460078072802DD0020087008
:1020500000E000BF00E000BF95E05248007805288E
:102060005AD1012C06D0022C14D0032C2DD0042CD4
:1020700039D11FE04F494E4A127851F8220001220F
:102080004D49097803F014FC4A49494A127841F84D
:10209000220029E04749464A127851F822000022DE
:1020A0004549097803F004FC4249414A127841F855
:1020B000220019E041480078401E404908703E481F
:1020C0000078401C3C4908700EE039480078401CFC
:1020D0003749087008460078072802DD002008709C
:1020E00000E000BF00E000BF00BF344800780128D6
:1020F00003D100203149087006E0304800780A28F2
:1021000002DD02202D4908702B48007801283ADDB5
:1021100000202949087036E02248007806280CD1B2
:10212000032C05D0042C07D100202549087003E0BA
:1021300001202349087000BF25E01A4800780728CD
:1021400021D1032C0FD0042C1BD11E480078401E37
:102150001C49087008460078072802DD072008702F
:1021600000E000BF0EE017480078401C15490870D9
:1021700008460078072802DD0020087000E000BF54
:1021800000E000BF00BF0748007800EB40000649B0
:1021900001EB800080680C490860084600688047B1
:1021A00010BD0000D054002048550020A85E00203B
:1021B000D854002028550020E6540020E554002083
:1021C000E4540020D9540020D454002070B50646B1
:1021D0007721002002F05CFE7F21002002F068FEE3
:1021E00002F076FE00240FE0002509E001213046D0
:1021F00002F0EEFD0121304602F0EAFD681CC5B296
:10220000782DF3DB601CC4B2802CEDDB70BD0000C8
:1022100070B5024600230C291FD11824002018E0B5
:1022200000EB800505EBC0050E4E16F8155016782C
:10223000B5420CD100EB800505EBC005094E06EB5D
:1022400045056D785678B54201D1034603E0451C3B
:10225000A8B2A042E4DB00BF02E0102900D000BF1A
:10226000184670BD60520020014600200A681268BE
:1022700022F00E020B681A600A68126822F001024E
:102280000B681A6091F8403001229A40CB6B5A607B
:10229000012281F8212000BF002281F8202000BF08
:1022A0007047000070B50446002594F8210002280C
:1022B00003D00420A0630125C1E02068006820F05D
:1022C0000E00216808602068006820F00100216885
:1022D00008605C492068884252D95A497839206898
:1022E000884201D1012047E056496439206888427C
:1022F00001D1102040E0534950392068884201D173
:10230000801539E04F493C392068884201D180145A
:1023100032E04C4928392068884202D14FF480309D
:102320002AE0484914392068884202D14FF48010CD
:1023300022E044492068884201D140041CE042491F
:102340002068884201D1012016E03F4914312068FD
:10235000884201D110200FE03B4928312068884293
:1023600001D1801508E038493C312068884201D10C
:10237000801401E04FF480303349091F086051E0B8
:10238000304978392068884201D1012047E02D4941
:1023900064392068884201D1102040E02949503931
:1023A0002068884201D1801539E026493C392068EF
:1023B000884201D1801432E02249283920688842BD
:1023C00002D14FF480302AE01E4914392068884237
:1023D00002D14FF4801022E01A492068884201D1CE
:1023E00040041CE018492068884201D1012016E011
:1023F000154914312068884201D110200FE012499C
:1024000028312068884201D1801508E00E493C310E
:102410002068884201D1801401E04FF480300949DE
:1024200080394860012084F8210000BF002084F832
:10243000200000BF606B10B12046616B88472846C2
:1024400070BD0000800002400804024070B50446E0
:10245000E06B05682068066894F840100420884006
:102460002840002875D006F004000028FAD0206823
:10247000006800F0200028B92068006820F00400FF
:1024800021680860D5492068884254D9D3497839F1
:102490002068884201D1042049E0D049643920688D
:1024A000884201D1402042E0CC495039206888421E
:1024B00001D100153BE0C9493C392068884202D16E
:1024C0004FF4804033E0C54928392068884202D162
:1024D0004FF480202BE0C14914392068884202D192
:1024E0004FF4800023E0BD492068884201D1C00438
:1024F0001DE0BB492068884201D1042017E0B8499B
:1025000014312068884201D1402010E0B4492831BC
:102510002068884201D1001509E0B1493C312068AA
:10252000884202D14FF4804001E04FF48020AC4952
:10253000091F086054E0A94978392068884201D110
:1025400004204AE0A54964392068884202D140202D
:1025500043E04CE0A14950392068884201D1001580
:102560003BE09E493C392068884202D14FF48040CC
:1025700033E09A4928392068884202D14FF48020FC
:102580002BE0964914392068884202D14FF480002C
:1025900023E092492068884201D1C0041DE090499F
:1025A0002068884201D1042017E08D491431206849
:1025B000884201D1402010E08949283120688842B2
:1025C00001D1001509E086493C312068884202D1DA
:1025D0004FF4804001E04FF480208049803948600A
:1025E000E06A002802D02046E16A8847F4E094F8C7
:1025F0004010022088402840002871D006F00200D8
:102600000028FAD02068006800F0200040B9206857
:10261000006820F00A0021680860012084F8210089
:102620006E492068884254D96C49783920688842BC
:1026300001D1022049E0694964392068884201D10A
:10264000202042E0654950392068884201D1401578
:102650003BE062493C392068884202D14FF4005087
:1026600033E05E4928392068884202D14FF40030B7
:102670002BE05A4914392068884202D14FF40010E7
:1026800023E056492068884201D180041DE0544966
:102690002068884201D1022017E051491431206896
:1026A000884201D1202010E04D492831206888421D
:1026B00001D1401509E04A493C312068884202D1E5
:1026C0004FF4005001E04FF400304549091F086005
:1026D00054E0424978392068884202D102204AE019
:1026E00057E03E4964392068884201D1202042E009
:1026F0003A4950392068884201D140153BE03749BA
:102700003C392068884202D14FF4005033E033490D
:1027100028392068884202D14FF400302BE02F493D
:1027200014392068884202D14FF4001023E02B496D
:102730002068884201D180041DE029492068884230
:1027400001D1022017E0264914312068884201D1C6
:10275000202010E0224928312068884201D140150C
:1027600009E01F493C312068884202D14FF40050F3
:1027700001E04FF4003019498039486000BF002063
:1027800084F8200000BFA06A30B32046A16A8847C1
:1027900022E094F84010082088402840E0B106F07C
:1027A0000800C8B12068006820F00E0021680860A9
:1027B00094F8401001208840E16B48600120A0633C
:1027C00084F8210000BF002084F8200000BF206BA7
:1027D00010B12046216B884770BD00008000024088
:1027E000080402400146002209B901207047204B2D
:1027F000086898420BD21F4B0868C01A1423B0FB1C
:10280000F3F0800008641B480838C8630AE0184BDE
:102810000868C01A1423B0FBF3F080000864144861
:102820000838C863022081F821000868026843F66E
:10283000F0708243D1E901031843CB6818430B6958
:1028400018434B6918438B691843CB6918430243FB
:102850000868026000208862C86208634863886371
:10286000012081F82100002081F8200000BFBDE791
:1028700008040240080002402DE9F04104460D46DC
:1028800016461F464FF0000800BF94F820000128AC
:1028900002D10220BDE8F081012084F8200000BFB1
:1028A00094F8210001282CD1022084F82100002076
:1028B000A0632068006820F00100216808603B46A2
:1028C000324629462046FFF719F9E06A30B1206800
:1028D000006840F00E00216808600BE02068006886
:1028E00020F00400216808602068006840F00A00B9
:1028F000216808602068006840F0010021680860D5
:1029000006E000BF002084F8200000BF4FF002085E
:102910004046BFE770B5044600F0ACF906462546D0
:10292000681C10B104480078054400BF00F0A2F90B
:10293000801BA842FAD370BD0C0000202DE9F84797
:1029400003460024002000258446002700226EE173
:102950004FF0010808FA02F4D1F8008008EA0400F8
:10296000A0427DD1DFF8D0A2D1F80480A8EB0A09FB
:10297000D0453AD014DCB8F1030F50D009DCB8F1DF
:10298000000F31D0B8F1010F1CD0B8F1020F49D1BE
:1029900020E0B8F1110F18D0B8F1120F42D11EE0AB
:1029A000B9F5881F25D006DCB9F5803F20D0B9F5F0
:1029B000801F37D11AE0B9F5001F18D0B9F5041FF0
:1029C00030D117E0D1F80CC02DE0D1F80C8008F11F
:1029D000040C28E0D1F80C8008F1080C23E0D1F8B1
:1029E0000C8008F10C0C1EE000BF00BF00BF00BF50
:1029F00000BF00BFD1F80880B8F1000F02D14FF03E
:102A0000040C0BE0D1F80880B8F1010F03D14FF0AE
:102A1000080C1C6102E04FF0080C5C6103E04FF011
:102A2000000C00E000BF00BFFF2801D8984601E07D
:102A300003F104084646FF2802D84FEA820803E063
:102A4000A2F108084FEA88084746D6F800804FF000
:102A50000F0909FA07F928EA09080CFA07F900E052
:102A600088E048EA0908C6F80080D1F8048008F038
:102A70008058B8F1805F7DD100BFDFF8C081D8F801
:102A8000188048F00108DFF8B491C9F81880C846EA
:102A9000D8F8188008F00108CDF8008000BF00BF0A
:102AA0004FEAB9384FEA920958F829504FEA82782C
:102AB0004FEA18794FF00F0808FA09F825EA0805D7
:102AC000DFF87C81434502D14FF0000816E0DFF8C3
:102AD0007481434502D14FF001080FE0DFF86881AF
:102AE000434502D14FF0020808E0DFF8608143451A
:102AF00002D14FF0030801E04FF004084FEA827959
:102B00004FEA197908FA09F848EA0505DFF8408123
:102B10004FEA920948F82950D1F8048008F4803827
:102B2000B8F5803F0AD1DFF82C81D8F8008048EA58
:102B30000008DFF82091C9F8008009E0DFF814816F
:102B4000D8F8008028EA0008DFF80891C9F800806A
:102B5000D1F8048008F40038B8F5003F10D1DFF850
:102B6000F48008F10408D8F8008048EA0008DFF88B
:102B7000E49000E05AE009F10409C9F800800DE092
:102B8000DFF8D08008F10408D8F8008028EA0008AF
:102B9000DFF8C09009F10409C9F80080D1F8048079
:102BA00008F48018B8F5801F0ED1DFF8A88008F16E
:102BB0000808D8F8008048EA0008DFF8989009F182
:102BC0000809C9F800800DE0DFF8888008F10808DE
:102BD000D8F8008028EA0008DFF8789009F10809A1
:102BE000C9F80080D1F8048008F40018B8F5001F77
:102BF0000ED1DFF8608008F10C08D8F8008048EAB0
:102C00000008DFF8509009F10C09C9F800800DE0C8
:102C1000DFF8408008F10C08D8F8008028EA0008A6
:102C2000DFF8309009F10C09C9F80080521C102A15
:102C3000FFF48EAEBDE8F8870000111000100240CE
:102C400000080140000C0140001001400014014048
:102C50000800014000040140024693680B400BB19C
:102C6000012000E0002070470AB1016101E00B047F
:102C700003617047014800687047000004000020AD
:102C8000034800680349097808440149086070470F
:102C9000040000200C00002010B50648006840F039
:102CA000100004490860052000F0BCF800F02AF884
:102CB000002010BD0020024070B504460E48007888
:102CC0004FF47A71B1FBF0F00C490968B1FBF0F5F3
:102CD000284600F0FFFC08B1012070BD102C07D27F
:102CE00000222146501E00F05EF80548046001E015
:102CF0000120F2E70020F0E70C0000200000002097
:102D00000800002008B500BF1F48806940F001009E
:102D10001D4988610846806900F00100009000BFED
:102D200000BF00BF0846C06940F08050C861084637
:102D3000C06900F08050009000BF00BF052000F087
:102D400071F8002211466FF00B0000F02CF8002201
:102D500011466FF00A0000F026F8002211466FF0CD
:102D6000090000F020F800221146501F00F01BF867
:102D700000221146101F00F016F800221146901E86
:102D800000F011F808BD00000010024000BF00F084
:102D90001F02012191404209920002F1E022C2F893
:102DA000001100BF70472DE9F05F80460D461646C2
:102DB000002701F061FC074639462A46334601F0F8
:102DC0000700C0F1070ABAF1040F02D94FF0040A54
:102DD00001E0C0F1070AD14600F1040ABAF1070F79
:102DE00002D24FF0000A01E0A0F1030AD4464FF0EE
:102DF000010A0AFA09FAAAF1010A0AEA020A0AFA17
:102E00000CFA4FF0010B0BFA0CFBABF1010B0BEAC8
:102E1000030B4AEA0B042146404601F035FCBDE8AD
:102E2000F09F000000BF00F00702064B19684FF644
:102E3000FF031940044B0B4343EA0221014B196085
:102E400000BF70470CED00E00000FA0570B50446C5
:102E50000D4600266248006800F00700A8420ED226
:102E60005F48006820F0070028435D490860084675
:102E7000006800F00700A84201D0012070BD207852
:102E800000F00200022807D15648406820F0F00008
:102E9000A168084353494860207800F001000028E9
:102EA0005DD06068012806D14E48006800F400300B
:102EB00090B90120E2E76068022806D1494800681D
:102EC00000F0007040B90120D8E74648006800F0E3
:102ED000020008B90120D1E74248406820F0030011
:102EE000616808433F494860FFF7C4FE06466068D2
:102EF000012810D108E0FFF7BDFE801B41F28831A8
:102F0000884201D90320B9E73648406800F00C0038
:102F10000428F0D123E06068022810D108E0FFF710
:102F2000A9FE801B41F28831884201D90320A5E720
:102F30002C48406800F00C000828F0D10FE008E0B1
:102F4000FFF798FE801B41F28831884201D90320A7
:102F500094E72448406800F00C000028F0D1204895
:102F6000006800F00700A8420ED91D48006820F054
:102F7000070028431A4908600846006800F0070067
:102F8000A84201D0012079E7207800F0040004284D
:102F900007D11448406820F4E060E1680843114913
:102FA0004860207800F00800082808D10D484068E3
:102FB00020F46050216940EAC1000A49486000F0ED
:102FC0003DF808494968C1F30311074A515CC840FC
:102FD000064908600020FFF76FFE00204EE7000062
:102FE00000200240001002407A610008000000202A
:102FF00001480068704700000000002000B5FFF79E
:10300000F7FF04494968C1F30221034A515CC840F3
:1030100000BD0000001002408A61000800B5FFF703
:10302000E7FF04494968C1F3C221034A515CC84023
:1030300000BD0000001002408A6100082DE9F04F39
:103040008BB03CA2D2E901311068D268CDE90831D9
:103050000A9207903BA3D3E90020D3E9021304AC02
:103060000BC403924FF00009CB46CA46002400204F
:103070000290019000903748D0F8049009F00C00BD
:1030800000284FD0042802D008284AD102E0324854
:1030900002904AE007A8C9F38341445C09F48030F8
:1030A000C0B32C48C06A00F00F0003A911F800B0AB
:1030B0002848C06A00F4803008B32648C06AC0F3CC
:1030C0000310401C01902348C06AC0F30320801CF9
:1030D00000900198A0FB0B5006461F490098A1FBE9
:1030E00000210023A2FB047C01FB04C102FB0311AD
:1030F0002A4633463846FDF7DAF8824603E016489A
:103100006043B0FBFBFA9DF82900A04206D14FEACC
:103110005A0A03E0FFE7114804FB00FACDF808A0C3
:1031200003E000BF0E48029000BF00BF02980BB042
:10313000BDE8F08F00000405060708090000000044
:10314000000D00000102030405060708090A0B0C24
:103150000D0E0F100010024040787D0100093D0067
:1031600000127A00F8B504460025207800F001002E
:10317000002878D0FD48406800F00C0004280CD0EE
:10318000FA48406800F00C00082811D1F748406860
:1031900000F48030B0F5803F0AD1F448006800F4B4
:1031A000003000285FD0A06800285CD10120F8BD65
:1031B00000BFA068B0F5803F06D1EC48006840F43D
:1031C0008030EA49086028E0A06858B9E7480068FC
:1031D00020F48030E54908600846006820F480202B
:1031E00008601AE0A068B0F5A02F0BD1DF48006896
:1031F00040F48020DD4908600846006840F48030D3
:1032000008600AE0D948006820F48030D749086097
:103210000846006820F48020086000BFA06888B1DC
:10322000FFF728FD054606E0FFF724FD401B642854
:1032300001D90320BBE7CD48006800F40030002826
:10324000F2D010E0FFF716FD054606E0FFF712FD8D
:10325000401B642801D90320A9E7C448006800F492
:1032600000300028F2D1207800F00200022857D167
:10327000BE48406800F00C0050B1BC48406800F007
:103280000C00082818D1B948406800F4803098B97B
:10329000B648006800F0020020B16069012801D042
:1032A000012084E7B148006820F0F800A16940EAF5
:1032B000C100AE49086033E06069E8B10120AC4963
:1032C0000860FFF7D7FC054606E0FFF7D3FC401B7C
:1032D000022801D903206AE7A448006800F0020030
:1032E0000028F2D0A148006820F0F800A16940EA67
:1032F000C1009E49086013E000209D490860FFF767
:10330000B9FC054606E0FFF7B5FC401B022801D9D1
:1033100003204CE79548006800F002000028F2D135
:10332000207800F0080008282DD1E069B8B101200C
:1033300090490860FFF79EFC054606E0FFF79AFCFF
:10334000401B022801D9032031E78848406A00F079
:1033500002000028F2D0012001F082FD13E00020DD
:1033600084490860FFF786FC054606E0FFF782FC0B
:10337000401B022801D9032019E77C48406A00F06D
:1033800002000028F2D1207800F00400042873D154
:1033900000267648C06900F0805070B900BF7348BD
:1033A000C06940F080507149C8610846C06900F0AA
:1033B0008050009000BF00BF01266F48006800F4F5
:1033C0008070B0B96C48006840F480706A49086049
:1033D000FFF750FC054606E0FFF74CFC401B642855
:1033E00001D90320E3E66448006800F480700028F7
:1033F000F2D000BF2069012806D15C48006A40F085
:1034000001005A49086227E0206958B95748006A04
:1034100020F00100554908620846006A20F00400C7
:10342000086219E0206905280BD15048006A40F075
:1034300004004E4908620846006A40F00100086234
:103440000AE04A48006A20F001004849086208463C
:10345000006A20F00400086200BF2069A0B1FFF7F5
:1034600009FC054609E0FFF705FC401B41F28831E5
:10347000884202D903209AE622E03C48006A00F024
:1034800002000028EFD012E0FFF7F4FB054608E049
:10349000FFF7F0FB401B41F28831884201D903203D
:1034A00085E63248006A00F002000028F0D1012EC3
:1034B00005D12E48C06920F080502C49C86100BF5A
:1034C000E06AA0B32948406800F48030B0F5803F3E
:1034D0000ED12648406800F00C00082808D1234887
:1034E000C06A00F48030B0F5803F01D101205EE673
:1034F000E06A022850D11D48006800F0805040B1B9
:103500001A48C06A00F0F001606B814201D00120CE
:103510004DE6002016498866FFF7ACFB054607E03C
:10352000FFF7A8FB401B642802D903203FE64DE0CB
:103530000E48006800F000600028F1D10B48C06A16
:1035400020F0F000616B08430849C8620846C06A71
:1035500020F47060216B08430449C86201200449CB
:103560008866FFF787FB05460FE000000010024069
:10357000000042428004424200700040FFF77AFBA4
:10358000401B642801D9032011E64648006800F07A
:1035900000600028F2D019E04248C06A20F4803070
:1035A0004049C862002040498866FFF763FB054632
:1035B00006E0FFF75FFB401B642801D90320F6E516
:1035C0003848006800F000600028F2D1206AE0B3BB
:1035D0003448406800F00C0008285ED0206A0228B9
:1035E00046D1002030490866FFF744FB054606E057
:1035F000FFF740FB401B022801D90320D7E52948EB
:10360000006800F000700028F2D1606AB0F5803FD9
:103610000DD12448C06A616808432249C86208463F
:10362000C06A20F00F00E16808431E49C862D4E96F
:10363000090108431B49496821F4741108431949D9
:10364000486001201849086600E028E0FFF712FBF7
:10365000054606E0FFF70EFB401B022801D90320B8
:10366000A5E51048006800F000700028F2D016E0D0
:1036700000200D490866FFF7FDFA054606E0FFF752
:10368000F9FA401B022801D9032090E5054800689B
:1036900000F000700028F2D101E0012087E5002051
:1036A00085E500000010024000004242042808D1D5
:1036B0004FF0E021096941F004014FF0E02211616F
:1036C00007E04FF0E021096921F004014FF0E0220A
:1036D0001161704770B504462546681EB0F1807FC1
:1036E00001D301200FE0681E4FF0E02148610F2157
:1036F0004FF0FF3000F0C8FF00204FF0E02188615C
:1037000007200861002070BD7047704710B504465F
:103710000CB9012010BD94F83D0028B9002084F8B0
:103720003C00204600F00CF8022084F83D00211DEA
:10373000206801F0BFFC012084F83D000020E9E78B
:1037400038B5044628492068884216D100BF27486A
:10375000C06940F002002549C8610846C06900F010
:103760000200009000BF00BF032201211D20FFF7CF
:103770001AFB1D20FFF70AFB34E01D492068884230
:1037800016D100BF1948C06940F010001749C86140
:103790000846C06900F01000009000BF00BF012281
:1037A00002213620FFF7FFFA3620FFF7EFFA19E083
:1037B00010492068884215D100BF0C48C06940F00C
:1037C00020000A49C8610846C06900F02000009046
:1037D00000BF00BF012202213720FFF7E4FA3720A3
:1037E000FFF7D4FA38BD000000040040001002408A
:1037F000001000400014004001460868C06840F016
:1038000001000A68D0600868006840F001000A689A
:10381000106000207047704710B5044620680069AA
:10382000C0F34000D8B12068C068C0F34000B0B118
:103830006FF002002168086101202077206880690C
:1038400000F0030018B12046FFF7E5FF05E0204631
:1038500000F0ADF8204600F0ABF80020207720689B
:103860000069C0F38000D8B12068C068C0F3800050
:10387000B0B16FF004002168086102202077206851
:10388000806900F4407018B12046FFF7C4FF05E0DE
:10389000204600F08CF8204600F08AF800202077BF
:1038A00020680069C0F3C000D8B12068C068C0F3C8
:1038B000C000B0B16FF008002168086104202077D3
:1038C0002068C06900F0030018B12046FFF7A3FF8D
:1038D00005E0204600F06BF8204600F069F8002073
:1038E000207720680069C0F30010D8B12068C06854
:1038F000C0F30010B0B16FF010002168086108201B
:1039000020772068C06900F4407018B12046FFF7A6
:1039100082FF05E0204600F04AF8204600F048F813
:10392000002020772068006900F0010058B120686D
:10393000C06800F0010030B16FF00100216808613B
:10394000204600F037F820680069C0F3C01058B175
:103950002068C068C0F3C01030B16FF080002168EB
:1039600008612046FFF7D0FE20680069C0F3801090
:1039700058B12068C068C0F3801030B16FF04000CB
:1039800021680861204600F037F820680069C0F31C
:10399000401058B12068C068C0F3401030B16FF0DB
:1039A0002000216808612046FFF7AFFE10BD704778
:1039B0007047000010B504460B492068884212D0B9
:1039C0000A492068884204D1FFF75AF901F036FC11
:1039D00009E007492068884205D10648006800F5DB
:1039E0007A700449086010BD0004004000100040D7
:1039F000001400408C000020704770B5044600257C
:103A000020684069C0F3C01594F8390021280ED110
:103A10006DB12068406920F0800021684861206B0A
:103A200010B1206BFEF720FC204601F015FD206848
:103A30004069C0F3801594F83A0022280ED16DB188
:103A40002068406920F0400021684861606B10B137
:103A5000606BFEF709FC204601F0DEFC002070BD23
:103A6000704701460022002391F8392091F83A303E
:103A700042EA0300704700002DE9F0470446206841
:103A800005682068C668206847694FF00008C1468D
:103A900005F00F08B8F1000F0AD105F0200038B189
:103AA00006F0200020B1204601F0E0FCBDE8F087E0
:103AB000B8F1000F6DD007F0010018B906F490704E
:103AC000002866D005F0010030B106F4807018B10E
:103AD000E06B40F00100E06305F0040030B107F056
:103AE000010018B1E06B40F00200E06305F0020055
:103AF00030B107F0010018B1E06B40F00400E06362
:103B000005F0080030B107F0010018B1E06B40F09B
:103B10000800E063E06B68B305F0200028B106F010
:103B2000200010B1204601F0A1FC20684069C0F3DC
:103B30008019E06B00F0080010B9B9F1000F22D035
:103B4000204601F069FC2068406900F04000B0B1F7
:103B50002068406920F0400021684861606B50B1E6
:103B60001748616B4863606BFEF79CFB10B1606B9C
:103B7000416B88470CE02046FFF772FF08E02046C3
:103B8000FFF76EFF04E02046FFF76AFF0020E063C6
:103B90008CE705F0800030B106F0800018B12046B7
:103BA00001F09CFD82E705F0400030B106F04000D6
:103BB00018B1204601F040FC78E700BF76E700002E
:103BC0001D53000810B504460CB9012010BDA069B2
:103BD00000B100E000BF94F8390028B9002084F853
:103BE0003800204600F028F8242084F839002068A6
:103BF000C06820F400502168C860204601F08AFCAB
:103C00002068006920F490402168086120684069BC
:103C100020F02A00216848612068C06840F4005004
:103C20002168C8600020E063202084F8390084F80F
:103C30003A000020CAE7000010B586B00446F849F3
:103C4000206888427DD100BFF648806940F48040FA
:103C5000F44988610846806900F48040019000BF03
:103C600000BF00BF0846806940F004008861084634
:103C7000806900F00400019000BF00BF4815029069
:103C800002200390002004900320059002A9E6483A
:103C9000FEF754FE4FF4806002900020039002A9CA
:103CA000E148FEF74BFE002202212520FFF77BF8BA
:103CB0002520FFF76BF800BFDA48406940F00100AB
:103CC000D84948610846406900F00100019000BFF2
:103CD00000BFD648D649C1F8A8041021D448C0F87E
:103CE000AC140021C0F8B0148021C0F8B414002135
:103CF000C0F8B814C0F8BC14C0F8C0144FF4005198
:103D0000C0F8C41400F59560FEF76CFD00BFC9480B
:103D10002063C748C0F8CC4400BFC4481430C4492D
:103D2000C1F8EC040021C248C0F8F014C0F8F41443
:103D30008021C0F8F8140021C0F8FC14C0F8001568
:103D400000E022E0C0F804154FF40051C0F8081557
:103D500000F2EC40FEF746FD00BFB6484430606319
:103D6000B348C0F8104500BF002202210E20FFF723
:103D70001AF80E20FFF70AF8002202210F20FFF7A1
:103D800012F80F20FFF702F805E2AB4920688842DD
:103D90007DD100BFA348C06940F40030A149C8618B
:103DA0000846C06900F40030019000BF00BF00BFAA
:103DB0000846806940F0040088610846806900F088
:103DC0000400019000BF00BF042002900220039075
:103DD000002004900320059002A99348FEF7AEFD51
:103DE000082002900020039002A98F48FEF7A6FD4C
:103DF000012202212620FEF7D6FF2620FEF7C6FF6D
:103E000000BF8848406940F0010086494861084683
:103E1000406900F00100019000BF00BF83483C30C2
:103E20008649C1F8A80410218448C0F8AC140021C8
:103E3000C0F8B0148021C0F8B4140021C0F8B81440
:103E4000C0F8BC14C0F8C0144FF48051C0F8C414BA
:103E500000F59560FEF7C6FC00BF794820637748FF
:103E6000C0F8CC4400BF714828307449C1F8EC0454
:103E700000217248C0F8F014C0F8F4148021C0F892
:103E8000F8140021C0F8FC14C0F8001500E022E08E
:103E9000C0F804154FF48051C0F8081500F2EC404A
:103EA000FEF7A0FC00BF6648443060636348C0F87A
:103EB000104500BF012202211120FEF774FF1120DE
:103EC000FEF764FF012202211020FEF76CFF102094
:103ED000FEF75CFF5FE15B49206888427ED100BF4E
:103EE0005048C06940F480204E49C8610846C06906
:103EF00000F48020019000BF00BF00BF0846806929
:103F000040F0080088610846806900F008000190D0
:103F100000BF00BF0815029002200390002004900B
:103F20000320059002A94848FEF708FD4FF4006001
:103F300002900020039002A94348FEF7FFFC0222F2
:103F400011462720FEF72FFF2720FEF71FFF00BF97
:103F50003448406940F001003249486108464069F0
:103F600000F00100019000BF00BF304828383749F9
:103F7000C1F8A80410213548C0F8AC140021C0F8DD
:103F8000B0148021C0F8B4140021C0F8B814C0F8EF
:103F9000BC14C0F8C014C0F8C41400F59560FEF756
:103FA00021FC00BF2A4820632848C0F8CC4400BF49
:103FB0001E4814382549C1F8EC0400212348C0F8F4
:103FC000F014C0F8F4148021C0F8F8140021C0F8EF
:103FD000FC14C0F80015C0F8041500E03AE04FF4F6
:103FE0008051C0F8081500F2EC40FEF7FBFB00BF63
:103FF0001748443060631548C0F8104500BF0222DE
:1040000011460C20FEF7CFFE0C20FEF7BFFE022269
:1040100011460D20FEF7C7FE0D20FEF7B7FEBAE0F1
:1040200000380140001002400008014044000240F6
:104030000C690020B46D002000440040AC5E0020FC
:104040005463002000480040000C0140DC63002065
:1040500084680020514920688842E0D100BF504860
:10406000C06940F400204E49C8610846C06900F4A8
:104070000020019000BF00BF00BF0846806940F0EB
:10408000100088610846806900F01000019000BFB0
:1040900000BF081502900220039000200490032026
:1040A000059002A93F48FEF749FC4FF400600290DA
:1040B0000020039002A93B48FEF740FC03220221A6
:1040C0003420FEF770FE3420FEF760FE00BF344857
:1040D000406940F00200324948610846406900F0FA
:1040E0000200019000BF00BF2F483049C1F8A8046A
:1040F00010212E48C0F8AC140021C0F8B014802163
:10410000C0F8B4140021C0F8B814C0F8BC14C0F84A
:10411000C014C0F8C41400F59560FEF763FB00BF3F
:10412000234820632148C0F8CC4400BF1E482838EB
:104130001E49C1F8EC0400211C48C0F8F014C0F876
:10414000F4148021C0F8F8140021C0F8FC14C0F861
:104150000015C0F804154FF48051C0F8081500F29E
:10416000EC40FEF73FFB00BF1148443060630F484E
:10417000C0F8104500BF032202213A20FEF713FECB
:104180003A20FEF703FE032202213C20FEF70BFE3D
:104190003C20FEF7FBFD06B010BD0000004C0040C7
:1041A0000010024000100140580402403C6E002004
:1041B000E472002077B581B00446154694F83A00C1
:1041C000202850D1029800B115B9012004B070BD6B
:1041D00000BF94F83800012801D10220F6E7012041
:1041E00084F8380000BF0298A062A5850020E06333
:1041F000222084F83A001D48616B88621C48616B7C
:10420000C8621C48616B08630020616B486302AEA2
:1042100032682368191D2B46606BFEF72DFB00BF2B
:10422000002000902068006800902068406800909E
:1042300000BF00BF00BF002084F8380000BF206826
:10424000C06840F480702168C8602068406940F010
:104250000100216848612068406940F04000216801
:1042600048610020B2E70220B0E700008153000857
:10427000C75300083153000870B50446314920681F
:10428000884213D140F22B202F49A1F84000084664
:10429000D0F87852406CC1F878020846456440F284
:1042A0002B22D0F87812FFF785FF49E027492068D4
:1042B000884213D140F22B202549A1F8400008463E
:1042C000D0F87852406CC1F878020846456440F254
:1042D0002B22D0F87812FFF76DFF31E01D492068DE
:1042E000884213D140F22B201B49A1F84000084618
:1042F000D0F87852406CC1F878020846456440F224
:104300002B22D0F87812FFF755FF19E013492068E7
:10431000884215D140F22B201149A1F840000846EF
:10432000D0F87852406CC1F87802084645640A48D3
:1043300040F22B22D0F878120948FFF73BFF00BF6C
:1043400070BD0000003801400C69002000440040AE
:10435000AC5E002000480040DC630020004C0040C0
:104360003C6E002070470000F7B50446154694F8EF
:10437000390020283DD1019800B10DB90120FEBDC2
:1043800000BF94F83800012801D10220F7E701208E
:1043900084F8380000BF01982062A584E5840020DD
:1043A000E063212084F839001348216B88621348A8
:1043B000216BC8621248216B08630020216B48639F
:1043C00001AE23681A1D31682B46206BFEF754FAA4
:1043D0006FF040002168086000BF002084F83800BA
:1043E00000BF2068406940F08000216848610020DB
:1043F000C5E70220C3E70000D55300080B540008AE
:10440000315300087047704700BFFEE7062001499E
:10441000087070471400002000B585B000BF19482F
:10442000806940F02000174988610846806900F0E3
:104430002000009000BF00BF00BF0846806940F028
:10444000400088610846806900F04000009000BF8D
:1044500000BF4FF47C4001900020029001200390A7
:104460000320049001A90848FEF768FA4FF4804041
:1044700001900120029001A90448FEF75FFA05B0FF
:1044800000BD00000010024000180140001401406F
:1044900010B50446012C01D1434908704248007808
:1044A000002857D04FF400414048FEF7D5FBE8B153
:1044B0004FF480413D48FEF7CFFBB8B14FF40061A7
:1044C0003A48FEF7C9FB88B14FF480513748FEF7F0
:1044D000C3FB58B14FF400513448FEF7BDFB28B17F
:1044E0004FF480613148FEF7B7FB90BB00202E49A6
:1044F00008704FF400412D48FEF7AEFB08B90120CB
:1045000010BD4FF480412948FEF7A6FB08B90220F0
:10451000F6E74FF400612548FEF79EFB08B903203B
:10452000EEE74FF480512148FEF796FB08B90420CE
:10453000E6E74FF400511D48FEF78EFB08B9052051
:10454000DEE74FF480611948FEF786FB48BB062082
:10455000D6E7FFE74FF400411448FEF77DFB012842
:104560001FD181031148FEF777FB012819D1C10241
:104570000E48FEF771FB012813D101030B48FEF72B
:104580006BFB01280DD141030848FEF765FB0128AC
:1045900007D181020548FEF75FFB012801D10249DE
:1045A00008700020ACE700008900002000180140DE
:1045B00010B5044600F00AF803494879FDF7CCFC31
:1045C000FDF7E0F9002010BD8000002010B50120AB
:1045D000FFF75EFF044609488079604020400749A4
:1045E000487108468471407938B10122910304482A
:1045F000FEF73AFB01200349087010BD800000203F
:10460000001401408800002000B585B000BF0F48AD
:10461000806940F010000D4988610846806900F00B
:104620001000009000BF00BF4815019001200290CB
:1046300003900320049001A90548FEF77FF90122A9
:1046400051020348FEF710FB05B000BD0010024008
:104650000010014001460548006808B9012000E04B
:104660000020024A1060002070470000A40122428E
:1046700000BFFEE77047000002480068C0F3022058
:10468000704700000CED00E010B5002807DA0A07BB
:10469000140E054A00F00F031B1FD45403E00A0751
:1046A000130E024A135410BD18ED00E000E400E0C0
:1046B00000200CE0002106E00022064B03EB411332
:1046C0001A544A1C91B24029F6DB421C90B22028B1
:1046D000F0DB70472C740020F0B514460025FF284D
:1046E00001DC3F2900DDF0BD0346C71700EB57771B
:1046F000C7F3C702C71700EB5777FF10A0EBC70738
:10470000FEB2C6F107070123BB40DDB24CB10A4B34
:1047100003EB41139B5C2B43074F07EB4117BB5443
:1047200008E0054B03EB41139B5CAB43024F07EBE7
:104730004117BB5400BFD6E72C74002010B500F021
:10474000F9F8012210217A48FEF78EFA00220121A1
:104750007748FEF789FA6420FEF7DCF8012211465B
:104760007348FEF781FA0021AE2000F031FB0021F2
:10477000FD2000F02DFB0121122000F029FB00217B
:10478000B32000F025FB0121912000F021FB002146
:10479000CA2000F01DFB01213F2000F019FB002181
:1047A000A22000F015FB0121002000F011FB0021E8
:1047B000A12000F00DFB0121002000F009FB0021E9
:1047C000A02000F005FB0121142000F001FB0121D5
:1047D000112000F0FDFA0021B52000F0F9FA0121C6
:1047E000002000F0F5FA0021AB2000F0F1FA0121E1
:1047F000084600F0EDFA0021B42000F0E9FA0121AA
:10480000A02000F0E5FA0121F82000F0E1FA0021F3
:10481000C12000F0DDFA0121EF2000F0D9FA0021DB
:10482000C72000F0D5FA0121FF2000F0D1FA0021C5
:10483000B82000F0CDFA01210C2000F0C9FA0121C6
:10484000182000F0C5FA0121242000F0C1FA01214E
:10485000302000F0BDFA01213C2000F0B9FA01211E
:10486000482000F0B5FA0121542000F0B1FA0121EE
:10487000602000F0ADFA01216C2000F0A9FA0121BE
:10488000782000F0A5FA0121842000F0A1FA01218E
:10489000902000F09DFA01219C2000F099FA01215E
:1048A000A82000F095FA0121B42000F091FA00212F
:1048B000084600F08DFA0021B12000F089FA0121AC
:1048C000E22000F085FA0021D12000F081FA0121D8
:1048D000A22000F07DFA0121202000F079FA0021C9
:1048E000BB2000F075FA01211F2000F071FA0021B1
:1048F000B62000F06DFA0121082000F069FA0021CD
:10490000BE2000F065FA0121072000F061FA0021C5
:10491000A62000F05DFA0021A92000F059FA00203D
:10492000FDF754FC0021AF2000F052FA10BD00004A
:104930000010014000B585B000BF1148806940F00B
:1049400020000F4988610846806900F0200000902F
:1049500000BF00BF4FF4785001900120029000206A
:1049600003900320049001A90648FDF7E7FF012208
:104970004FF47C510348FEF777F905B000BD000005
:10498000001002400014014070B55B211C2000F0B3
:104990007FFA04F13F00C1B2204600F089FA00F02E
:1049A00097FA00240DE0002507E0074901EB4411C8
:1049B000485DFDF709F8681CC5B2202DF5DB601CC9
:1049C000C4B2402CEFDB70BD2C7400202DE9FF4FEA
:1049D0000546884617469946DDF834A00020029027
:1049E00001950090A7F12000C7B2B9F1100F1AD0BD
:1049F00006DCB9F1080F0AD0B9F10C0F25D10CE093
:104A0000B9F1180F15D0B9F1280F1ED117E02F48B2
:104A1000029008200090082419E02D4802900C20F4
:104A20000090082413E02B480290102000900824E6
:104A30000DE02948029030200090102407E027481C
:104A4000029078200090182401E0BDE8FF8F00BF9D
:104A5000002636E0009807FB0061029810F801B0CC
:104A60000020039027E00BF0800028B15246414619
:104A70002846FFF731FE0AE0BAF1000F01D101200C
:104A800000E00020024641462846FFF725FE4FEA97
:104A90004B604FEA106B681CC5B20198281AA042FF
:104AA00005D1019D08F1010000F0FF0806E0039820
:104AB000401CC0B2039003980828D4DB00BF701CD0
:104AC000C6B200988642C5DB00BFBEE7900000205A
:104AD0009003002010080020100E0020102000205D
:104AE0002DE9F04F87B00646894692469B46109CBA
:104AF00000255A462AA103A8FBF750FC504601F0B6
:104B000073F807463A460B4603A903A8FBF746FC91
:104B100000BF3EE004EBD4714910C1F58071B14291
:104B200004DA002609EB040000F0FF09C4F140009C
:104B3000484504DA002006468146FFF7B9FD03A880
:104B4000405D7E281DDC03A8405D202819DB1198FC
:104B5000A8420BD1FF200021CDE9001003A8425D3F
:104B6000234649463046FFF731FF0AE0FF20012186
:104B7000CDE9001003A8425D234649463046FFF7C1
:104B800025FF204604EBD07106EB6101CEB2681C14
:104B9000C5B203A8405D0028BCD107B0BDE8F08FC6
:104BA00025252E25646600002DE9FC4F06460F469C
:104BB00014461D46DDE90B9A4FF0000B082D02D17B
:104BC0004FF0050B04E0284605EBD071C1F3470B0D
:104BD000B9F1010F40D138E005EBD5714910C1F5AD
:104BE0008071B14202DA00267819C7B2C5F14000DF
:104BF000B84204DA002006460746FFF759FD0120B7
:104C0000CDE9000A22782B4639463046FFF7DEFE12
:104C10002078202804D16078202812D0607880B1D4
:104C20004FF000080AE006EB0801C8B2012239463D
:104C3000FFF752FD08F1010000F0FF08B8F1080F7E
:104C4000F1DB06EB0B00C6B2641C20787E282DDC5D
:104C500020782028C0DA29E0B9F1020F26D01FE021
:104C600005EBD5714910C1F58071B14202DA002619
:104C70007819C7B2C5F14000B84204DA00200646F0
:104C80000746FFF715FD0120CDE9000A22782B46E3
:104C900039463046FFF79AFE06EB0B00C6B2641C9D
:104CA00020787E2802DC20782028D9DABDE8FC8F25
:104CB0002DE9FF4F89B0894614461D46DDF860B0E6
:104CC000DDF858A00020089000268046102D0CD05A
:104CD00004DC082D07D00C2D10D105E0182D07D0CD
:104CE000282D0BD107E000BF00BF0820089008E086
:104CF0001020089005E01820089002E00DB0BDE8F3
:104D0000F08F00BF179840B92B4622464946CDE99F
:104D100000AB099800F002FEF0E74FE02078802811
:104D20000FDB22784046411C01F0FF0802A90A541B
:104D300062784046411C01F0FF0802A90A54A41CF5
:104D40003CE020780A280AD0207840B122784046FA
:104D5000411C01F0FF0802A90A54641C2EE002AFB6
:104D6000002002A901F80800002680460AE03878F1
:104D7000802803DD701986B2BF1C03E00898304418
:104D800086B27F1C38780028F1D1FF2E06DCC6F5EC
:104D9000807000EBD071C1F3470109912B4602AA44
:104DA0004946CDE900AB099800F0B8FD681D4844BC
:104DB00000F0FF09207800B901E0641CAEE700BFF5
:104DC00000BF9BE710B50446FFF7DEFD002010BDD5
:104DD00070B504460E462EB10122D1021E48FDF7E1
:104DE00043FF05E000224FF400611B48FDF73CFF44
:104DF00000224FF400711848FDF736FF00251DE032
:104E000000224FF480511448FDF72EFF04F080007B
:104E100028B1012251031048FDF726FF05E00022CA
:104E20004FF400510C48FDF71FFF012211030A48FF
:104E3000FDF71AFF6006040E681CC5B2082DDFDB03
:104E4000012251020448FDF70FFF0122D10202485E
:104E5000FDF70AFF70BD000000140140704700001C
:104E600008B508490968C9084FF47A72B1FBF2F134
:104E70004143009100BF00BF00994A1E00920029E3
:104E8000F9D108BD0000002001460020704770479E
:104E900070B505460C4600211520FFF799FF01214A
:104EA0002846FFF795FF01212046FFF791FF70BDCF
:104EB00070B505460C4600217520FFF789FF0121DA
:104EC0002846FFF785FF01212046FFF781FF70BDCF
:104ED00010B500215C20FFF77BFF10BD2DE9FC4FD2
:104EE00005460E4692461C46AB46002001902046E1
:104EF000E21704EB5272D2102146E31704EB53730E
:104F0000DB10A4EBC3030BB1012300E000231A4420
:104F10006243D2B200920C2C07D0102C05D0182C72
:104F200003D0202C01D0BDE8FC8F21465046FDF770
:104F30006FF90190002738E0019800EB800101EB48
:104F4000C0001C4901EB4000801C10F807804FF0A6
:104F5000000924E008F0800028B1F1B2E8B20B9A11
:104F6000FFF7BAFB09E00B9B0BB9012300E000231C
:104F70001A46F1B2E8B2FFF7AFFB4FEA48604FEADA
:104F80001068681C85B2A5EB0B00A04203D15D46FA
:104F9000701C86B206E009F1010000F0FF09B9F1CA
:104FA000080FD7DB00BF781CC7B200988742C3DB6D
:104FB00000BFB8E76052002030B593B0054600242A
:104FC00001200590000407900420089080030690BB
:104FD000022010904FF4C0611191402112910D9068
:104FE000C1030E910F9505A8FEF7BCF804460CB15D
:104FF00000BFFEE70F2000900220019000200290E9
:105000004FF4806003900020049002216846FDF771
:105010001DFF04460CB100BFFEE713B030BD000019
:105020001448006840F001001249086008464068D2
:10503000114908400F494860084600680F49084078
:105040000C4908600846006820F480200860084683
:10505000406820F4FE0048600846006820F0A05038
:1050600008604FF47F0088600020C862C8030449CC
:1050700008607047001002400000FFF0FFFFF6FEDE
:1050800008ED00E010B50248FEF7C6FB10BD0000B9
:105090006C73002010B50248FEF7BEFB10BD000087
:1050A000AC73002010B50248FEF7B6FB10BD00003F
:1050B000EC730020002202681B4B98420BD0B0F129
:1050C000804F08D0194B984205D0194B984202D016
:1050D000184B984203D122F070024B681A43124BCE
:1050E00098420BD0B0F1804F08D0104B984205D0B9
:1050F0000F4B984202D00F4B984203D122F44072DA
:10510000CB681A4322F080024B691A4302608B6815
:10511000C3620B688362044B984201D10B6903633D
:105120000123436170470000002C0140000400404F
:1051300000080040000C004010B50446032C04D0C9
:10514000062C09D0072C15D10DE000200B49086072
:105150000B48FEF751FB0EE000200A4908600A48A0
:10516000FEF74AFB07E00020064908600748FEF703
:1051700043FB00E000BF00BF10BD0000240400405E
:105180006C730020242C0140AC730020EC730020D1
:105190002DE9F04105460E461746012D10D0032D8E
:1051A00003D10C4C0C4820600AE0062D03D10B4CB7
:1051B0000B48206004E0072D02D10A4C0A48206009
:1051C0006760E66000212161A1602046FEF79EFA3B
:1051D000BDE8F0816C73002000040040AC73002037
:1051E00000100040EC7300200014004010B50024B3
:1051F0001AE0104800EB04100078012812D10020BA
:105200000C4901EB041108700A4800EB0410806897
:1052100040B1084A02EB0412D068064A02EB0412BD
:1052200091688847601CC4B2034800788442E0DB80
:1052300010BD00001C00002014000020184909685F
:10524000491C174A1160002024E0164901EB0011A7
:10525000897901291CD1134901EB00114988491CA6
:10526000104A02EB001251800E4901EB00114988EF
:105270000C4A02EB00129288914209DB0021094A94
:1052800002EB001251800121064A02EB001211705C
:10529000411CC8B2044909788842D6DB7047000037
:1052A000180000201C0000201400002038B5194808
:1052B000FEF7E2FB1848006800F0100040B300BFA2
:1052C00000200090134800680068009011480068B2
:1052D0004068009000BF00BF0E48D0F8EC04406862
:1052E00040F22B21081A0B49A1F840000846FEF7AE
:1052F00084FB0848D0F87842406C0649C1F878022F
:105300000846446440F22B22D0F87812FEF752FF90
:1053100038BD00003C6E0020004C004070B50546D2
:105320006C6A0020E085E0842046FEF799FB70BDA2
:1053300070B506460025746A20684069C0F3C01540
:1053400094F83900212805D125B10020E0842046B9
:1053500000F082F820684069C0F3801594F83A00A4
:10536000222805D125B10020E085204600F054F820
:10537000E06B40F01000E0632046FEF771FB70BD6B
:1053800070B505466C6A2868006800F02000B0B966
:105390000020E0852068C06820F480702168C86023
:1053A0002068406920F00100216848612068406958
:1053B00020F0400021684861202084F83A0020460F
:1053C000FEF75AFF70BD70B50446656A2846FEF7C1
:1053D000C9FF70BD70B505466C6A2868006800F0AA
:1053E000200070B90020E0842068406920F080002F
:1053F000216848612068C06840F040002168C860AA
:1054000002E02046FEF7FEFF70BD70B50446656AF7
:105410002846FEF7F8FF70BD0168C96821F4907155
:105420000268D1600168496921F001010268516197
:10543000202180F83A10704710B504462068C068F3
:1054400020F040002168C860202084F83900204600
:10545000FEF7D8FF002010BD0168C96821F0C00127
:105460000268D160202180F83910704770B5044679
:1054700094F83A0022284AD1A068B0F5805F13D191
:10548000A56A206940B920684068C0F308002880F8
:10549000A06A801CA06219E020684068C0B2288021
:1054A000A06A401CA06211E0206938B920684068F9
:1054B000C1B2A26A501CA062117007E02068406867
:1054C00000F07F01A26A501CA0621170E08D401EA6
:1054D00080B2E085C8B92068C06820F0200021684B
:1054E000C8602068C06820F480702168C8602068A7
:1054F000406920F0010021684861202084F83A00CA
:105500002046FEF7B9FE002070BD0020FCE7022017
:10551000FAE700002DE9F041044600252068006903
:1055200020F44050E1680843216808612169A068BF
:1055300008436169084305432068C06841F20C6173
:10554000884328432168C8602068406920F440707F
:10555000A1690843216848615F49206888425CD19D
:10556000FDF75CFD00EBC00101EB001061688900F4
:10557000B0FBF1F6FDF752FD00EBC00101EB0010AE
:1055800061688900B0FBF1F06421B0FBF1F000EB41
:10559000C00101EB0010A6EB8000322101EB0010EE
:1055A0006421B0FBF1F000F0F006FDF737FD00EBF1
:1055B000C00101EB001061688900B0FBF1F06421CB
:1055C000B0FBF1F006EB0016FDF728FD00EBC00183
:1055D00001EB001061688900B0FBF1F7FDF71EFDDB
:1055E00000EBC00101EB001061688900B0FBF1F035
:1055F0006421B0FBF1F000EBC00101EB0010A7EB60
:105600008000322101EB00106421B0FBF1F000F0CA
:105610000F003044216888605BE0FDF7EFFC00EB91
:10562000C00101EB001061688900B0FBF1F6FDF7E5
:10563000E5FC00EBC00101EB001061688900B0FBE4
:10564000F1F06421B0FBF1F000EBC00101EB0010C0
:10565000A6EB8000322101EB00106421B0FBF1F0D9
:1056600000F0F006FDF7CAFC00EBC00101EB0010F2
:1056700061688900B0FBF1F06421B0FBF1F006EB4A
:105680000016FDF7BBFC00EBC00101EB00106168E8
:105690008900B0FBF1F7FDF7B1FC00EBC00101EBB5
:1056A000001061688900B0FBF1F06421B0FBF1F0FB
:1056B00000EBC00101EB0010A7EB8000322101EBF1
:1056C00000106421B0FBF1F000F00F0030442168BD
:1056D0008860BDE8F081000000380140014691F883
:1056E000390021282CD18868B0F5805F0FD10A6A73
:1056F0001088C0F308000B685860086918B9086A78
:10570000801C086209E0086A401C086205E00B6A18
:10571000581C086218780B685860C88C401E80B20C
:10572000C88458B90868C06820F080000B68D86049
:105730000868C06840F040000B68D86000207047DF
:105740000220FCE738B51948FEF796F918480068BA
:1057500000F0100040B300BF002000901348006824
:1057600000680090114800684068009000BF00BFCA
:105770000E48D0F8EC04406840F22B21081A0B497F
:10578000A1F840000846FEF738F90848D0F87842FA
:10579000406C0649C1F878020846446440F22B2266
:1057A000D0F87812FEF706FD38BD00000C69002025
:1057B0000038014038B51948FEF75EF9184800680E
:1057C00000F0100040B300BF0020009013480068B4
:1057D00000680090114800684068009000BF00BF5A
:1057E0000E48D0F8EC04406840F22B21081A0B490F
:1057F000A1F840000846FEF700F90848D0F87842C2
:10580000406C0649C1F878020846446440F22B22F5
:10581000D0F87812FEF7CEFC38BD0000AC5E002058
:105820000044004038B51948FEF726F918480068CA
:1058300000F0100040B300BF002000901348006843
:1058400000680090114800684068009000BF00BFE9
:105850000E48D0F8EC04406840F22B21081A0B499E
:10586000A1F840000846FEF7C8F80848D0F878428A
:10587000406C0649C1F878020846446440F22B2285
:10588000D0F87812FEF796FC38BD0000DC630020EB
:105890000048004010B5044600221146024800F0BE
:1058A00046F9002010BD0000AC5E002000BFFEE7FE
:1058B0002DE9F04706460F461546002414493046A8
:1058C00000F016FB0646304600F0DEFA04462DB125
:1058D00039460A2000F020F9044404E039460A2041
:1058E00000F01AF9241A002C02DA0020BDE8F08733
:1058F000322C01DD0748F9E7204600F0E1FA814645
:10590000034900F0FFF98046034900F099F9EDE7FB
:10591000000020410000A0406F12833A2DE9FE4FA5
:1059200006460F4615461C46DDE90C9AB0464FF078
:10593000000B00200290082C02D10520029005E007
:10594000204604EBD071C1F34701029149E0BBF15D
:10595000000F2BD12878802802DD4FF0010B3FE0AB
:1059600004EBD4714910C1F58071B14203DA3819E2
:10597000C7B208F0FF06C4F14000B84200DA33E0D5
:1059800028780A2805D16D1C3819C7B208F0FF061F
:1059900027E0CDE9009A2A78234639463046FFF7BA
:1059A00015F86D1C02983044C6B219E04FF0000B98
:1059B000C4F58070B04203DA3819C7B208F0FF06A8
:1059C000C4F14000B84200DA0EE023462A463946C8
:1059D0003046CDE9009AFFF781FAAD1C3019C6B206
:1059E00000BF28780028B2D100BFBDE8FE8F490073
:1059F00050EAC12018BF04204A0D18BF40F0010032
:105A000040F2FF72B2EB515F08BF40F00200012884
:105A100008BF0520704730380A2801D2012070479E
:105A20000020704700BF704710B504460021A161F7
:105A3000E161E160A1600C2161612046FEF7C2F8DE
:105A400004F14C00606404F51F70C4F8780220680B
:105A5000C06840F010002168C86040F22B22204648
:105A6000D4F87812FEF7A6FB10BD2DE9F0410446EC
:105A70000D4616460A27FDF7FDF8804608E0FDF7BB
:105A8000F9F8A0EB0800B84202D90320BDE8F08184
:105A90002046FDF7E6FF2128F1D032462946204670
:105AA000FEF762FCF2E7000010B504460420FDF7A3
:105AB000FDFD054804604FF0E020006920F0020081
:105AC0004FF0E021086110BD10000020FDF7E4F860
:105AD0004FF4E010FFF770FA4820FFF7E5FFFEF7FC
