:020000040800F2
:10000000681C0020ED01000859290008BD260008E1
:100010005529000833040008E935000800000000F5
:10002000000000000000000000000000A72C0008F5
:10003000E904000800000000752C00080502000813
:10004000070200080702000807020008070200086C
:10005000070200080702000807020008070200085C
:10006000070200080702000807020008070200084C
:100070003D0400084D0400085D0400086D040008FC
:100080007D0400088D04000807020008070200082C
:10009000070200080702000807020008070200081C
:1000A000070200080702000807020008070200080C
:1000B00007020008C12D0008070200080702000817
:1000C00007020008070200080702000807020008EC
:1000D0000702000881340008F13400086135000887
:1000E00007020008070200080702000800000000DD
:1000F0000000000000000000000000000000000000
:1001000000000000000000000702000807020008CD
:10011000E92F000807020008D12D0008E12D000892
:1001200007020008070200089D04000807020008F3
:10013000AD040008070200080702000807020008D3
:10014000070200080702000807020008070200086B
:1001500000F002F800F03AF80AA090E8000C82449F
:100160008344AAF10107DA4501D100F02FF8AFF27C
:10017000090EBAE80F0013F0010F18BFFB1A43F085
:10018000010318474836000068360000103A24BFC3
:1001900078C878C1FAD8520724BF30C830C144BFEC
:1001A00004680C607047000000230024002500262E
:1001B000103A28BF78C1FBD8520728BF30C148BFCA
:1001C0000B6070471FB51FBD10B510BD00F0AEF835
:1001D0001146FFF7F7FF03F081FA00F0CCF803B403
:1001E000FFF7F2FF03BC03F001FA00000948804763
:1001F00009480047FEE7FEE7FEE7FEE7FEE7FEE709
:10020000FEE7FEE7FEE7FEE704480549054A064B20
:10021000704700005D2D000851010008681600209D
:10022000681C00206818002068180020704753EAF6
:10023000020C00F069802DE9F04B4FF00006002B16
:100240001FBFB3FA83F503FA05F424FA05F65E40FE
:1002500012BF1643B2FA82F502FA05F4C5F1200581
:100260001EBF22FA05FC44EA0C04203556EA044C71
:100270004FEA144418BF641C4FF000084FF0000907
:10028000904271EB030C39D3002919BFB1FA81F701
:1002900001FA07F6B0FA80F700FA07F6C7F120076F
:1002A0001EBF20FA07FC46EA0C062037B6FBF4FC1A
:1002B000A7EB0507103F07F01F0BCBF120060CFA48
:1002C0000BFB2CFA06F644BFB3460026202FA4BF32
:1002D0005E464FF0000B5BEA060C08BF4FF0010BC7
:1002E00019EB0B09ABFB027C48EB0608C01B06FBB5
:1002F00002CC0BFB03CC71EB0C01C1E70B460246B1
:1003000041464846BDE8F08B13B54FF000004FF072
:100310000001AFF30080BDE81C4070477047704794
:100320007047704700487047041600207546FFF775
:10033000F9FFAE4605006946534620F007008546A2
:1003400018B020B5FFF760FFBDE820404FF0000671
:100350004FF000074FF000084FF0000B21F00701AD
:10036000AC46ACE8C009ACE8C009ACE8C009ACE8F0
:10037000C0098D46704710B50446AFF30080204693
:10038000BDE81040FFF72BBF10B502F099F910BD82
:1003900010B543F6FF71012000F022F808B10120EA
:1003A00010BD43F25511022000F01AF808B10120E7
:1003B000F6E743F25501042000F012F808B10120DD
:1003C000EEE743F25501082000F00AF808B10120D9
:1003D000E6E74FF40051002000F002F80020DFE7CC
:1003E00070B505460C4602F0C9F9182002F092F9E2
:1003F00002F010FA08B1012070BD284602F08AF917
:1004000002F008FA08B10120F6E7200A02F082F9AA
:1004100002F000FA08B10120EEE7E0B202F07AF94A
:1004200002F0F8F908B10120E6E702F0CDF900206A
:10043000E2E700BFFEE701460020704710B5024921
:10044000086B00F065F910BDB405002010B5024935
:10045000486B00F05DF910BDB405002010B50249ED
:10046000086B00F055F910BDE40A002010B50249F0
:10047000486B00F04DF910BDE40A002010B50249A8
:10048000486B00F045F910BD8400002010B502490A
:10049000086B00F03DF910BD8400002010B5024942
:1004A000486B00F035F910BD1410002010B502495A
:1004B000086B00F02DF910BD1410002030B590F835
:1004C00040500124AC40C56B6C60046863604468B4
:1004D000102C04D10468A2600468E16003E00468A1
:1004E000A1600468E26030BD704770B506467721B0
:1004F000002002F0D9FB7F21002002F0E5FB02F092
:10050000F3FB00240FE0002509E00121304602F052
:100510006BFB0121304602F067FB681CC5B2782DE9
:10052000F3DB601CC4B2802CEDDB70BD0146002003
:100530000A68126822F00E020B681A600A681268D4
:1005400022F001020B681A6091F8403001229A40B3
:10055000CB6B5A60012281F8212000BF002281F874
:10056000202000BF7047000070B50446002594F8B5
:100570002100022803D00420A0630125C1E02068E7
:10058000006820F00E00216808602068006820F0F4
:100590000100216808605C492068884252D95A49A4
:1005A00078392068884201D1012047E056496439F2
:1005B0002068884201D1102040E05349503920681A
:1005C000884201D1801539E04F493C392068884282
:1005D00001D1801432E04C4928392068884202D188
:1005E0004FF480302AE0484914392068884202D10B
:1005F0004FF4801022E044492068884201D1400431
:100600001CE042492068884201D1012016E03F49A0
:1006100014312068884201D110200FE03B49283175
:100620002068884201D1801508E038493C312068B3
:10063000884201D1801401E04FF480303349091F12
:10064000086051E0304978392068884201D10120A2
:1006500047E02D4964392068884201D1102040E0EC
:10066000294950392068884201D1801539E026494E
:100670003C392068884201D1801432E0224928396F
:100680002068884202D14FF480302AE01E49143994
:100690002068884202D14FF4801022E01A49206875
:1006A000884201D140041CE018492068884201D1E9
:1006B000012016E0154914312068884201D110202C
:1006C0000FE0124928312068884201D1801508E0E6
:1006D0000E493C312068884201D1801401E04FF47A
:1006E0008030094980394860012084F8210000BF2A
:1006F000002084F8200000BF606B10B12046616BC1
:100700008847284670BD000080000240080402406F
:1007100070B50446E06B05682068066894F84010E0
:10072000042088402840002875D006F004000028E6
:10073000FAD02068006800F0200028B9206800681E
:1007400020F0040021680860D5492068884254D907
:10075000D34978392068884201D1042049E0D04942
:1007600064392068884201D1402042E0CC495039A8
:100770002068884201D100153BE0C9493C39206816
:10078000884202D14FF4804033E0C54928392068BF
:10079000884202D14FF480202BE0C14914392068EF
:1007A000884202D14FF4800023E0BD49206888428E
:1007B00001D1C0041DE0BB492068884201D104205A
:1007C00017E0B84914312068884201D1402010E078
:1007D000B44928312068884201D1001509E0B149A7
:1007E0003C312068884202D14FF4804001E04FF450
:1007F0008020AC49091F086054E0A9497839206875
:10080000884201D104204AE0A54964392068884221
:1008100002D1402043E04CE0A14950392068884291
:1008200001D100153BE09E493C392068884202D145
:100830004FF4804033E09A4928392068884202D139
:100840004FF480202BE0964914392068884202D169
:100850004FF4800023E092492068884201D1C0040F
:100860001DE090492068884201D1042017E08D499D
:1008700014312068884201D1402010E08949283194
:100880002068884201D1001509E086493C31206882
:10089000884202D14FF4804001E04FF4802080492B
:1008A00080394860E06A002802D02046E16A884723
:1008B000F4E094F84010022088402840002871D0CD
:1008C00006F002000028FAD02068006800F020003E
:1008D00040B92068006820F00A0021680860012003
:1008E00084F821006E492068884254D96C497839CF
:1008F0002068884201D1022049E0694964392068B2
:10090000884201D1202042E0654950392068884260
:1009100001D140153BE062493C392068884202D150
:100920004FF4005033E05E4928392068884202D1F4
:100930004FF400302BE05A4914392068884202D124
:100940004FF4001023E056492068884201D180040A
:100950001DE054492068884201D1022017E0514926
:1009600014312068884201D1202010E04D492831FF
:100970002068884201D1401509E04A493C3120688D
:10098000884202D14FF4005001E04FF40030454955
:10099000091F086054E0424978392068884202D132
:1009A00002204AE057E03E4964392068884201D17C
:1009B000202042E03A4950392068884201D1401550
:1009C0003BE037493C392068884202D14FF400505F
:1009D00033E0334928392068884202D14FF400308F
:1009E0002BE02F4914392068884202D14FF40010BF
:1009F00023E02B492068884201D180041DE0294969
:100A00002068884201D1022017E02649143120686D
:100A1000884201D1202010E02249283120688842F4
:100A200001D1401509E01F493C312068884202D1BC
:100A30004FF4005001E04FF400301949803948600C
:100A400000BF002084F8200000BFA06A30B3204619
:100A5000A16A884722E094F8401008208840284086
:100A6000E0B106F00800C8B12068006820F00E0070
:100A70002168086094F8401001208840E16B4860CC
:100A80000120A06384F8210000BF002084F820002A
:100A900000BF206B10B12046216B884770BD00005D
:100AA00080000240080402400146002209B90120EA
:100AB0007047204B086898420BD21F4B0868C01A39
:100AC0001423B0FBF3F0800008641B480838C863A7
:100AD0000AE0184B0868C01A1423B0FBF3F080003A
:100AE000086414480838C863022081F821000868A7
:100AF000026843F6F0708243D1E901031843CB68E2
:100B000018430B6918434B6918438B691843CB6929
:100B1000184302430868026000208862C8620863C4
:100B200048638863012081F82100002081F82000BB
:100B300000BFBDE708040240080002402DE9F04173
:100B400004460D4616461F464FF0000800BF94F8B5
:100B50002000012802D10220BDE8F081012084F8A4
:100B6000200000BF94F8210001282CD1022084F835
:100B700021000020A0632068006820F001002168A7
:100B800008603B46324629462046FFF797FCE06A5C
:100B900030B12068006840F00E00216808600BE06A
:100BA0002068006820F00400216808602068006860
:100BB00040F00A00216808602068006840F00100E9
:100BC0002168086006E000BF002084F8200000BF14
:100BD0004FF002084046BFE770B5044600F0A4F9A4
:100BE00006462546681C10B104480078054400BF3D
:100BF00000F09AF9801BA842FAD370BD0C000020C7
:100C00002DE9F847034600240020002584460027EC
:100C100000226EE14FF0010808FA02F4D1F80080DA
:100C200008EA0400A0427DD1DFF8D0A2D1F8048008
:100C3000A8EB0A09D0453AD014DCB8F1030F50D024
:100C400009DCB8F1000F31D0B8F1010F1CD0B8F1B8
:100C5000020F49D120E0B8F1110F18D0B8F1120FEE
:100C600042D11EE0B9F5881F25D006DCB9F5803FDA
:100C700020D0B9F5801F37D11AE0B9F5001F18D080
:100C8000B9F5041F30D117E0D1F80CC02DE0D1F830
:100C90000C8008F1040C28E0D1F80C8008F1080C55
:100CA00023E0D1F80C8008F10C0C1EE000BF00BF5F
:100CB00000BF00BF00BF00BFD1F80880B8F1000F2F
:100CC00002D14FF0040C0BE0D1F80880B8F1010F0D
:100CD00003D14FF0080C1C6102E04FF0080C5C617E
:100CE00003E04FF0000C00E000BF00BFFF2801D878
:100CF000984601E003F104084646FF2802D84FEA6F
:100D0000820803E0A2F108084FEA88084746D6F8AF
:100D100000804FF00F0909FA07F928EA09080CFAD0
:100D200007F900E088E048EA0908C6F80080D1F831
:100D3000048008F08058B8F1805F7DD100BFDFF8F3
:100D4000C081D8F8188048F00108DFF8B491C9F8DC
:100D50001880C846D8F8188008F00108CDF800803F
:100D600000BF00BF4FEAB9384FEA920958F829503E
:100D70004FEA82784FEA18794FF00F0808FA09F81D
:100D800025EA0805DFF87C81434502D14FF00008D1
:100D900016E0DFF87481434502D14FF001080FE0FF
:100DA000DFF86881434502D14FF0020808E0DFF820
:100DB0006081434502D14FF0030801E04FF0040881
:100DC0004FEA82794FEA197908FA09F848EA0505E5
:100DD000DFF840814FEA920948F82950D1F80480A1
:100DE00008F48038B8F5803F0AD1DFF82C81D8F8B4
:100DF000008048EA0008DFF82091C9F8008009E087
:100E0000DFF81481D8F8008028EA0008DFF808919C
:100E1000C9F80080D1F8048008F40038B8F5003F24
:100E200010D1DFF8F48008F10408D8F8008048EA0F
:100E30000008DFF8E49000E05AE009F10409C9F87D
:100E400000800DE0DFF8D08008F10408D8F80080B9
:100E500028EA0008DFF8C09009F10409C9F8008009
:100E6000D1F8048008F48018B8F5801F0ED1DFF89F
:100E7000A88008F10808D8F8008048EA0008DFF8E0
:100E8000989009F10809C9F800800DE0DFF8888022
:100E900008F10808D8F8008028EA0008DFF8789000
:100EA00009F10809C9F80080D1F8048008F4001895
:100EB000B8F5001F0ED1DFF8608008F10C08D8F8F3
:100EC000008048EA0008DFF8509009F10C09C9F8E1
:100ED00000800DE0DFF8408008F10C08D8F80080B1
:100EE00028EA0008DFF8309009F10C09C9F8008001
:100EF000521C102AFFF48EAEBDE8F88700001110D6
:100F00000010024000080140000C014000100140A8
:100F10000014014008000140000401400AB10161D1
:100F200001E00B040361704701480068704700004E
:100F30000400002003480068034909780844014977
:100F400008607047040000200C00002010B506481F
:100F5000006840F0100004490860052000F0BCF86B
:100F600000F02AF8002010BD0020024070B50446B1
:100F70000E4800784FF47A71B1FBF0F00C49096823
:100F8000B1FBF0F5284600F0FFFC08B1012070BD70
:100F9000102C07D200222146501E00F05EF80548B2
:100FA000046001E00120F2E70020F0E70C000020DF
:100FB000000000200800002008B500BF1F4880691D
:100FC00040F001001D4988610846806900F0010079
:100FD000009000BF00BF00BF0846C06940F08050CD
:100FE000C8610846C06900F08050009000BF00BF93
:100FF000052000F071F8002211466FF00B0000F0A0
:101000002CF8002211466FF00A0000F026F80022AA
:1010100011466FF0090000F020F800221146501F21
:1010200000F01BF800221146101F00F016F80022F5
:101030001146901E00F011F808BD0000001002409B
:1010400000BF00F01F02012191404209920002F10D
:10105000E022C2F8001100BF70472DE9F05F804622
:101060000D461646002701F079FC074639462A4608
:10107000334601F00700C0F1070ABAF1040F02D9A4
:101080004FF0040A01E0C0F1070AD14600F1040A5A
:10109000BAF1070F02D24FF0000A01E0A0F1030AF3
:1010A000D4464FF0010A0AFA09FAAAF1010A0AEA3B
:1010B000020A0AFA0CFA4FF0010B0BFA0CFBABF127
:1010C000010B0BEA030B4AEA0B042146404601F0F0
:1010D0004DFCBDE8F09F000000BF00F00702064B8A
:1010E00019684FF6FF031940044B0B4343EA0221F2
:1010F000014B196000BF70470CED00E00000FA05DD
:1011000070B504460D4600266248006800F00700EE
:10111000A8420ED25F48006820F0070028435D49CE
:1011200008600846006800F00700A84201D00120CE
:1011300070BD207800F00200022807D156484068B0
:1011400020F0F000A168084353494860207800F07F
:10115000010000285DD06068012806D14E48006873
:1011600000F4003090B90120E2E76068022806D15F
:101170004948006800F0007040B90120D8E74648AF
:10118000006800F0020008B90120D1E74248406839
:1011900020F00300616808433F494860FFF7C4FE40
:1011A00006466068012810D108E0FFF7BDFE801BED
:1011B00041F28831884201D90320B9E736484068B6
:1011C00000F00C000428F0D123E06068022810D160
:1011D00008E0FFF7A9FE801B41F28831884201D95F
:1011E0000320A5E72C48406800F00C000828F0D147
:1011F0000FE008E0FFF798FE801B41F2883188423B
:1012000001D9032094E72448406800F00C0000282E
:10121000F0D12048006800F00700A8420ED91D4810
:10122000006820F0070028431A4908600846006853
:1012300000F00700A84201D0012079E7207800F0F3
:101240000400042807D11448406820F4E060E168F5
:10125000084311494860207800F00800082808D1A8
:101260000D48406820F46050216940EAC1000A49F5
:10127000486000F03DF808494968C1F30311074A86
:10128000515CC840064908600020FFF76FFE00204F
:101290004EE700000020024000100240B437000872
:1012A0000000002001480068704700000000002096
:1012B00000B5FFF7F7FF04494968C1F30221034A6B
:1012C000515CC84000BD000000100240C437000857
:1012D00000B5FFF7E7FF04494968C1F3C221034A9B
:1012E000515CC84000BD000000100240C437000837
:1012F0002DE9F04F8BB03CA2D2E901311068D268E1
:10130000CDE908310A9207903BA3D3E90020D3E945
:10131000021304AC0BC403924FF00009CB46CA463B
:10132000002400200290019000903748D0F80490EB
:1013300009F00C0000284FD0042802D008284AD118
:1013400002E0324802904AE007A8C9F38341445CB6
:1013500009F48030C0B32C48C06A00F00F0003A924
:1013600011F800B02848C06A00F4803008B326485D
:10137000C06AC0F30310401C01902348C06AC0F348
:101380000320801C00900198A0FB0B5006461F49CB
:101390000098A1FB00210023A2FB047C01FB04C1F7
:1013A00002FB03112A4633463846FEF740FF8246C9
:1013B00003E016486043B0FBFBFA9DF82900A04209
:1013C00006D14FEA5A0A03E0FFE7114804FB00FA8E
:1013D000CDF808A003E000BF0E48029000BF00BF98
:1013E00002980BB0BDE8F08F00000405060708095D
:1013F00000000000000D00000102030405060708BC
:10140000090A0B0C0D0E0F100010024040787D01F0
:1014100000093D0000127A00F8B504460025207846
:1014200000F00100002878D0FD48406800F00C0072
:1014300004280CD0FA48406800F00C00082811D1AC
:10144000F748406800F48030B0F5803F0AD1F44896
:10145000006800F4003000285FD0A06800285CD14C
:101460000120F8BD00BFA068B0F5803F06D1EC4870
:10147000006840F48030EA49086028E0A06858B964
:10148000E748006820F48030E549086008460068B5
:1014900020F4802008601AE0A068B0F5A02F0BD1DE
:1014A000DF48006840F48020DD4908600846006895
:1014B00040F4803008600AE0D948006820F48030A9
:1014C000D74908600846006820F48020086000BF03
:1014D000A06888B1FFF728FD054606E0FFF724FD68
:1014E000401B642801D90320BBE7CD48006800F405
:1014F00000300028F2D010E0FFF716FD054606E0A8
:10150000FFF712FD401B642801D90320A9E7C44856
:10151000006800F400300028F2D1207800F00200CA
:10152000022857D1BE48406800F00C0050B1BC48BA
:10153000406800F00C00082818D1B948406800F451
:10154000803098B9B648006800F0020020B16069A8
:10155000012801D0012084E7B148006820F0F8009C
:10156000A16940EAC100AE49086033E06069E8B1B2
:101570000120AC490860FFF7D7FC054606E0FFF7FD
:10158000D3FC401B022801D903206AE7A448006865
:1015900000F002000028F2D0A148006820F0F80016
:1015A000A16940EAC1009E49086013E000209D49FE
:1015B0000860FFF7B9FC054606E0FFF7B5FC401BE5
:1015C000022801D903204CE79548006800F002008A
:1015D0000028F2D1207800F0080008282DD1E06919
:1015E000B8B1012090490860FFF79EFC054606E06F
:1015F000FFF79AFC401B022801D9032031E78848F5
:10160000406A00F002000028F2D0012001F034FB13
:1016100013E0002084490860FFF786FC054606E0D9
:10162000FFF782FC401B022801D9032019E77C4800
:10163000406A00F002000028F2D1207800F0040097
:10164000042873D100267648C06900F0805070B934
:1016500000BF7348C06940F080507149C8610846B6
:10166000C06900F08050009000BF00BF01266F48A5
:10167000006800F48070B0B96C48006840F4807075
:101680006A490860FFF750FC054606E0FFF74CFC8E
:10169000401B642801D90320E3E66448006800F495
:1016A00080700028F2D000BF2069012806D15C4874
:1016B000006A40F001005A49086227E0206958B9E1
:1016C0005748006A20F00100554908620846006A40
:1016D00020F00400086219E0206905280BD1504869
:1016E000006A40F004004E4908620846006A40F073
:1016F000010008620AE04A48006A20F001004849F7
:1017000008620846006A20F00400086200BF2069F1
:10171000A0B1FFF709FC054609E0FFF705FC401BF7
:1017200041F28831884202D903209AE622E03C48FF
:10173000006A00F002000028EFD012E0FFF7F4FB8F
:10174000054608E0FFF7F0FB401B41F28831884274
:1017500001D9032085E63248006A00F00200002823
:10176000F0D1012E05D12E48C06920F080502C49BF
:10177000C86100BFE06AA0B32948406800F4803027
:10178000B0F5803F0ED12648406800F00C000828D4
:1017900008D12348C06A00F48030B0F5803F01D101
:1017A00001205EE6E06A022850D11D48006800F082
:1017B000805040B11A48C06A00F0F001606B81426D
:1017C00001D001204DE6002016498866FFF7ACFBEA
:1017D000054607E0FFF7A8FB401B642802D9032059
:1017E0003FE64DE00E48006800F000600028F1D1AF
:1017F0000B48C06A20F0F000616B08430849C862DA
:101800000846C06A20F47060216B08430449C8622E
:10181000012004498866FFF787FB05460FE00000BA
:10182000001002400000424280044242007000402A
:10183000FFF77AFB401B642801D9032011E64648D4
:10184000006800F000600028F2D019E04248C06A49
:1018500020F480304049C862002040498866FFF784
:1018600063FB054606E0FFF75FFB401B642801D9D8
:101870000320F6E53848006800F000600028F2D147
:10188000206AE0B33448406800F00C0008285ED0BD
:10189000206A022846D1002030490866FFF744FB41
:1018A000054606E0FFF740FB401B022801D9032054
:1018B000D7E52948006800F000700028F2D1606A7E
:1018C000B0F5803F0DD12448C06A616808432249C1
:1018D000C8620846C06A20F00F00E16808431E494C
:1018E000C862D4E9090108431B49496821F474110D
:1018F00008431949486001201849086600E028E0BB
:10190000FFF712FB054606E0FFF70EFB401B02281F
:1019100001D90320A5E51048006800F000700028F8
:10192000F2D016E000200D490866FFF7FDFA0546E3
:1019300006E0FFF7F9FA401B022801D9032090E5E1
:101940000548006800F000700028F2D101E0012095
:1019500087E5002085E500000010024000004242BB
:10196000042808D14FF0E021096941F004014FF04B
:10197000E022116107E04FF0E021096921F0040144
:101980004FF0E0221161704770B504462546681E8D
:10199000B0F1807F01D301200FE0681E4FF0E021FD
:1019A00048610F214FF0FF3000F0E0FF00204FF0C2
:1019B000E021886107200861002070BD70477047F2
:1019C00010B504460CB9012010BD94F83D0028B9AB
:1019D000002084F83C00204600F00CF8022084F837
:1019E0003D00211D206801F003FA012084F83D002C
:1019F0000020E9E738B5044628492068884216D116
:101A000000BF2748C06940F002002549C861084668
:101A1000C06900F00200009000BF00BF0322012156
:101A20001D20FFF71AFB1D20FFF70AFB34E01D49BC
:101A30002068884216D100BF1948C06940F01000E4
:101A40001749C8610846C06900F01000009000BF47
:101A500000BF012202213620FFF7FFFA3620FFF7F0
:101A6000EFFA19E010492068884215D100BF0C48F0
:101A7000C06940F020000A49C8610846C06900F00A
:101A80002000009000BF00BF012202213720FFF795
:101A9000E4FA3720FFF7D4FA38BD00000004004014
:101AA0000010024000100040001400400146086889
:101AB000C06840F001000A68D0600868006840F023
:101AC00001000A68106000207047704710B5044696
:101AD00020680069C0F34000D8B12068C068C0F336
:101AE0004000B0B16FF0020021680861012020774A
:101AF0002068806900F0030018B12046FFF7E5FF79
:101B000005E0204600F0ADF8204600F0ABF80020DC
:101B1000207720680069C0F38000D8B12068C068D1
:101B2000C0F38000B0B16FF00400216808610220AA
:101B300020772068806900F4407018B12046FFF7D4
:101B4000C4FF05E0204600F08CF8204600F08AF83B
:101B50000020207720680069C0F3C000D8B1206859
:101B6000C068C0F3C000B0B16FF008002168086120
:101B7000042020772068C06900F0030018B12046D7
:101B8000FFF7A3FF05E0204600F06BF8204600F0C9
:101B900069F80020207720680069C0F30010D8B1F0
:101BA0002068C068C0F30010B0B16FF01000216869
:101BB0000861082020772068C06900F4407018B1DF
:101BC0002046FFF782FF05E0204600F04AF8204655
:101BD00000F048F8002020772068006900F001003C
:101BE00058B12068C06800F0010030B16FF001000A
:101BF00021680861204600F037F820680069C0F3CA
:101C0000C01058B12068C068C0F3C01030B16FF088
:101C10008000216808612046FFF7D0FE2068006937
:101C2000C0F3801058B12068C068C0F3801030B194
:101C30006FF0400021680861204600F037F8206806
:101C40000069C0F3401058B12068C068C0F340106C
:101C500030B16FF02000216808612046FFF7AFFE29
:101C600010BD70477047000010B504460B4920684E
:101C7000884212D00A492068884204D1FFF75AF9F5
:101C800001F07AF909E007492068884205D1064841
:101C9000006800F57A700449086010BD0004004037
:101CA000001000400014004080000020704770B514
:101CB0000446002520684069C0F3C01594F8390037
:101CC00021280ED16DB12068406920F08000216884
:101CD0004861206B10B1206BFEF728FC204601F014
:101CE00059FA20684069C0F3801594F83A00222818
:101CF0000ED16DB12068406920F040002168486134
:101D0000606B10B1606BFEF711FC204601F022FA07
:101D1000002070BD704701460022002391F8392051
:101D200091F83A3042EA0300704700002DE9F0478D
:101D30000446206805682068C668206847694FF037
:101D40000008C14605F00F08B8F1000F0AD105F0F0
:101D5000200038B106F0200020B1204601F024FA1E
:101D6000BDE8F087B8F1000F6DD007F0010018B999
:101D700006F49070002866D005F0010030B106F43A
:101D8000807018B1E06B40F00100E06305F00400E2
:101D900030B107F0010018B1E06B40F00200E063E1
:101DA00005F0020030B107F0010018B1E06B40F01F
:101DB0000400E06305F0080030B107F0010018B13D
:101DC000E06B40F00800E063E06B68B305F02000D2
:101DD00028B106F0200010B1204601F0E5F9206896
:101DE0004069C0F38019E06B00F0080010B9B9F148
:101DF000000F22D0204601F0ADF92068406900F0C4
:101E00004000B0B12068406920F04000216848617E
:101E1000606B50B11748616B4863606BFEF7A4FBC1
:101E200010B1606B416B88470CE02046FFF772FFF2
:101E300008E02046FFF76EFF04E02046FFF76AFF48
:101E40000020E0638CE705F0800030B106F08000F0
:101E500018B1204601F0E0FA82E705F0400030B109
:101E600006F0400018B1204601F084F978E700BF81
:101E700076E700005930000810B504460CB901207F
:101E800010BDA06900B100E000BF94F8390028B986
:101E9000002084F83800204600F028F8242084F838
:101EA00039002068C06820F400502168C8602046CE
:101EB00001F0CEF92068006920F4904021680861A3
:101EC0002068406920F02A00216848612068C068C5
:101ED00040F400502168C8600020E063202084F8AE
:101EE000390084F83A000020CAE7000010B586B037
:101EF0000446F849206888427DD100BFF6488069D1
:101F000040F48040F44988610846806900F48040CC
:101F1000019000BF00BF00BF0846806940F0040088
:101F200088610846806900F00400019000BF00BF8E
:101F30004815029002200390002004900320059091
:101F400002A9E648FEF75CFE4FF480600290002094
:101F5000039002A9E148FEF753FE0022022125204A
:101F6000FFF77BF82520FFF76BF800BFDA484069E0
:101F700040F00100D84948610846406900F001007E
:101F8000019000BF00BFD648D649C1F8A80410216F
:101F9000D448C0F8AC140021C0F8B0148021C0F8B7
:101FA000B4140021C0F8B814C0F8BC14C0F8C014B0
:101FB0004FF40051C0F8C41400F59560FEF774FDAD
:101FC00000BFC9482063C748C0F8CC4400BFC4481C
:101FD0001430C449C1F8EC040021C248C0F8F01420
:101FE000C0F8F4148021C0F8F8140021C0F8FC14E3
:101FF000C0F8001500E022E0C0F804154FF40051CD
:10200000C0F8081500F2EC40FEF74EFD00BFB648E0
:1020100044306063B348C0F8104500BF002202217D
:102020000E20FFF71AF80E20FFF70AF8002202210F
:102030000F20FFF712F80F20FFF702F805E2AB4977
:10204000206888427DD100BFA348C06940F40030B9
:10205000A149C8610846C06900F40030019000BF82
:1020600000BF00BF0846806940F004008861084650
:10207000806900F00400019000BF00BF04200290BE
:1020800002200390002004900320059002A99348A9
:10209000FEF7B6FD082002900020039002A98F48A9
:1020A000FEF7AEFD012202212620FEF7D6FF2620F4
:1020B000FEF7C6FF00BF8848406940F0010086492E
:1020C00048610846406900F00100019000BF00BF70
:1020D00083483C308649C1F8A80410218448C0F8E0
:1020E000AC140021C0F8B0148021C0F8B414002151
:1020F000C0F8B814C0F8BC14C0F8C0144FF4805134
:10210000C0F8C41400F59560FEF7CEFC00BF794816
:1021100020637748C0F8CC4400BF71482830744928
:10212000C1F8EC0400217248C0F8F014C0F8F414AF
:102130008021C0F8F8140021C0F8FC14C0F8001584
:1021400000E022E0C0F804154FF48051C0F80815F3
:1021500000F2EC40FEF7A8FC00BF66484430606324
:102160006348C0F8104500BF012202211120FEF78C
:1021700074FF1120FEF764FF012202211020FEF7F8
:102180006CFF1020FEF75CFF5FE15B49206888422E
:102190007ED100BF5048C06940F480204E49C861DC
:1021A0000846C06900F48020019000BF00BF00BF56
:1021B0000846806940F0080088610846806900F0A0
:1021C0000800019000BF00BF081502900220039094
:1021D000002004900320059002A94848FEF710FD56
:1021E0004FF4006002900020039002A94348FEF7DC
:1021F00007FD022211462720FEF72FFF2720FEF7BA
:102200001FFF00BF3448406940F001003249486177
:102210000846406900F00100019000BF00BF30484F
:1022200028383749C1F8A80410213548C0F8AC1443
:102230000021C0F8B0148021C0F8B4140021C0F807
:10224000B814C0F8BC14C0F8C014C0F8C41400F529
:102250009560FEF729FC00BF2A4820632848C0F893
:10226000CC4400BF1E4814382549C1F8EC040021B5
:102270002348C0F8F014C0F8F4148021C0F8F81412
:102280000021C0F8FC14C0F80015C0F8041500E0E7
:102290003AE04FF48051C0F8081500F2EC40FEF728
:1022A00003FC00BF1748443060631548C0F8104570
:1022B00000BF022211460C20FEF7CFFE0C20FEF7D5
:1022C000BFFE022211460D20FEF7C7FE0D20FEF7CD
:1022D000B7FEBAE00038014000100240000801409B
:1022E00044000240E40A00208C0F0020004400401B
:1022F000840000202C05002000480040000C014014
:10230000B40500205C0A0020514920688842E0D1D1
:1023100000BF5048C06940F400204E49C8610846DB
:10232000C06900F40020019000BF00BF00BF084654
:10233000806940F0100088610846806900F0100054
:10234000019000BF00BF08150290022003900020FA
:1023500004900320059002A93F48FEF751FC4FF47A
:10236000006002900020039002A93B48FEF748FC61
:10237000032202213420FEF770FE3420FEF760FEB7
:1023800000BF3448406940F00200324948610846C5
:10239000406900F00200019000BF00BF2F483049A3
:1023A000C1F8A80410212E48C0F8AC140021C0F8D0
:1023B000B0148021C0F8B4140021C0F8B814C0F8DB
:1023C000BC14C0F8C014C0F8C41400F59560FEF742
:1023D0006BFB00BF234820632148C0F8CC4400BFFA
:1023E0001E4828381E49C1F8EC0400211C48C0F8DA
:1023F000F014C0F8F4148021C0F8F8140021C0F8DB
:10240000FC14C0F80015C0F804154FF48051C0F852
:10241000081500F2EC40FEF747FB00BF11484430BE
:1024200060630F48C0F8104500BF032202213A2024
:10243000FEF713FE3A20FEF703FE032202213C20A2
:10244000FEF70BFE3C20FEF7FBFD06B010BD0000C2
:10245000004C0040001002400010014058040240AF
:1024600014100020BC14002077B581B00446154636
:1024700094F83A00202850D1029800B115B90120F3
:1024800004B070BD00BF94F83800012801D10220CB
:10249000F6E7012084F8380000BF0298A062A58505
:1024A0000020E063222084F83A001D48616B8862B6
:1024B0001C48616BC8621C48616B08630020616B3B
:1024C000486302AE32682368191D2B46606BFEF725
:1024D00035FB00BF00200090206800680090206855
:1024E0004068009000BF00BF00BF002084F83800A3
:1024F00000BF2068C06840F480702168C860206810
:10250000406940F00100216848612068406940F05E
:102510004000216848610020B2E70220B0E70000D7
:10252000BD300008033100086D30000870B5044666
:1025300031492068884213D140F22B202F49A1F85D
:1025400040000846D0F87852406CC1F8780208463E
:10255000456440F22B22D0F87812FFF785FF49E05E
:1025600027492068884213D140F22B202549A1F841
:1025700040000846D0F87852406CC1F8780208460E
:10258000456440F22B22D0F87812FFF76DFF31E05E
:102590001D492068884213D140F22B201B49A1F825
:1025A00040000846D0F87852406CC1F878020846DE
:1025B000456440F22B22D0F87812FFF755FF19E05E
:1025C00013492068884215D140F22B201149A1F807
:1025D00040000846D0F87852406CC1F878020846AE
:1025E00045640A4840F22B22D0F878120948FFF7D8
:1025F0003BFF00BF70BD000000380140E40A00202E
:10260000004400408400002000480040B405002041
:10261000004C00401410002070470000F7B504463D
:10262000154694F8390020283DD1019800B10DB924
:102630000120FEBD00BF94F83800012801D102201E
:10264000F7E7012084F8380000BF01982062A584D4
:10265000E5840020E063212084F839001348216BD1
:1026600088621348216BC8621248216B08630020FE
:10267000216B486301AE23681A1D31682B46206B1D
:10268000FEF75CFA6FF040002168086000BF002090
:1026900084F8380000BF2068406940F0800021685D
:1026A00048610020C5E70220C3E70000113100089F
:1026B000473100086D3000087047704700BFFEE7E3
:1026C00000B585B000BF0F48806940F020000D497B
:1026D00088610846806900F02000009000BF00BFBC
:1026E00030200190012002900390049001A9064837
:1026F000FEF786FA0120054908600549C1F89401F2
:1027000005B000BD0010024000140140908122423B
:102710000080224270B504461548006820F47020FD
:10272000134908600846006840F440300860002003
:1027300010490860002517E0E0090E49091F0860EC
:102740006006040E022000F0A5FF01200A49C1F82E
:102750009401022000F09EFF00200649086002203C
:1027600000F098FF681CC5B2082DE5DB70BD0000C5
:1027700000140140948122420080224210B50F488B
:10278000006820F470200D4908600846006840F495
:102790004030086001200A4908600A49C1F89401E4
:1027A000042000F077FF002005490860042000F0B5
:1027B00071FF00200349C1F8940110BD00140140CD
:1027C000908122420080224210B50F48006820F418
:1027D00070200D4908600846006840F440300860E9
:1027E00000200A4908600A49C1F89001042000F05D
:1027F00051FF0120054908600549C1F890010420F6
:1028000000F048FF10BD00000014014094812242F6
:102810000080224210B500240E48006820F4702089
:102820000C4908600846006840F400200860012058
:1028300009490860042000F02DFF01200749C1F874
:102840009401042000F026FF00200349091D0860C0
:1028500010BD0000001401409081224200802242FD
:1028600006200149087070471400002000B585B0AB
:1028700000BF1948806940F0200017498861084668
:10288000806900F02000009000BF00BF00BF084634
:10289000806940F0400088610846806900F040008F
:1028A000009000BF00BF4FF47C40019000200290D8
:1028B000012003900320049001A90848FEF7A0F925
:1028C0004FF4804001900120029001A90448FEF7D6
:1028D00097F905B000BD000000100240001801404B
:1028E00000140140014600207047000000B585B08B
:1028F00000BF0F48806940F010000D49886108460C
:10290000806900F01000009000BF00BF48150190E2
:102910000120029003900320049001A90548FEF7CE
:102920006FF9012251020348FEF7F8FA05B000BD25
:10293000001002400010014001460548006808B937
:10294000012000E00020024A1060002070470000D3
:10295000A401224200BFFEE7704700000248006861
:10296000C0F30220704700000CED00E010B5002815
:1029700007DA0A07140E054A00F00F031B1FD45490
:1029800003E00A07130E024A135410BD18ED00E0CD
:1029900000E400E010B500F0F9F8012210217A48B7
:1029A000FEF7BCFA002201217748FEF7B7FA64204F
:1029B000FEF712F9012211467348FEF7AFFA002123
:1029C000AE2000F011F90021FD2000F00DF90121E9
:1029D000122000F009F90021B32000F005F90121CF
:1029E000912000F001F90021CA2000F0FDF801213A
:1029F0003F2000F0F9F80021A22000F0F5F80121B5
:102A0000002000F0F1F80021A12000F0EDF80121F4
:102A1000002000F0E9F80021A02000F0E5F80121F5
:102A2000142000F0E1F80121112000F0DDF8002170
:102A3000B52000F0D9F80121002000F0D5F80021E0
:102A4000AB2000F0D1F80121084600F0CDF80021BC
:102A5000B42000F0C9F80121A02000F0C5F8012140
:102A6000F82000F0C1F80021C12000F0BDF80121DC
:102A7000EF2000F0B9F80021C72000F0B5F80121DF
:102A8000FF2000F0B1F80021B82000F0ADF80121DE
:102A90000C2000F0A9F80121182000F0A5F8012170
:102AA000242000F0A1F80121302000F09DF8012140
:102AB0003C2000F099F80121482000F095F8012110
:102AC000542000F091F80121602000F08DF80121E0
:102AD0006C2000F089F80121782000F085F80121B0
:102AE000842000F081F80121902000F07DF8012180
:102AF0009C2000F079F80121A82000F075F8012150
:102B0000B42000F071F80021084600F06DF80021B3
:102B1000B12000F069F80121E22000F065F8002101
:102B2000D12000F061F80121A22000F05DF8012120
:102B3000202000F059F80021BB2000F055F80121B9
:102B40001F2000F051F80021B62000F04DF80121BF
:102B5000082000F049F80021BE2000F045F80121CE
:102B6000072000F041F80021A62000F03DF80021E8
:102B7000A92000F039F80020FDF7B7FC0021AF20B4
:102B800000F032F810BD00000010014000B585B023
:102B900000BF1148806940F020000F498861084655
:102BA000806900F02000009000BF00BF4FF4785013
:102BB000019001200290002003900320049001A9BD
:102BC0000648FEF71DF801224FF47C510348FEF73A
:102BD000A5F905B000BD000000100240001401403E
:102BE000014600207047000070B504460E462EB125
:102BF0000122D1021E48FEF791F905E000224FF4B0
:102C000000611B48FEF78AF900224FF40071184852
:102C1000FEF784F900251DE000224FF4805114488E
:102C2000FEF77CF904F0800028B10122510310481E
:102C3000FEF774F905E000224FF400510C48FEF74E
:102C40006DF9012211030A48FEF768F96006040EC7
:102C5000681CC5B2082DDFDB012251020448FEF7D3
:102C60005DF90122D1020248FEF758F970BD00005B
:102C7000001401407047000008B508490968C908F8
:102C80004FF47A72B1FBF2F14143009100BF00BFF3
:102C900000994A1E00920029F9D108BD00000020C9
:102CA000014600207047704770B505460C4600216C
:102CB0001520FFF799FF01212846FFF795FF012115
:102CC0002046FFF791FF70BD70B505460C46002108
:102CD0007520FFF789FF01212846FFF785FF0121B5
:102CE0002046FFF781FF70BD10B500215C20FFF783
:102CF0007BFF10BD30B593B0054600240120059040
:102D00000004079004200890800306900220109091
:102D10004FF4C0611191402112910D90C1030E91A9
:102D20000F9505A8FEF778FB04460CB100BFFEE73F
:102D30000F20009002200190002002904FF480604C
:102D400003900020049002216846FEF7D9F904465A
:102D50000CB100BFFEE713B030BD0000144800689E
:102D600040F00100124908600846406811490840D7
:102D70000F494860084600680F4908400C49086040
:102D80000846006820F4802008600846406820F467
:102D9000FE0048600846006820F0A05008604FF42C
:102DA0007F0088600020C862C8030449086070473B
:102DB000001002400000FFF0FFFFF6FE08ED00E00B
:102DC00010B50248FEF782FE10BD00004415002039
:102DD00010B50248FEF77AFE10BD000084150020F1
:102DE00010B50248FEF772FE10BD0000C4150020A9
:102DF000002202681B4B98420BD0B0F1804F08D0E4
:102E0000194B984205D0194B984202D0184B984262
:102E100003D122F070024B681A43124B98420BD038
:102E2000B0F1804F08D0104B984205D00F4B98421C
:102E300002D00F4B984203D122F44072CB681A4360
:102E400022F080024B691A4302608B68C3620B68F0
:102E50008362044B984201D10B69036301234361F0
:102E600070470000002C01400004004000080040B2
:102E7000000C004010B50446032C04D0062C09D0E9
:102E8000072C15D10DE000200B4908600B48FEF718
:102E90000DFE0EE000200A4908600A48FEF706FE13
:102EA00007E00020064908600748FEF7FFFD00E044
:102EB00000BF00BF10BD00002404004044150020E6
:102EC000242C014084150020C41500202DE9F04178
:102ED00005460E461746012D10D0032D03D10C4C8C
:102EE0000C4820600AE0062D03D10B4C0B482060F3
:102EF00004E0072D02D10A4C0A4820606760E660B2
:102F000000212161A1602046FEF75AFDBDE8F08155
:102F100044150020000400408415002000100040EB
:102F2000C41500200014004010B500241AE0104819
:102F300000EB04100078012812D100200C4901EBAD
:102F4000041108700A4800EB0410806840B1084A78
:102F500002EB0412D068064A02EB0412916888471B
:102F6000601CC4B2034800788442E0DB10BD00005E
:102F70001C0000201400002018490968491C174A49
:102F80001160002024E0164901EB00118979012924
:102F90001CD1134901EB00114988491C104A02EB6E
:102FA000001251800E4901EB001149880C4A02EBD6
:102FB00000129288914209DB0021094A02EB0012BB
:102FC00051800121064A02EB00121170411CC8B267
:102FD000044909788842D6DB7047000018000020B9
:102FE0001C0000201400002038B51948FEF79EFE92
:102FF0001848006800F0100040B300BF00200090A7
:10300000134800680068009011480068406800900C
:1030100000BF00BF0E48D0F8EC04406840F22B21FE
:10302000081A0B49A1F840000846FEF740FE084880
:10303000D0F87842406C0649C1F8780208464464EA
:1030400040F22B22D0F87812FFF70EFA38BD0000BC
:1030500014100020004C004070B505466C6A00203A
:10306000E085E0842046FEF755FE70BD70B506464B
:103070000025746A20684069C0F3C01594F83900CF
:10308000212805D125B10020E084204600F082F8F7
:1030900020684069C0F3801594F83A00222805D1D1
:1030A00025B10020E085204600F054F8E06B40F0A8
:1030B0001000E0632046FEF72DFE70BD70B505469A
:1030C0006C6A2868006800F02000B0B90020E08534
:1030D0002068C06820F480702168C860206840695A
:1030E00020F00100216848612068406920F040001C
:1030F00021684861202084F83A002046FFF716FA3C
:1031000070BD70B50446656A2846FFF785FA70BD44
:1031100070B505466C6A2868006800F0200070B938
:103120000020E0842068406920F080002168486128
:103130002068C06840F040002168C86002E0204676
:10314000FFF7BAFA70BD70B50446656A2846FFF706
:10315000B4FA70BD0168C96821F490710268D16049
:103160000168496921F0010102685161202180F85C
:103170003A10704710B504462068C06820F040003F
:103180002168C860202084F839002046FFF794FAAF
:10319000002010BD0168C96821F0C0010268D1603B
:1031A000202180F83910704770B5044694F83A0031
:1031B00022284AD1A068B0F5805F13D1A56A2069A2
:1031C00040B920684068C0F308002880A06A801CCD
:1031D000A06219E020684068C0B22880A06A401C44
:1031E000A06211E0206938B920684068C1B2A26AC3
:1031F000501CA062117007E02068406800F07F0159
:10320000A26A501CA0621170E08D401E80B2E08561
:10321000C8B92068C06820F020002168C860206814
:10322000C06820F480702168C8602068406920F080
:10323000010021684861202084F83A002046FFF709
:1032400075F9002070BD0020FCE70220FAE70000BD
:103250002DE9F041044600252068006920F4405023
:10326000E1680843216808612169A0680843616931
:10327000084305432068C06841F20C618843284335
:103280002168C8602068406920F44070A169084343
:10329000216848615F49206888425CD1FEF718F8D0
:1032A00000EBC00101EB001061688900B0FBF1F692
:1032B000FEF70EF800EBC00101EB00106168890019
:1032C000B0FBF1F06421B0FBF1F000EBC00101EBC9
:1032D0000010A6EB8000322101EB00106421B0FB4E
:1032E000F1F000F0F006FDF7F3FF00EBC00101EB99
:1032F000001061688900B0FBF1F06421B0FBF1F0CF
:1033000006EB0016FDF7E4FF00EBC00101EB001037
:1033100061688900B0FBF1F7FDF7DAFF00EBC0014F
:1033200001EB001061688900B0FBF1F06421B0FB93
:10333000F1F000EBC00101EB0010A7EB800032219F
:1033400001EB00106421B0FBF1F000F00F003044FD
:10335000216888605BE0FDF7ABFF00EBC00101EB8B
:10336000001061688900B0FBF1F6FDF7A1FF00EBEA
:10337000C00101EB001061688900B0FBF1F064212D
:10338000B0FBF1F000EBC00101EB0010A6EB8000F8
:10339000322101EB00106421B0FBF1F000F0F006E7
:1033A000FDF786FF00EBC00101EB001061688900AA
:1033B000B0FBF1F06421B0FBF1F006EB0016FDF775
:1033C00077FF00EBC00101EB001061688900B0FBE2
:1033D000F1F7FDF76DFF00EBC00101EB0010616834
:1033E0008900B0FBF1F06421B0FBF1F000EBC0010B
:1033F00001EB0010A7EB8000322101EB00106421EB
:10340000B0FBF1F000F00F00304421688860BDE8A7
:10341000F081000000380140014691F83900212870
:103420002CD18868B0F5805F0FD10A6A1088C0F38C
:1034300008000B685860086918B9086A801C08629F
:1034400009E0086A401C086205E00B6A581C086223
:1034500018780B685860C88C401E80B2C88458B970
:103460000868C06820F080000B68D8600868C068F1
:1034700040F040000B68D860002070470220FCE755
:1034800038B51948FEF752FC1848006800F01000E3
:1034900040B300BF0020009013480068006800900F
:1034A000114800684068009000BF00BF0E48D0F887
:1034B000EC04406840F22B21081A0B49A1F84000A7
:1034C0000846FEF7F4FB0848D0F87842406C0649FD
:1034D000C1F878020846446440F22B22D0F87812F2
:1034E000FEF7C2FF38BD0000E40A002000380140AA
:1034F00038B51948FEF71AFC1848006800F01000AB
:1035000040B300BF0020009013480068006800909E
:10351000114800684068009000BF00BF0E48D0F816
:10352000EC04406840F22B21081A0B49A1F8400036
:103530000846FEF7BCFB0848D0F87842406C0649C4
:10354000C1F878020846446440F22B22D0F8781281
:10355000FEF78AFF38BD00008400002000440040D0
:1035600038B51948FEF7E2FB1848006800F0100073
:1035700040B300BF0020009013480068006800902E
:10358000114800684068009000BF00BF0E48D0F8A6
:10359000EC04406840F22B21081A0B49A1F84000C6
:1035A0000846FEF784FB0848D0F87842406C06498C
:1035B000C1F878020846446440F22B22D0F8781211
:1035C000FEF752FF38BD0000B4050020004800405F
:1035D00010B5044600221146024800F0A9F8002068
:1035E00010BD00008400002000BFFEE700BF704750
:1035F00010B504460021A161E161E160A1600C21E8
:1036000061612046FEF738FC04F14C00606404F56B
:103610001F70C4F878022068C06840F0100021686C
:10362000C86040F22B222046D4F87812FEF71CFF27
:1036300010BD2DE9F04104460D4616460A27FDF758
:1036400073FC804608E0FDF76FFCA0EB0800B84271
:1036500002D90320BDE8F0812046FEF75CFB21285B
:10366000F1D0324629462046FEF7D8FFF2E70000A7
:1036700010B504460420FEF773F9054804604FF0C6
:10368000E020006920F002004FF0E021086110BD49
:103690001000002070B5034600224FF0E026756947
:1036A0000D4E366803FB06F44FF0E026B16910E0DA
:1036B0004FF0E026B06988420BD0884202D20E1A41
:1036C000324402E02E1A0E4432440146A24200D394
:1036D00000E0EDE700BF70BD10000020FDF736FCF4
:1036E0004FF4E010FFF706FB4820FFF7C1FFFFF79C
:1036F000FDF8FFF7BBF848224FF47A710620FFF778
:10370000E5FB48224FF47A710720FFF7DFFB062024
:10371000FFF7B0FB00F036F8FFF7A2F8FFF73AF931
:10372000FCF732FEFCF734FE01E0FFF7FDFBFCE79F
:103730002DE9F04104460D4616460027B4F8400036
:1037400050B1B4F8401033462A46D4E9110CE04792
:10375000C7B20020A4F840003846BDE8F081000060
:103760002DE9F04104460D461746984600262A46A4
:1037700021460348FFF75DFF3046BDE8F0810000B9
:103780008400002010B50848084908604FF4E13073
:1037900048600021054801610548044988640846DD
:1037A000FFF726FF10BD0000004400408400002009
:1037B000613700080000000000000000010203045F
:1037C000060708090000000001020304EC370008A6
:1037D00000000020840000008C0100087038000800
:1037E00084000020E41B0000A801000800A24A0495
:1037F00000000000100000000100000000000000B8
:10380000000000000000000000000000F4010100C2
:10381000D13500080000000000000000F4010100A4
:103820003929000800000000000000009600010097
:10383000E12B00080000000000000000140001005F
:10384000E52800080000000000000000E803010077
:10385000A12C00080000000000000000640001002E
:103860003704000800000000000000000000000015
:04000005080001519D
:00000001FF
